:4000000000800020110000009D0200009D02000008B54FF04023D3F8FA2603F54053C3F8BC2600F043F9000010B5054C237833B9044B13B10448AFF300800123237010BD91
:400040004081FF1F000000000805000008B5034B1BB103490348AFF3008008BD000000004481FF1F0805000008B562B6012000F093F94FF47A7000F079F900F0E5F9FEE79B
:40008000FEE730B50546002214460DE001EB420E11F812C09EF801E00CF800E00132013BDBB2002BF2D101340C2C05D855F82400C3B220F0FF00F4E730BD0000074B93F882
:4000C000CF3003F00701064A82F86E101B0982F86F30442382F87630704700BF000100490058004008B50A46002100F005FA08BD08B500F0F3F908BD08B500F0EFF908BD08
:4001000038B54FF0402345F6BF52A3F88020182283F88220204A022111700821197003F5007303221A701D4A127AD2B21C4880F8A120598441F251221A840024192585B1AB
:40014000032C0ED0174B93F8253003F0010343EA440404F003044FF4F07000F085F9013DEDE7ADB14FF040234FF480729A8007221A7100229A71482119721A7102225A7009
:40018000054A92F8A23043F0010382F8A23038BD0320FFF775FF00BF0043004000010049004600400042004038B572B6314A92F8E83043F0040382F8E83000240BE02E4878
:4001C00004EB440253000344520099888058FFF789FF0134E4B2062CF1D9274D05F12C0105F5C270FFF74DFF244B20229A7403F57043DA7842F00202DA70DA7C42F00202D3
:40020000DA741F4C94F8A03043F0400384F8A03094F8C23043F0100384F8C230082205F5DC711848FFF764FF0A2205F5E0711648FFF75EFF082205F5E6711448FFF758FF3F
:4002400094F8223043F0080384F8223004F5A06461232370FFF754FF812323700C4B01221A71FFF72BFF0E220A490B48FFF744FF38BD00BF004600400C05000000600040E1
:400280000043004002510040F05100401251004000000840A0430040B043004008B500F0F3F803680C2B00D0FEE7FEE708B5104D104E11E051F8040B43F8040B0432A2426D
:4002C000F8D1F068002203E0002143F8041B04328242F9D11036013D25B131687368B4680022ECE700F0D6F8FFF7BEFEFEE700BF010000000407000008B54FF0E023144A3D
:40030000C3F80C2DD3F8142D42F40072C3F8142D002306E00F4A52F823100F4A42F8231001332F2B03D8032BF4D90C49F5E70C4B93F8BC200B4B1A704FF0E023064AC3F8F4
:40034000082DFFF731FF084B00221A6008BD00BF0004FA05000000000080FF1F9D02000000760040C480FF1FC080FF1F10B5044605E0084B186800F077F8A4F50044B4F54D
:40038000004FF6D8034B586804FB00F000F06CF810BD00BFC880FF1F044A137803F0FD03400000F0020018431070704700510040034A92F8743043F0800382F874307047B6
:4003C00000650040014B83F88400704700650040014B93F86400704700650040014B83F82400704700650040014B93F84400704700650040014B1871704700BF006500406C
:4004000008B501E0FFF7F0FFFFF7E2FF10F0080FF8D108BD08B56320FFF7E0FF6320FFF7E9FF00F029F8074A92F8943043F0100382F8943000F024F8FFF7E2FF0020FFF71A
:40044000C1FF08BD0065004008B5064B1B7813B1FFF7AEFF08BDFFF7DDFF024B01221A70F6E700BF5C81FF1F0230800803D000BF01380046FCD17047EFF3108072B6704782
:4004800080F31088704700BF014B1868704700BFD880FF1F70B500260C4D0D4C641BA410A64209D100F01CF900260A4D0A4C641BA410A64205D170BD55F8043B9847013679
:4004C000EEE755F8043B98470136F2E7EC060000EC060000EC060000F40600000A44914200F1FF3300D1704710B511F8014B914203F8014FF9D110BD03460244934200D10C
:40050000704703F8011BF9E700000000205100405000C0510040100000000140001000140140000800400140000A004C01400002005001402000000000A3016A840D8E10F5
:40054000E24089028C049620E280E64003010403060C08060A0913012E0F3001310132083402360437013E553F40405445EC4720482349FF4AFF4BFF4F01501852805401C9
:40058000580459045A045B045F016040624064406540668068806A806C806E808C258D018E5A8F0294D4962898CA9A259D1D9F02A50AA715A906AB19ACD1AE22B030B1032F
:4005C000B20FB310B440B508B680B704BA3ABB02BE40BF54D808D908DF01032804400E281380178019021A251C401E281F6822422404254027902F283102378038023C4081
:40060000410149054B405001510159055A80710273407E02874089408F10940496259D02C086C260C481CA60CC11CE11D001D208D60BDE10E6608A05940496209D02E6A0A8
:4006400050105102554058085F10602064046580D4E0D6E0D8C08C08942097109C2C9D80A54288208D80942097109C249D80A54288048940942097109C04A54287108902AC
:400680008C1094209710A502E21010011A01000002520040016500400205014005070140471401402E150140051701400B4101400642014007430140064801400749014071
:4006C0000250014000FFFF00FF000000800080000000000000000000000B0B0000000000F8B500BFF8BC08BC9E4670474D000000F9020000F8B500BFF8BC08BC9E4670470E
:400700002900000018070000C880FF1F7800000020000000000000000000E02EC05D00001800000000366E01DC80FF1F000000000000000000000000000000000000000011
:400740000000000000000000000000000000000000000000000000000000000000000000000000000000000000000000000000000000000000000000000000000000000079
:400780000000000000000000000000000000000000000000000000000000000000000000000000000000000000000000000000000000000000000000000000000000000039
:4007C00000000000000000000000000000000000000000000000000000000000000000000000000000000000000000000000000000000000000000000000000000000000F9
:4008000000000000000000000000000000000000000000000000000000000000000000000000000000000000000000000000000000000000000000000000000000000000B8
:0200000480007A
:0200000490006A
:0400000000004005B7
:0200000490105A
:04000000BC90ACAF55
:0200000490204A
:0100000000FF
:0200000490303A
:020000009390DB
:0200000490402A
:4000000000000000000000000000000000000000000000000000000000000000000000000000000000000000000000000000000000000000000000000000000000000000C0
:400040000000000000000000000000000000000000000000000000000000000000000000000000000000000000000000000000000000000000000000000000000000000080
:400080000000000000000000000000000000000000000000000000000000000000000000000000000000000000000000000000000000000000000000000000000000000040
:4000C0000000000000000000000000000000000000000000000000000000000000000000000000000000000000000000000000000000000000000000000000000000000000
:0200000490501A
:0C00000000012E16006900012E1893F973
:00000001FF