:020000041000EA
:4000000000F00308CF0200100D00000035030010350300103503001035030010000000000000000000000000000000003103001031030010000000003103001031030010A7
:400040003103001031030010310300103103001031030010310300103103001031030010310300103103001031030010310300103103001031030010310300103103001040
:400080003103001031030010310300103103001031030010310300103103001031030010310300103103001031030010310300103103001031030010310300103103001000
:4000C00031030010310300103103001031030010310300103103001031030010310300103103001031030010310300103103001031030010310300103103001031030010C0
:40010000310300103103001031030010310300103103001031030010310300103103001031030010310300103103001031030010310300103103001031030010310300107F
:40014000310300103103001031030010310300103103001031030010310300103103001031030010310300103103001031030010310300103103001031030010310300103F
:4001800031030010310300103103001031030010310300103103001031030010310300103103001031030010310300103103001031030010310300103103001031030010FF
:4001C00031030010310300103103001031030010310300103103001031030010310300103103001031030010310300103103001031030010310300103103001031030010BF
:40020000310300103103001031030010310300103103001031030010310300103103001031030010310300103103001031030010310300103103001031030010310300107E
:40024000310300103103001031030010310300103103001031030010310300103103001031030010310300103103001031030010310300103103001031030010310300103E
:4002800031030010310300103103001010B5054C237833B9044B13B10448AFF300800123237010BD70260008000000008882001008B5034B1BB103490348AFF3008008BDC3
:4002C0000000000074260008888200107047FFF7FDFF72B6104C114DAC4209DA21686268A368043BA2BFC858D050FAE70C34F3E70B490C4A00209142BCBF41F8040BFAE76C
:4003000009480A490860BFF34F8F00F015F900F0EFF800F0E1FCFEE72CA5021044A5021070260008003900080000000808ED00E0FEE7FEE700B504207146084202D0EFF3A8
:40034000098001E0EFF30880043001F091FEFEE708B5012001F064FC08BD00005D4BD3F8802302F00F0202F1D00153F8213003F00703042B17D8DFE803F003161605080092
:40038000554B11E0554B1B680EE002F1C003514951F8233003F01F03112B1DD0132B1ED14FF4004300E04E4BB2BB4A4AD2F8900500F00100D2F88815C1F30171D2F88825F0
:4003C00012F0405F0ED0434AD2F88825C2F30172012A08D0002206E04FF40043E4E74FF4FA43E1E7012202B108B9032916D13949D1F88005C0F31100D1F88425C2F30C023B
:40040000D1F88015C1F300610131B3FBF2F300FB03F3B3FBF1F301E0012A2BD02D4AD2F88023C2F30112D3402C4A53602D49D1F89000C0F3072001300969090E0131B3FBCF
:40044000F1F19160B3FBF0F3D360136103F5742101F23F212448A0FB0101C1F38741117503F2E7332149A1FB03139B099361DB03D3617047174AD2F8400600F00100D2F8CE
:400480000016C1F30171D2F8002612F0405F08D0104AD2F80026C2F30172012A02D0002200E0012202B108B90329B7D10949D1F8002602F07F02D1F80006C0F30420D1F8B8
:4004C0000016C1F3044102FB03F3B3FBF0F3B3FBF1F3A3E70000264000127A008C02000800366E010000214083DE1B43D34D621008B50D4802F078FA00F006F9FFF72EFFE6
:4005000000221146042001F0F1F8084801F0BCF9074B1B6893F8513013B900F011FD08BD044801F031FAF8E7647200108C260008DC2900081864001008B501F05EFE074A03
:40054000D2F8883043F47003C2F88830BFF34F8FBFF36F8F01F055FE08BD00BF00ED00E0024B034AC3F8002E704700BF00001F410100118010B5614AD2F8003523F0030395
:4005800043F00103C2F800355D4B1A681068D2F88810425822F47F4242501A681068D2F88410425822F07F4242501A681068D2F88410425822F47F4242501B6893F83E20F0
:4005C00032B14E49D1F8802322F00F02C1F8802393F83E2032B14949D1F8802322F03002C1F8802393F83E3033B1444AD2F8803343F00043C2F880330021012001F044FBEF
:400600000021022001F040FB0021032001F03CFB0021042001F038FB0021084601F034FB364CD4F8003523F47063C4F80035D4F8003523F4E043C4F80035D4F8003543F425
:400640000043C4F800352F4A136823F440731360002002F0ADF9D4F8803113F0010F05D1D4F80C3523F00043C4F80C350821002001F050FD224B1A6892F83F30022B09D919
:4006800092F8710002238340032181400B409268C2F8083C1A4A13689868B3F87810435823F47F0323F47F4343F48063435013689868B3F87810435823F0F80343F058037E
:4006C0004350126892F87330032000FA03F392F8701092F87240A1400B4392F871400221A140A04001400B43916843F00043C1F800349368D3F8003410BD00BF0000264042
:40070000DC2900080000274030B58FB040F2DC5001F072FC9621002001F0FCFC34252A46002101A804F05EFD1F4C01AA0021204600F002FD2A46002101A804F053FD01AA0D
:400740000121204600F0F8FCFFF714FF24252A46002101A804F046FD4FF40023049301A9204600F099FE0DF1040C104C0FCCACE80F000FCCACE80F002368CCF8003001A927
:400780000B4800F089FE2A46002101A804F02AFD4FF4CC03049301A9064800F07DFEFFF7DFFE0FB030BD00BF000032404C640010800432400006324030B589B043F20603D4
:4007C000984200F0C8800C4628D944F2100398427ED945F2170398427ED8B0F5A04F7BD9A0F5A043013B162B76D8DFE813F03401490157017500750075007500750075000F
:400800007500750061017500D70175007500750075007500750075007500870142F21603984245D8B0F5005F1CD3A0F50053162B52D8DFE813F05A005100510051005E00F0
:400840005100510051005100AE00510051005100510051005100510051005100F3005100DE00F70041F2010398423AD041F20203984204D10978A34804F0BCFC09E0B0F5EC
:40088000805F29D1A04804F051FD0021084603F069F909B030BDA0F58043063B0A2B1BD8DFE803F05D7B7F1A951A1A1A1A1A730043F20203984220D043F2030398420BD160
:4008C000924804F033FD924804F094FC06253CE044F206039842DED201468E4804F08AFCD7E78D4804F022FDD3E78C4804F01EFDCFE78B4804F01AFDCBE78A4804F016FD93
:40090000217819B1884804F075FCC2E7874804F00DFD87498B784A780878029001920093CB780A794979834804F064FC0021084603F018F9ADE763681B682B4413F8011C49
:400940007D4804F057FC013DEDB2002DF3D10A2004F068FC9DE7794804F0E8FC99E7784804F0E4FC774B1B88ADF814309DF815301BB9754AD35C002B8BD1744804F0D6FCF7
:400980000021084603F0EEF883E7714804F0CEFC7FE7704804F02EFC7BE76F4804F0C6FC77E7684B1B88ADF814309DF8153013B9654AD35C1BB90021684804F01BFC5C4B8B
:4009C00017221A810021084603F0CCF861E7644804F0ACFC638807EE903AF8EEE77AB7EE047A67EE877AFCEEE77A564BC3ED017A4FE75C4804F09AFC23783BB95A4804F063
:400A000095FC504B18780CF049FC42E7574804F08DFC4C4B18780CF041FC3AE7544804F085FC36E7534804F081FC1023ADF81430ADF816300023ADF818304FF4C872ADF880
:400A40001A20404A12788DF81C20ADF81E3005A809F098FD1DE73B4D23882B802A786978454804F0C7FB2B88AB8221232B8205F11803AB600123AB8128780CF00FFC08E7BE
:400A80003E4804F053FC2F4B1A7823789A427FF400AF2C4BFF221A705A70FAE66188172928BF1721224B1981354804F0A3FBF0E62289217B334804F09DFB2389222B7FF40E
:400AC000E8AE214604F10C0003F0D0F9E0680EF0A9FE58B12C4804F029FC2121194803F03FFA38B1294804F021FCD2E6284804F01DFCF2E7274804F019FCCAE6264804F0E7
:400B000015FCC6E6B864001070640010A0650010C8650010E468001098640010A4640010D4640010F46400101465001048650010AC0200086C650010E8650010F0650010C7
:400B4000146600100C280008002A000838660010486600106C660010846600109C660010BC660010E0660010FC6600101C6700104467001058670010706700108C67001022
:400B8000A4670010D46700101068001050680010346800106C6800108C6800102389242B7FF477AE22682179014804F023FB70E6C068001000B585B0114800F0C7F870B138
:400BC0000146104804F016FB02A829F027F8014648B10D4804F00EFB05B05DF804FB0B4804F0A4FBF0E7BDF80C3000939DF80A309DF809209DF80810054804F0FBFAEBE751
:400C0000B9070010FC680010386900101C6900106C69001000B583B01B4B1A7E01321A769B8AADF804309DF8053063B1174A184B9A4221D022B3144B198A164804F0DAFA32
:400C400003B05DF804FB144AD35C012B01D80F4AF0E7124803F0E4F808B1114AEAE70A48018A143003F07CF908B90E4AE2E70B480EF0CAFD0246DAE70B4804F057FBDFE7B2
:400C80000A4804F053FBDBE70C2800080700160001001600C8690010002A0008142800080200160017001600886900100C6A001038B514460D4601B122B940F27351044882
:400CC00001F0BEF922462946024801F0ACFE38BD306A00100000634008B562B6144C154A1549204601F0B6FE236843F000432360FFF760FF114B10229A6002E0104B002291
:400D00001A6028F09BFF0F4B1B6913F0100FF5D00B4A136801331360052BF2D10A4B1B78002BEED1FFF776FF054B00221A71E8E70000634020290008E06D00100006324086
:400D400028280008000032402C2A000888B108B5094AD062094B1B7843B91046084B536302F056FB054A0121117008B902F072FB08BD0448704700BFB802000818290008A7
:400D80009C6A001001001600C0F30800B0FA80F040097047B0F1204F3CD018D880283BD007D9B0F5807F3FD0244B984209D024487047102832D0402801D1224870470028DD
:400DC0002ED170474FF4A40070471D4870471E4B98422BD02DD31D4B98422CD8B0F1704F12D900F1805001380428EED801A353F820F000BFC50D0010CB0D0010250E0010FD
:400E00000D0E0010110E00100D4870471048704710487047002070470F4870470F487047074870470E487047044870474FF4A0007047034870470248C3E700BF060052007E
:400E4000FF00520002005000090000A0050000F0020052000300520005005200010050000100520010B5124B1B6893F83130012B16D90F4B1C68236AB4F8B0201344D4F8D7
:400E8000B420D358002B11DB0A4B1868FFF782FF636801229A6063689B68002BFBD110BD40F2C311044801F0CBF8E2E70348F6E7DC2900085C290008206E001002005000D5
:400EC0001A4B186228B102230370FF23437000234380174B1B6893F8502002B9704700B583B0B3F93830ADF80030002301931149684601F047F8BDF90030002B07DB03F0EF
:400F00001F015B0901228A400B4941F82320084B1B6893F8513013B903B05DF804FB02220649012000F0ECFDF6E700BF5C290008DC2900086108000800E100E019090008BC
:400F400008B50248FFF7BCFF08BD00BF8029000838B505460C46FFF717FF002833D0002C33D0FFF7FBF91A4B1A4A1A6000225A609D60DC60184B1B6893F85220EAB1186854
:400F8000D3F8842083581B0E8258C2F30722591C02FB0111114B03FB01F1114B1B68114AA2FB03239B09B1FBF3F101F5195108314FF4807005F02CFA06E000214FF48070E4
:400FC00005F026FA00E0084838BD0748FCE700BF5C29000800010005DC290008C0EA210190020008D34D62100600520008B5FFF739FF08BD10B50446FFF7C6FE08B91E4836
:4010000010BDFFF7ABF91D4B4FF0E0521A604FF0B053DB7A23B1194A136843F480731360164B5C6000229A60DA60154B1B6893F85420DAB11868D3F8842083581B0E825863
:40104000C2F30722591C02FB01110E4B03FB01F10D4B1B680D4AA2FB03239B09B1FBF3F101F69801002005F0D3F9C9E70021084605F0CEF9C4E700BF060052005C29000801
:40108000DC29000860F5900090020008D34D621038B505460C46FFF777FE00283CD0002C3CD0FFF75BF91E4B4FF0C0621A604FF0B053DB7A23B11A4A136843F4807313603C
:4010C000174B4FF480725A609D60DC60154B1B6893F85320DAB11868D3F8842083581B0E8258C2F30722591C02FB01110E4B03FB01F10E4B1B680E4AA2FB03239B09B1FB3B
:40110000F3F101F56171002005F082F905E00021084605F07DF900E0064838BD0548FCE75C290008DC290008808D5B0090020008D34D621006005200002800F0A181F8B5F4
:401140000D4614460646002A00F09C81072900F2F8802368012B00F2F980636833F00F0340F0F980237A33F01F0340F0F980E368032B00F2FA802369012B00F2FB80636979
:40118000012B00F2FC80A369012B00F2FD80E369032B00F2FE80236A012B00F2FF80636A012B00F20081A36A012B00F20181E36A032B00F20281236B072B00F2038127680C
:4011C000072D00F20481012F00F20781002F40F00A810123AB4073606768072D00F2078137F00F0340F00981A800A74B1B6893F87D108B590F22824023EA020307F00F0733
:4012000087401F438F51277A072D00F2FC8037F01F0340F0FE809C4B1A689369F31ADB095269190102EB0313032D00F2F88053584FEAC50C1F2000FA0CF023EA000307F0B2
:401240001F0707FA0CF71F435750E768082D00F2F380032F00F2F68068008B4B1B6893F87C108B590322824023EA020207F00303834013438B512769082D00F2E980012FC2
:4012800000F2EC80B3690122AA4023EA020307F00107AF401F43B7616769072D00F2E480012F00F2E7807848036893F87EC05CF806300121A94023EA010307F00102AA40CC
:4012C0001A434CF806206A0002F1100C032303FA0CF31943036893F87F70BB5923EA0101A36903F00103AB400B43E26902F0030202FA0CF21343BB51036893F88020B158AF
:4013000021F0FF01236A03F00103606A400000F002000343A06A800000F004000343E06AC00000F018000343206B4001C0B20343AD0005F47E7503FA05F50D43B550002031
:40134000F8BD4521514800F07BFE02E746214F4800F076FE01E747214C4800F071FE01E748214A4800F06CFE01E74921474800F067FE00E74A21454800F062FEFFE64B21CF
:40138000424800F05DFEFEE64C21404800F058FEFDE64D213D4800F053FEFCE64E213B4800F04EFEFBE64F21384800F049FEFAE65021364800F044FEF9E65121334800F04D
:4013C0003FFEF8E65221314800F03AFEF7E640F227312F4800F034FEF5E64FF44A712C4800F02EFEF2E60123AB40B360F4E64FF47171274800F024FEF2E640F2C53124486F
:4014000000F01EFEF0E64FF42271214800F018FEFDE640F289211E4800F012FEFBE62A1F5968D2001F20904021EA000107F01F0797400F435F6008E74FF4DD61144800F0C7
:40144000FFFD06E740F2E961114800F0F9FD03E740F269610E4800F0F3FD10E740F26A610B4800F0EDFD0DE740F20341084800F0E7FD15E740F20441054800F0E1FD12E776
:401480000448704703485BE7DC2900087C6E0010D46E001001005A0000286ED070B50C46054600296BD00B6833F0FF0347D1236933F0FF0348D1A3685B0D5B05002B48D1CB
:4014C000636823F4FF7323F00103002B46D1E36913F0604F47D1236A13F0604F48D1294B19688A69AA1AD2094969100101EB021226682E601E6896F87DC0E66845F80C6023
:401500001E6896F87EC0266945F80C601E6896F87FC0666945F80C601E6896F87CC0A66845F80C606668AE611B6893F88030A669EE50E3690B50236A5360002070BD992179
:40154000114800F07DFDB2E79A210F4800F078FDB1E79B210C4800F073FDB1E79C210A4800F06EFDB3E79D21074800F069FDB2E79E21054800F064FDB1E7044870470348B5
:40158000DCE700BFDC2900087C6E001001005A0038B50C4B1B68D3F8B4301B58002B01DB094838BD05460C460B0C1B041BB9A4B26C600020F5E740F2D521044800F040FDAB
:4015C000F5E700BFDC29000801008A00206E001038B50368002B0FDA05460C46C2600B0C1B041BB9A4B2AC60002038BD40F2BB21024800F025FDF5E70148F6E7206E001064
:4016000001008A0038B504460D4651B1084B1B68D3F8B4301B59002B08DAE3682B60002038BD9921034800F00BFDEFE70248F7E7DC2900082C6F001001008A00264B1B6870
:4016400093F83130834242D970B505460C4600293FD00B6813F01F0F01D0204870BD1E4B1B6893F8313098421CD21B4B1B68186AB3F8B03003FB0505194E35602268D2089C
:401680000021606803F0AEFD00212846FFF780FF35686CB1224600212846FFF799FF68B11048DBE740F2C3110F4800F0C9FCDCE740F293310C4800F0C3FCEBE70021084B19
:4016C0001868FFF765FF0028C8D00648C6E7034870470248C2E700BFDC29000803018A008429000801018A00206E001038B505460C4613461AB11BB3D4B9124838BD0029A6
:40170000F9D1114B1B6893F8313098420AD20E4B1B68186AB3F8B03003FB05000B4B18602046EBE740F2C311094800F089FCEEE706494C608B6004312846FFF77FFFDDE70A
:401740000048DBE703018A00DC29000884290008206E00102DE9F041184B1B68DE683368834229D90C46470900F01F0001258540B1B14FF00008114B18680368002B15DAF6
:40178000726852F8273013EA05060DD12B4342F827300021FFF7FCFE54B13046BDE8F08100F02BFD8046E6E7054EF2E7054EF3E7404600F026FDF0E7034EEEE784290008D8
:4017C000020188000301880004018A002DE9F041194B1B68DD682B6883422BD90C46460900F01F00012303FA00F8B9B10027124B18680368002B17DA6A6852F8263013EA47
:40180000080F0FD023EA080342F8263000250021FFF7BEFE54B12846BDE8F08100F0EDFC0746E4E7054DF2E7054DF3E7384600F0E8FCF0E7034DEEE78429000802018800B3
:401840000301880004018A000B4B1B68DB681A6882420CD9410900F01F00012202FA00F05B6853F82130034203D004487047044870470448704700BF842900080101880020
:4018800004018A0000018800034B1B6803B17047014B1860FBE700BF902900082DE9F84304460E4617461D46DDF82080324B1B68002B44D0304B1B682C2004FB00F01C18DE
:4018C0005FFA85F943F80090C5F3072363602D0CA5602A4B1B6893F83130994534D2274B1B681A6AB3F8B01001FB09222261656893F832309D422DD2204B1B681A6A05F10D
:40190000800302EB43156561D4F808904FEA19431B042BBB4FEA19431B043BBB1FFA89F343EA0943AB60E76126620023A361B8F1000F02D0B8F90030A381BDE8F883B521DC
:401940000F4800F07DFBB5E740F2C3110D4800F077FBC4E740F2DF110A4800F071FBCBE74FF4FF71074800F06BFBD3E740F2FF11044800F065FBD1E790290008DC290008AC
:40198000886F0010206E001030B58FB00446002849D0A369072B4BD8E36A002B4DD0236B002B4FD00DF11C0C04F1140EBEE80F00ACE80F00DEF80030CCF800300DF1080C64
:4019C000A646BEE80F00ACE80F00DEF80030CCF800301F4B1B68DB8E079A1344ADF83030089B0D930CAD00950B9BA26AE16A0A98FFF754FF00210091069B0A460598FFF7A7
:401A00004DFF216B284600F0BDFABDF93030002B07DB03F01F015B0901228A400D4941F823200FB030BD52210B4800F009FBB0E75621094800F004FBAEE75821064800F060
:401A4000FFFAACE75921044800F0FAFAAAE700BFDC29000800E100E0886F0010F8B507460E461C46154652B3204B1B6863B31F4B19682C2202FB071002FB06114A684FF0A5
:401A8000010C0CFA02F2120446680CFA06F603692BB38F692FBB1B68002B24DA2B882B601A432A600369DD60C1F818C04C620469330C1B046BB9B6B2A6603846F8BDFD21C6
:401AC0000B4800F0BDFACFE7FE21094800F0B8FACDE740F2BB21074800F0B2FAEBE7064FEBE7064FE9E7054FE7E700BF90290008886F0010206E001004028A0007028A00EF
:401B0000F8B506460F4615460F4B1B6873B10E4B1C682C2000FB0644236A6BB1E369AB4210D9236A43F825700020F8BD4FF4AF71064800F085FAEAE74FF4B171034800F0FF
:401B40007FFAEBE70248F0E790290008886F00100A028A0070B582B000230193044680B12369A3B16369C3B1236AE3B16369DD682A0C1ED1ADB2002D3DD163691B6802B000
:401B800070BD40F2D111244800F05AFAE8E74FF4E971214800F054FAE4E740F2D3111E4800F04EFAE0E74FF4EA711B4800F048FADCE712041A601B682069184B1B68D3F898
:401BC000B4301B58002BD5DA01A9FFF71BFD60B9019803681E0CDBB2E2699A4206D9226A52F8233013B1984700E0002631462069FFF7CEFCBEE763691D601B68636A2BB176
:401C00009847002363620023A361B6E7A36A002BF9D09847F7E700BF886F0010DC29000810B50446084B1B683BB1074B1B682C2000FB0430FFF78EFF10BD40F2B1110348D8
:401C400000F0FEF9F1E700BF90290008886F001010B504460A4B1B689B6CC34013F0010F08D0074B1B681B691034A402185900F00F0010BDBE21034800F0E2F9F1E700BF36
:401C8000DC290008E46F0010134B1B6893F83C3083421DD9042904D9A1F580739BB2132B18D8FF290CD901F01F010C4B00F1C00243F82210D030042243F820200020704706
:401CC00001F00701D030054B43F82010002070470348704702487047DC2900080000264001004A0010B504460E4B1B6893F83C30834209D904F1D0030B4A52F8230000F095
:401D00000700042806D010BD4FF4A171074800F097F9EFE7C03452F8240000F01F0040F48070F0E7DC290008000026403C700010B0F5C26F80F09F80B2F5C26F80F09D806E
:401D4000B1F1807F80F09B8010B54E4B01241C70FF2825D800F00F0E0F24A4460720FF2A3FD81201D2B24EEA020E40F4E0204CF0F00C44F47024444B1B681A6AB3F8B0303B
:401D8000C3EBC303D358002BF5DA3E4B5B78002B49D03E4BD3F81C35002B44DB3C485FE0B0F5A06F06D200F00F000F244FF0000CE646D4E7C0F30323B0F5C06F07D20001C1
:401DC000C0B21843FF244FF0000CE646C7E7000200F47060184340F60F744FF0000CE646BDE7B2F5A06F06D2120402F47022104344F47024BFE7130A1B0403F470231843C7
:401E0000B2F5C06F06D2130503F47003184344F47F04B0E7130603F07063184344F0706444F47024A7E7194B41F61F72C3F8082143F63D52C3F80421D3F8182522EA0C0C45
:401E40004CEA0E02C3F81825D3F8142522EA04042043C3F814050B4A5160C3F81C150020094B1B681A6AB3F8B030C3EBC303134400225A6010BD0648704705487047044814
:401E8000704700BF94290008DC2900080000264001004A0038B50446254B00221A70254B1B681A6AB3F8B030C3EBC30302EB030CD358002BF3DA204BD3F8082141F61F7319
:401EC0009A421AD000251C4BD3F8200520F07F400023CCF8043045B340B3CCB9144B5B68A3FB013144081C1902464FF00003204641F1000102F0D6FF18E00F4BD3F80421A7
:401F000043F63D539A4201D00025DCE70125DAE7A0FB0101064B5A685308C0184FF0000341F1000102F0BEFF00E0002038BD00BF94290008DC2900080000264038B5044632
:401F40000C4B9A680C4B9A4204D010340B4B53F8240038BD0D4631B11034074B53F8240043F82450F5E740F23711054800F068F8F2E700BF00ED00E00000000800000010AA
:401F8000F470001060B338B50D4604464368072B13D8B4F900306268002B13DB5201D2B203F1604303F5614383F800230D4B9A680D4B9A420DD0002038BD32210B4800F0CA
:401FC0003FF8E6E703F00F035201D2B20849CA54ECE72946B4F90000FFF7B0FF0020EBE70448704700ED00E000000008F470001014ED00E00100560010B5044605E0084B41
:40200000186800F0F1F8A4F50044B4F5004FF6D8044B186804FB00F000F0E6F810BD00BFA8020008A402000808B5034B1B7803FB00F000F0D9F808BDA002000801BEFEE7CC
:4020400038B50C46044D18220146284603F076F9AC610020FFF7F2FF480D0008024B1B685B6801229A607047DC290008FEE7000008B50268254BDA6142681A6282685A6217
:40208000C2689A620269DA6242691A6382695A63C2699A631E4A916AD963D16A1964516A5964516B9964926BDA64F1EE103A13F0900F27D0026A154B1A65426A5A65826A34
:4020C0009A65C26ADA65026B1A66426B5A66826B9A66C26BDA66026C1A67426C5A67826C9A67C26CDA67026DC3F88020426DC3F88420826DC3F88820C26DC3F88C20026ED6
:40210000C3F89020FFF7B2FF08BD00BF480D000800ED00E070B40446002830D01923304802681668B2F8A850725922F003028B422CBF002301231A43725102681668B2F878
:40214000A850725922F44072725102681568B2F8AAC055F80C2022F00302134345F80C3003681868B3F8AA20835823F4407383503CB110291DD9212926D801221AE06423D7
:40218000CDE7174B1B6893F855208A421ED293F856208A421CD293F857208A421AD293F858208A4218D293F859308B4216D3042200E000220A4B1B6859680B6823F00F0379
:4021C00013430B6070BC70470222F3E70022F1E70122EFE70222EDE70322EBE70522E9E7DC290008000000000230800803D001300238FCD100BF00BF7047EFF3108072B6C3
:40220000704780F3108870474FF0B0539B899BB2FBB14FF0B0539B899BB2B3F5807F18D030B4174AD2F8483823F44073154908680468D0F8980025582B4343F44073235049
:402240000B681968D3F89C30D2F84428CA5030BC70470C4A13681868D3F89810435823F00F0343F00203435013681968D3F89C208B5823F00F0343F002038B50704700BF7D
:4022800000100016DC2900084FF0B0539B899BB2FBB14FF0B0539B899BB2B3F5807F18D030B4174AD2F8203823F44073154908680468D0F8980025582B4343F44073235037
:4022C0000B681968D3F89C30D2F82028CA5030BC70470C4A13681868D3F89810435823F00F0343F00303435013681968D3F89C208B5823F00F0343F003038B50704700BF1F
:4023000000100016DC2900084FF0B0539B899BB2B3B14FF0B0539B899BB2B3F5807F0FD00D4BD3F8183823F440730C4A12681168D2F898208858034343F440738B50704770
:40234000064B1B681968D3F898208B5823F4E04343F4C0438B50704700100016DC2900084FF0B0539B899BB2FBB14FF0B0539B899BB2B3F5807F18D030B4124AD2F84C383A
:4023800023F44073104908680468D0F8980025582B4343F4407323500B681968D3F89C30D2F84C28CA5030BC7047074B1B681968D3F898208B5823F4E04343F480438B5025
:4023C000704700BF00100016DC29000808B54FF0B0539B899BB243B14FF0B0539B899BB2B3F5807F01D0012008BD0E20FFF730FC4FF0B0535B782BB14FF0B0535B78DBB2DC
:40240000222B02D818B90120EEE70120ECE70020EAE7000010B5044601280BD884B9114B5869C00F104B1B6893F844300BB1012C08D010BD40F262710C48FFF701FEEDE7F8
:402440000020EFE7074B9B6913F0804F07D1054B9B69002B01DB0020EBE70120E9E70120E7E700BF00002640DC2900085071001038B5164B1B6893F8443013B304460D4603
:40248000072809D8114B1B6893F8443053B1104B9B6903F0070306E040F2CC710D48FFF7CFFDEFE70023DBB29C420AD008498A6922F0070204F0070002438A610DB19C42FE
:4024C00000D838BDC820FFF7AFFDFAE7DC290008000026405071001028B30246C36823B3036823B310B490F804C0124B03EB8C035C682346002123B193420CD019465B691B
:40250000F9E7012020B144B14A611161002353615DF8044B70470020F4E7064B03EB8C0CCCF80420F1E700207047002070470020704700BFA0290008024648B390F804C04F
:40254000144B03EB8C0359680B461BB193420CD05B69FAE70020E0B18A4208D019695A694A61B2B11B69136170470120F3E74B693BB1084A02EB8C0CCCF8043000221A61ED
:402580007047044B03EB8C0C0023CCF80430704700207047A029000870B582B004460D46022803D9042801D0032817D16B1EDBB2012B03D9042D01D0082D15D1264800EB77
:4025C00084046468042D29D0012D29D0022D2DD026466469002CFBD100202EE040F6B2111E48FFF72DFDE1E740F6B3111B48FFF727FDE3E76469BCB1194B984212D0A368BE
:402600001D42F7D1E3681A6800925B6801932368294668469847104B9C61EBE70020EAE70020E8E7012DEAD102B070BD0A4B9E69002ED1D03669CFE73669002EF4D0B36838
:402640001D42F9D1F3681A6800925B6801933368294668469847EFE7A029000850710010FF00420070B50446012826D81E4B5B684BB301210020FFF78FFF064670BBFFF728
:40268000BCFD0546184B5B681BB104210020FFF783FF164A136923F004031361012C14D030BF2846FFF7ADFD0F4B5B681BB108210020FFF771FF304670BD4FF4E0710C48CC
:4026C000FFF7BEFCD2E70026D9E720BF064B1B7803B120BF044B01221A70E2E702210020FFF75AFF034EE6E7A029000800ED00E050710010FF00420008B5FFF77EFD074B90
:402700005A6807490A4042F468525A605A680A405A605B68FFF775FD08BD00BF00002640FF00FC0FF8B5074601281BD84FF0B0535B78EBB14FF0B0535B78DBB29CB24FF0B8
:40274000B0539B899BB2ABB14FF0B0539D89ADB20E20FFF77DFA0646F8B9B5F5807F0CD02E4E1BE040F64C212D48FFF769FCDDE72123E3E74FF48075EAE7222C3AD8294B0C
:402780001B685A6802F57042936923F08073390601F080710B43936100E0204EB5F5807F2AD0B5F5807F23D01E4B1B6893F83130012B24D91B4B1B681C6AB3F8B0301C44DE
:4027C000B5F5807F21D02FB3174A01212046FEF7FFFE024660B9134B1B68D3F8B4301B59002BF8DBE36803F07F43B3F1204F13D03046F8BD094ED1E7222CD5D8D1E740F20A
:40280000C3110A48FFF71CFCD4E70FB1084ADCE7084ADAE7084AD8E71646E9E70400420050710010DC2900080300000C206E001001010030010000300100000C70B50446D4
:40284000022801D0052805D1FFF7C0FD40B9204D284670BD40F202711E48FFF7F1FBF3E7FFF7CBFC0646022C23D01B4A536923F0070343F0030353613420FFF7D5FBFFF77A
:402880006FFD0025144A536923F0070304F007010B435361022C17D09120FFF7C5FBFFF7F3FC0020FFF73EFF05463046FFF7A9FCCEE70120FFF736FF054610B1002DF4D143
:4028C000E0E7FFF7A1FCF9E7FFF71EFDEDE700BF030042005071001000002640F8B50446012805D8FFF772FD40B92C4D2846F8BD4FF402612A48FFF7A3FBF3E7FFF77DFC92
:40290000074694B9274B0022C3F8302F4FF0B05393F84067F6B20120FFF704FF054608B175BB20E0FFF770FCFAE74FF0B05202F58053D3F810081C4B03F5E041C1F8300F3C
:4029400092F84167F6B203F57043D3F81C2F22F01F0242F00B02C3F81C2F0320FFF764FBFFF7FEFC0025114AD2F81C3F23F01F0306F01F061E43C2F81C6F2CB9FFF7C4FCA6
:402980003846FFF73EFCB1E70720FFF74DFBFFF77BFC0020FFF7C6FE0546F1E70300420050710010007026400000264000F0264004280FD000060B4B1B681A68D3F8A03053
:4029C00000F04070D0504FF0E022136923F00403136170474FF0E022136943F004031361704700BFDC290008014B1860704700BFDC29000810B4D0F8003213F0080305D03F
:402A000000230DE0CC5CC0F8404201339342F9D35DF8044B704731F81340C0F8404201339342F8D3F4E710B51446036813F4006F0DD08023D0F80822C2F308029B1AA342C4
:402A400000D81C462246FFF7D5FF204610BD4023F0E70000002800F0C48170B50C4616460546002900F0BF810B78022B20D8637B023BDBB2062B20D8A37B1BB1022B01D048
:402A8000032B1FD194F82130012B20D894F82830012B21D82378012B23D9A37F002B00F0BC806368013B062B00F2B98000231EE03F219748FFF7C4FAD9E740219448FFF748
:402AC000BFFAD9E741219248FFF7BAFADAE742218F48FFF7B5FAD9E743218D48FFF7B0FAD8E76368083B082B94BF00230123002B40F09780A368053B042B00F297806369E3
:402B0000FF2B00F29880A369FF2B00F29980A37C4BB123781BB9A368092B00F0968049217B48FFF78DFA636B23F4366323F00D03002B40F08F80E36B23F4EE6323F00303CD
:402B4000002B40F08C802378022B00F08D806268013A237F002B00F08D804FF48033A168082900F289804FF400610B4302F00F02134343F000732B60226B2B6813F4006F1D
:402B80007CD080239A427BD2A26B2B6813F4006F7BD080239A427AD2626A2B6813F4006F7AD080239A4279D223781B0603F040732B64637F002B76D04023A27C002A74D0B5
:402BC0004FF480621343227C002A70D04FF480721343627C002A6CD04FF400721343E26A013A120402F470221343627B013A02F007021343A27B120102F030021343AB64DB
:402C0000237B002B57D04FF48073E27B002A57D12278022A51D0002254E0002367E7012365E745213A48FFF70BFA63E746213848FFF706FA63E747213548FFF701FA62E72E
:402C400048213348FFF7FCF961E7A37B002B3FF46AAF64E74C212E48FFF7F2F96BE74D212B48FFF7EDF96EE7A37F002B7FF46FAF00226EE7002372E7002176E7402381E71B
:402C800062212348FFF7DCF97EE7402382E763211F48FFF7D5F97FE7402383E764211C48FFF7CEF980E7002387E700228AE700228EE7002292E70023A7E74FF4007201E09E
:402CC0004FF400721343A268013A02F00F021343C5F80033227DA3691B0403F47F031343C5F81033E26AD5F8003303F00F0303339A4201D3102A03D97A210548FFF7A0F9DE
:402D0000E37F3BB12378012B5BD0002203E000BF787300100022637B013B03F007031343A27B120102F0300213436B64237B002B4AD04FF48072A368013B03F00F031343D2
:402D40002278012A42D000221343C5F8003294F83030C5F8043394F82030002B39D04FF0007394F82120012A35D00022134394F82820012A32D00022134394F8242013435F
:402D80002B6594F83830C5F80432636B23F4926323F002031B051B0DC5F8C83FE36B23F08C035B055B0DC5F8883FF6B1002070603060B060F0603062F06230630C4B736337
:402DC00070BD4FF48072A6E70022B4E74FF48032BAE70023C5E74FF08072C7E74FF48032CAE7044870470348EAE70020E8E700BFEFCDAB000160AA0038B50D4640F400404A
:402E000000040D4BD8614FF47A740B4B1B6C13F0010F05D124B1013C0120FFF705F9F4E744B1054B1A6C42F001021A64DB6A2B80002038BD0148FCE700003C4004001600BF
:402E400010B50E4B03EA00430B430D4AD3614FF47A740B4B1B6C13F0010F05D124B1013C0120FFF7E1F8F4E734B1054A136C43F001031364002010BD0248FCE70000FF7F5E
:402E800000003C400400160070B582B005460A2407E0BCB1013CB3B9BDF80620B2F5C05F11D04FF4C05141F60260FFF7C9FF03460028EED10DF1060141F60260FFF79CFF23
:402EC0000346E6E74A4B002B43D0002B6DD0002B35D1BDF8063023F03F039BB2ADF80630AA78012A69D0EA78002A7DD196B2C2F10104A4B223F040039BB2ADF8063043F081
:402F00001003ADF806303B4BD3403B4A1360BDF80610314389B2ADF8061041F60960FFF78FFF0346EA78961B06F00306ADF80660A400A4B23443ADF80640304A54664FF084
:402F4000B052527812B14FF0B0525278184602B070BD0DF1060141F60360FFF74DFF03460028B2D1BDF8062012F4806FADD10A2408E0C4B1013C002BA7D1BDF80620B2F56A
:402F8000806FA2D04FF4806141F60360FFF758FF03460028EDD10DF1060141F60360FFF72BFF0346E5E7124B8FE70DF1060141F60960FFF721FF034689E7EA78012A0ED9E7
:402FC0000024022643F04003ADF8063043F03003ADF806300A4BD340074A136097E796B2C2F10204A4B2EDE70024012682E700BF040016000024F4008C02000800F03D4076
:403000000048E80138B50C4641F2010141EA400141F60860FFF714FF054620B16001FFF703F8284638BD46F6370141F60F60FFF707FF0546F2E70000024A136F43F01003B8
:403040001367704700F03D4010B59CB01E4C0DF14C0CA646BEE80F00ACE80F00BEE80F00ACE80F00DEF80030CCF800300DF1280C04F1240EBEE80F00ACE80F00BEE80F00E5
:40308000ACE80F00DEF80030CCF800300DF1040E04F1480CBCE80F00AEE80F00BCE80F00AEE80F00DCF80030CEF8003013A90748FEF7F2F90AA90648FEF7EEF901A90548B1
:4030C000FEF7EAF91CB010BDD47300100001324080013240000232402DE9F041002800F0EE800646794B5B6813F4003F01D1784C06E0FFF701FBFAE7013C0120FEF794FF13
:40310000744BDB6E0BB1002CF6D1724BD3F8A03013F0010F06D06F4BD3F8B43013F0010F40F0CF806B4BDB6E1BB16B4D2846BDE8F081FFF789FF694901F5F833684AC3F8D7
:40314000A420327842F42022C3F8A8204FF00112C3F8AC20D1F8005115F0010540F0B3801B6F13F0080F3DD00B6801225D4941EA42321343594A1360544B5B6913F0804F58
:4031800043D1544AD2F8C43043F00303C2F8C430504CD4F8A07047F4403343F03003C4F8A0304020FEF740FFD4F8B03013F0010F41D027F4803727F0100747F4003848F091
:4031C0002008444BC3F8A0804FF4FA64464B1B6913F0100F3CD1002C3AD0013C0120FEF723FFF3E7414B1B68414A934203D83B4B1B68404ABDE7404AA2FB0332120D374B55
:403200001B68013AB2D13B4AB3E701210320FFF72FF92E4B5B6903F08043384A126892F84420002AB4D0002BB2D0284A936943F080439361ACE70123C4F8B0304020FEF793
:40324000F3FE0323C4F8B0304020FEF7EDFEB0E754B92B4D75B3002D7FF468AF31787078FFF7D0FE054661E71A4A936E43F0080393660120FFF7CEF818B947F4003848F083
:40328000280828F4802343F00103124AC2F8A0300F4C03E0013C0120FEF7C6FE0D4BD3F8B43013F0010F01D1002CF3D1002CD1D1134DD0E73046FFF7E7FD0546CBE7114D41
:4032C00034E7054D32E7104D30E700BF00002640F07E0E0000F03D400300160000003C4006000001041A0080004032409402000800093D00040A008083DE1B43DC2900089C
:40330000040016000100160002001600014B1868704700BF8C02000810B50024042C06D82046FEF7DFFC032803D00134F6E7002010BD0120FCE70000064BD3F8000500F02D
:403340000300012802D0032801D0002070470120704700BF0000264038B5012903D0082937D0234838BD234B1B78012B37D00320FEF76AFA204B984233D0FFF7CDFF01281A
:4033800031D0022005F0F9F80546FEF736FF1B4B186026F055FC0446062826D0022D0BD0012013F0A7F9022C00D078B1134B1868FEF727FF0E48D5E7022013F09BF9032CF4
:4033C00001D0052CF2D10028CCD0EFE7FFF74AF9ECE70A4B1868FEF714FF0020C2E70448C0E70348BEE70248BCE70020BAE700BFFF0042000D2A000801018800E029000851
:4034000008B50248FFF798F808BD00BFC404000890B110B5094A5060C36A03B193600024074B1C70074B1C70074B1C60074B1C7000F08CFB204610BD05487047E029000883
:40344000182A00082C2A0008282A00083C2A00080100160010B59AB00DF1540C384C0FCCACE80F002368CCF800304C22002102A801F0B8FE334B029315AB049341F6500303
:40348000ADF8143005238DF816301B23ADF82030ADF8223003238DF8243004238DF8253006238DF8263008238DF829304023ADF84C3001238DF850302348FFF70DF808A836
:4034C00005F0C0F810BB214B0393214B5B68996BA9B10B460DF12A022031D3F800E0D3F804C09C68D868C2F800E0C2F804C09460D060103310328B42EFD11B88138002A84D
:4035000005F048F820B1134B00221A601AB010BD114B01221A700023104A1370104A13700B4B5B681A6A00929B6ADB88ADF804302223ADF8063068460DF010F8E3E700BF42
:403540004074001079400010C4040008DC0D0008E0290008282A00080D2A0008002A0008012A0008014B9867704700BF00F03D4008B51AF0BBF8034B1B680BB100B1984729
:4035800008BD00BFEC29000858B108B5B1F5FD7F01D3054808BD0A46044901F015FE0020F8E70148704700BF01001600070800162DE9F04FADF5097D80460E461746029378
:4035C000B1F1805F03D38A18A24B9A4210D9B6F1A05F03D3F219A04B9A4209D99F4B9E4240F22881F21903F201239A4200F225819B4B5B6913F0804301932AD0984B5B690E
:4036000003F007030393022B19D00123049300230193944B019A9A4238D006F17046730A009326F4FF7424F0010400210320FEF791F882460028F8D1054600215EE0052064
:40364000FFF7FCF80190884B9842F8D001230493DFE7864BD3F81C2F02F01F024FF0B05393F84037DBB29A4214BF01230023049302D005230393CCE70120FFF72FF901906E
:40368000794B9842F8D005230393C2E740F2D5117748FEF7D5FCC0E704F1805212780DF1200C0CF8032001340133B3F5007F15D2B442F1D3BD42EFD218F805200DF1200C07
:4036C0000CF8032040B904F180521278D2B218F805C0624500D001200135E4E7814650B1029BC3B1009B03F5002008A94002FDF72FFC82464946009B01330093019B002B49
:403700005CD1BAF1000F59D1BD4257D253464FF000094846C9E74FF0C80B059506945D46DDF800B00BF5002464022046FDF762FC8246013D0120FEF777FC0AF4A403B3F5A5
:40374000A40F01D1002DEDD10794059D069C494B9A4507D0BAF1000F0BD0464B9A4525D04946C8E7FDF742FC8246434B9842F9D0F0E74FF0C80B0595079D5B46A3461C463A
:4037800008A92846FDF784FC8246013C0120FEF74BFC0AF4A403B3F5A40F04D1002CEFD1059D5C46D9E7059D5C46D6E7FDF71EFC8246314B9842F9D049469CE779BB0021F2
:4037C0000320FEF703F80028F9D1019BABB9244B5B6913F0804F02D0039B022B22D0204B1B6813F4000F08D1049B33B90020FFF775F801901C4B9842F8D0019B03BB1F4BE7
:403800009A4520D004339A4520D0BAF1000F01D0DFF86CA050460DF5097DBDE8F08FFEF71DFCCCE70220FFF709F801900E4B9842F8D0D4E7DFF84CA0E1E7DFF848A0DEE7D3
:40384000DFF844A0E6E7DFF844A0E3E7DFF83CA0E0E700BF0000101000800014FF07001600002640030042000400420000F02640547400100100500002005000020052001C
:403880001300160006005200120016000100160058B1B1F5FD7F01D30548704708B501230A460449FFF784FE08BD0148704700BF010016000708001670B5C0B006460C465C
:4038C00015464FF480720849684601F07DFC05E016F8012B6A401DF80250013C002CF7D1284640B070BD00BFAC740010002070470388AE2202FB03F3A3F26F33024AA2FBAF
:403900000323DB080B807047CDCCCCCCB0F9003042F64B0202FB03F3044A82FB0302DB17A3EB2233BD330B80704700BFAD8BDB680020704708B512F017FD08BD08B5FEF788
:4039400073FB08BD074B1B685B6BB3F90030002B07DB03F01F015B0901228A40024941F823207047E429000800E100E00A4B1B685B6BB3F90030002B0CDB03F01F015B09D5
:4039800001228A402033054941F82320BFF34F8FBFF36F8F704700BFE429000800E100E0024BD3F8000500F00300704700002640024BD3F81C05C00F704700BF0000264060
:4039C00008B5FEF767FA08BD70B504460D4616460320FDF739FF054B984205D0324629462046FEF7A5F970BD0148FCE70101880003004A00431A002BB8BF5B4293422CD303
:403A0000184BD3F83C35C3F3090C884216D9411A01EB5201B1FBF2F3BCEB03031BD41149D1F83C2522F47F7222F00302C3F309000243C1F83C25ACEB03007047091A01EB7C
:403A40005203B3FBF2F3634440F2FE329342E6D940F2FF33E3E70023E1E74FF0000C6346E9E700BF0000264008B5034B1A684FF40041FFF7BFFF08BDDC04000810B5FFF792
:403A8000E3FA0220FFF76EFD0A4C23680A49586BFEF778FA23685B6BB3F90030002B07DB03F01F015B0901228A40044941F8232010BD00BFE42900087135001000E100E0C9
:403AC0000420704708B5FEF798FB08BD08B5FEF798FB08BD08B5FEF7C5FD08BD08B50021FEF7C6FC08BD7047704700207047000000487047110016000048704711001600B3
:403B00000048704711001600004870471100160000487047110016000048704711001600004870471100160000487047110016000048704711001600004870471100160055
:403B400000487047110016007047000008B5034800F098FD024800F0A7FD08BDC0040008B8040008022800F28580002940F0848070B50A460023002B3ED0012A47D0404B8C
:403B80005B7A002B7AD13E4B997200284ED13D4D2B685C68C1EBC10204EB420C1C6801EB810104EB8104BCF804C0A4F810C05C681B6803EB81035B6834F812401C802C68DE
:403BC000636803EB4203226802EB81014A685B8853802D4B18702B4B1B681868284B9B7A03EB830300EB830008F074FB002846D1234B01225A7242E0214C04EB030C9CF85F
:403C00000840012C01D90132D2B20133B3E71D4B1B681B6801EB810203EB82035B681B79023BDBB2012BAAD9184828E00128D0D1144E33685C68C1EBC10204EB42051C6874
:403C400001EB810104EB8104AD8925825C6804EB42041B6803EB81035B6824891C803468636803EB4203226802EB81014A685B895380AEE70648704705487047054870BD77
:403C8000F8290008E42900083C2A00080200160001001600FF00160010B541B9164B1B681B68996891F81FE000231C4607E0124B1B681B68D96891F81FE0F5E70124734514
:403CC0000AD24CB9CA5C3AB1013311F803C0BCF11B0FF3D01344F2E76CB101338279CA54002206E0D418013410F802C001F804C00132052AF6D910BDE429000838B50446A4
:403D00000CF046FC054660B90E4B19680A6A238903EB83039B00143B13445A6812F0007F01D1284638BDE07B1B695B68CA699B1A00EB80001844A2882168034B184401F01B
:403D400043FAEEE7E4290008102A000830B587B00289194B1B685B699B889A4203D00025284607B030BD044601AB07C883E807000022ADF81020A289ADF8122040228DF868
:403D800014201846FFF7BAFF054648B923681B7813F0020F0AD0094B1B68214608489847084A137803F0FE031370D9E7034B1B68214605489847F3E7E4290008E82900087D
:403DC00005000100182A00080600010043885A1E92B2232A1BD84078D8B90F4A11680A6A03EB83039B00143B13445A6812F0007F11D010B41B695C68CA69A21A00EB8003D4
:403E00001344064AD35A23805DF8044B704701207047012070477047E4290008102A000800B3114B1B681A6A038903EB83039B00143B13445B6813F0007F01D001207047AD
:403E400000B587B001AB00220192029203920492059207C883E807001846FFF74FFF07B05DF804FB0E207047E4290008C1B110B586B00446B4B101AB002201920292039211
:403E80000492059207C983E807002288ADF8122040228DF814201846FFF730FF06B010BD0E2070470E20F9E7002849D070B582B086460388ADF804309DF805302BB100256B
:403EC000224805B1002002B070BD2148C35C012B38D9242938D89EF801301BB94FF0000C654603E01B48EEE70CF1010C1A4B1C68266A01EB810080001438304403895B1AA4
:403F000063451BD3C5B901EB0C0303EB83039B00143B3344586810F0007FE5D09EF801001B695B68E4691B1B00EB80000B4C2044C35C13800125D7E70648C2E70548C0E7A1
:403F4000044870470148BEE70248BCE707001600002A000801001600E4290008102A000800B583B00DF10602FFF79EFF30B9BDF8060000F0010003B05DF804FB0020FAE788
:403F800000B583B000230093ADF804308389ADF800300389ADF8023012238DF80430094B1B7813F0010F05D139B18DF8051068460BF00AFC03B05DF804FBC0680BF032FCFD
:403FC000F8E700BF182A0008E8B110B404460023194600E00133104A127B9A4208D939B90D4A02EB83025268A242F3D10121F1E759B9012A0DD8084B03EB82014C6001321C
:404000001A73002002E00548704700205DF8044B70470348FAE700BF182A0008010016000300160070B506460D460020044607E0084B03EB84035B68294630469847013474
:40404000044B1B7BA34204D9024B1B7813F0010FEED170BD182A00080246807908B1002070470023052B03D8D15C11B90133F9E7704701207047000070B588B004460D46DD
:40408000B34A137843F00103137044F21003984200F28A8044F20403984210D241F20303984220D8B0F5805F2ED3A0F58053032B2AD8DFE813F0BF001E0121016D01A0F5B1
:4040C0008043043B0C2B1FD8DFE813F077011E00FC01B401F8011E00B1011E001E001E001E001E00B40143F2120398424ED01CD943F21903984207D1084604F0E7FB944A2E
:40410000137803F0FE031370914B1B7813F0110F09D08F4A137803F0FE0313708D4B1B6829462046984708B070BD42F20403984228D1874B1B6913F0010FE5D10023ADF84E
:4041400008308DF80A30844E33689B6A93F900308DF8083002A809F0D7F833689B6A93F901308DF8083001238DF80930FF238DF80A3002A809F0C8F8754A136943F0010339
:404180001361C1E743F201039842BDD10023734A1370734A1370734A137043F212039C42B2D1FFF72DF9AFE745F21703984239D8B0F5A04FA8D9A4F5A043013B162BA3D83D
:4041C00001A252F823F000BF3F4500106F450010934500100941001009410010094100100941001009410010094100100941001009410010A745001009410010154600102F
:404200001F4600105D4600100941001009410010094100106746001009410010094100107146001046F2010398427FF46DAFFFF7F9FE69E74C4B1E683046FFF70DFF002871
:404240004AD1454B19688B6A1B791BB34FF0B05090F8043603F03F0390F80526920102F47C62134390F80326120302F4F832134390F80026520402F47E021A43096B0B7013
:4042800035490868006BC3F3072343700B68196B130C8B70304E3368186B08F0DBFF33680021186BFFF7F8FC33680121186BFFF7F3FC294B1B68986A023009F0F3FA2B4ABF
:4042C00002AB92E8030083E80300184609F002F8224B02221A7017E7304608F0BBFF224E00213068FFF7D8FC01213068FFF7D4FCDFE7FFF797FE07E749781C4B1B89ADF871
:404300000430002383B19DF80530FF2B3AD0BDF80430ADF81430ADF810309DF811102A780B4B0B441A75EFE6114A32F81320ADF808209DF8092042B90E48825C012A04D962
:404340000B4A12F81320914216D00133DAE700BF182A0008E8290008E42900080D2A0008012A0008082A0008E004000800760010042A0008002A0008AB4A32F81330ADF839
:404380000430C0E740F2CA31A848FDF759FEBEE70B78002B7FF4B8AE0B7A43B9A44B0222DA8324229A83A34A43F8182F4B60A04A137803F0FE031370A6E6CB78002B7FF4C7
:4043C000A3AE49799C4B1B89ADF8043000237BB19DF80530FF2B24D0BDF80430ADF81830ADF808309DF80930944A0121D1548BE68D4A32F81320ADF808209DF8092042B93E
:404400008F48825C012A04D9874A12F81320914201D00133DBE7844A32F81330ADF80430D6E740F2CA318148FDF70AFED4E7FFF7F9FD69E60B78D3B98B78012B1BD0697854
:404440007D4B1B89ADF804300023C3B19DF80530FF2B2DD0BDF80430ADF81C30ADF808309DF80930FF2B02D0A978764AD154764B02221A7048E6754B00221A70DFE76A4A65
:4044800032F81320ADF808209DF8092042B96C48825C012A04D9644A12F81320914201D00133D2E7604A32F81330ADF80430CDE740F2CA315D48FDF7C3FDCBE7624B022256
:4044C0001A7021E6FFF7AEFD594B1B7813F0010F3FF41AAE5D4B1B78012B28D0032B2AD0022B7FF411AE594B00221A70584B1B685B68584A1178C1EBC10203EB42039A7946
:40450000002A3FF401AE9B88002B3FF4FDAD484B93F82430002B7FF4F7AD0120FFF722FB00287FF4F1AD494B01221A70ECE5474B02221A70E8E5454B00221A70E4E52B884C
:40454000ADF808309DF8093013B93D4A0221D1546A782988344B23F812106A78344B134400221A7529462046FFF75CFDCCE52B88ADF808309DF8093013B9314A0021D1547D
:404580006B782E4A0021D15429462046FFF74AFDBAE52B88ADF808301723ADF80A3002A80BF01EF9B0E52846FFF7D0FB0146E0B12846FFF7E5FC1E4B1B7813F0110F04D070
:4045C000254B1B682946204698472A89184B1B7813F0010F03D0531E9BB2232B0BD8144A137803F0FE0313708EE529462046FFF719FD0146DCE712238DF80C30ADF80A2013
:40460000AB89ADF8083001238DF80D3002A80BF0DBF8E4E729462046FFF704FD74E529462046FFF7FFFC6FE5042A0008AC750010182A00082C26000800760010082A000836
:40464000002A00080C2A00080D2A0008012A0008E4290008022A0008E829000829462046FFF7E0FC50E529462046FFF7DBFC4BE52846FFF7ABFB29462046FFF7D3FC43E57C
:404680000020704730B108B5034A10600348FFF79BFC08BD02487047402A000881460010010016000020704730B108B5034A10600348FFF789FC08BD02487047442A000896
:4046C000A54600100100160081F0004102E000BF83F0004330B54FEA41044FEA430594EA050F08BF90EA020F1FBF54EA000C55EA020C7FEA645C7FEA655C00F0E2804FEA84
:404700005454D4EB5555B8BF6D420CDD2C4480EA020281EA030382EA000083EA010180EA020281EA0303362D88BF30BD11F0004F4FEA01314FF4801C4CEA113102D0404253
:4047400061EB410113F0004F4FEA03334CEA133302D0524263EB430394EA050F00F0A780A4F10104D5F1200E0DDB02FA0EFC22FA05F2801841F1000103FA0EF2801843FA9F
:4047800005F359410EE0A5F120050EF1200E012A03FA0EFC28BF4CF0020C43FA05F3C01851EBE37101F0004507D54FF0000EDCF1000C7EEB00006EEB0101B1F5801F1BD362
:4047C000B1F5001F0CD349085FEA30004FEA3C0C04F101044FEA445212F5800F80F09A80BCF1004F08BF5FEA500C50F1000041EB045141EA050130BD5FEA4C0C404141EB4B
:404800000101013C28BFB1F5801FE9D291F0000F04BF01460020B1FA81F308BF2033A3F10B03B3F120020CDA0C3208DD02F1140CC2F10C0201FA0CF021FA02F10CE002F136
:404840001402D8BFC2F1200C01FA02F120FA0CFCDCBF41EA0C019040E41AA2BF01EB0451294330BD6FEA04041F3C1CDA0C340EDC04F11404C4F1200220FA04F001FA02F342
:4048800040EA030021FA04F345EA030130BDC4F10C04C4F1200220FA02F001FA04F340EA0300294630BD21FA04F0294630BD94F0000F83F4801306BF81F480110134013D30
:4048C0004EE77FEA645C18BF7FEA655C29D094EA050F08BF90EA020F05D054EA000C04BF1946104630BD91EA030F1EBF0021002030BD5FEA545C05D14000494128BF41F0AF
:40490000004130BD14F580043CBF01F5801130BD01F0004545F0FE4141F470014FF0000030BD7FEA645C1ABF194610467FEA655C1CBF0B46024650EA013406BF52EA0335D4
:4049400091EA030F41F4002130BD00BF90F0000F04BF0021704730B54FF4806404F132044FF000054FF0000150E700BF90F0000F04BF0021704730B54FF4806404F132046C
:4049800010F0004548BF40424FF000013EE700BF42004FEAE2014FEA31014FEA02701FBF12F07F4393F07F4F81F06051704732F07F4208BF704793F07F4F04BF41F40021FA
:4049C000704730B54FF4607401F0004521F000411CE700BF50EA010208BF704730B54FF000050AE050EA010208BF704730B511F0004502D5404261EB41014FF4806404F103
:404A000032045FEA915C3FF4D8AE4FF003025FEADC0C18BF03325FEADC0C18BF033202EBDC02C2F1200300FA03FC20FA02F001FA03FE40EA0E0021FA02F11444BDE600BFF1
:404A400070B54FF0FF0C4CF4E06C1CEA11541DBF1CEA135594EA0C0F95EA0C0F00F0DEF82C4481EA030621EA4C5123EA4C5350EA013518BF52EA033541F4801143F480130A
:404A800038D0A0FB02CE4FF00005E1FB02E506F00042E0FB03E54FF00006E1FB03569CF0000F18BF4EF0010EA4F1FF04B6F5007F64F5407404D25FEA4E0E6D4146EB060613
:404AC00042EAC62141EA55514FEAC52040EA5E504FEACE2EB4F1FD0C88BFBCF5E06F1ED8BEF1004F08BF5FEA500E50F1000041EB045170BD06F0004646EA010140EA0200C7
:404B000081EA0301B4EB5C04C2BFD4EB0C0541EA045170BD41F480114FF0000E013C00F3AB8014F1360FDEBF002001F0004170BDC4F10004203C35DA0C341BDC04F11404CD
:404B4000C4F1200500FA05F320FA04F001FA05F240EA020001F0004221F0004110EBD37021FA04F642EB06015EEA430E08BF20EAD37070BDC4F10C04C4F1200500FA04F3C7
:404B800020FA05F001FA04F240EA020001F0004110EBD37041F100015EEA430E08BF20EAD37070BDC4F1200500FA05F24EEA020E20FA04F301FA05F243EA020321FA04F0F5
:404BC00001F0004121FA04F220EA020000EBD3705EEA430E08BF20EAD37070BD94F0000F0FD101F00046400041EB010111F4801F08BF013CF7D041EA060195F0000F18BF3A
:404C0000704703F00046520043EB030313F4801F08BF013DF7D043EA0603704794EA0C0F0CEA135518BF95EA0C0F0CD050EA410618BF52EA4306D1D181EA030101F000413B
:404C40004FF0000070BD50EA410606BF1046194652EA430619D094EA0C0F02D150EA013613D195EA0C0F05D152EA03361CBF104619460AD181EA030101F0004141F0FE413D
:404C800041F470014FF0000070BD41F0FE4141F4780170BD70B54FF0FF0C4CF4E06C1CEA11541DBF1CEA135594EA0C0F95EA0C0F00F0A7F8A4EB050481EA030E52EA03359D
:404CC0004FEA013100F088804FEA03334FF0805545EA131343EA12634FEA022245EA111545EA10654FEA00260EF000419D4208BF964244F1FD0404F5407402D25B084FEA12
:404D00003202B61A65EB03055B084FEA32024FF480104FF4002CB6EB020E75EB030E22BFB61A754640EA0C005B084FEA3202B6EB020E75EB030E22BFB61A754640EA5C005D
:404D40005B084FEA3202B6EB020E75EB030E22BFB61A754640EA9C005B084FEA3202B6EB020E75EB030E22BFB61A754640EADC0055EA060E18D04FEA051545EA16754FEA2A
:404D800006164FEAC30343EA52734FEAC2025FEA1C1CC0D111F4801F0BD141EA00014FF000004FF0004CB6E711F4801F04BF01430020B4F1FD0C88BFBCF5E06F3FF6AFAE72
:404DC000B5EB030C04BFB6EB020C5FEA500C50F1000041EB045170BD0EF0004E4EEA113114EB5C04C2BFD4EB0C0541EA045170BD41F480114FF0000E013C90E645EA060ED2
:404E00008DE60CEA135594EA0C0F08BF95EA0C0F3FF43BAF94EA0C0F0AD150EA01347FF434AF95EA0C0F7FF425AF104619462CE795EA0C0F06D152EA03353FF4FDAE10468F
:404E4000194622E750EA410618BF52EA43067FF4C5AE50EA41047FF40DAF52EA43057FF4EBAE12E74A0011D212F5001211D20DD56FF47873B3EB62520ED44FEAC12343F0F3
:404E8000004343EA505323FA02F070474FF00000704750EA013002D14FF0FF3070474FF00000704753B94AB9002908BF00281CBF4FF0FF314FF0FF3000F074B9ADF1080C1C
:404EC0006DE904CE00F006F8DDF804E0DDE9022304B070472DE9F047089D04468E46002B4DD18A42944669D9B2FA82F252B101FA02F3C2F1200120FA01F10CFA02FC41EA2A
:404F0000030E94404FEA1C48210CBEFBF8F61FFA8CF708FB16E341EA034306FB07F199420AD91CEB030306F1FF3080F01F81994240F21C81023E63445B1AA4B2B3FBF8F026
:404F400008FB103344EA034400FB07F7A7420AD91CEB040400F1FF3380F00A81A74240F207816444023840EA0640E41B00261DB1D4400023C5E900433146BDE8F0878B4214
:404F800009D9002D00F0EF800026C5E9000130463146BDE8F087B3FA83F6002E4AD18B4202D3824200F2F980841A61EB030301209E46002DE0D0C5E9004EDDE702B9FFDE3B
:404FC000B2FA82F2002A40F09280A1EB0C014FEA1C471FFA8CFE0126200CB1FBF7F307FB131140EA01410EFB03F0884208D91CEB010103F1FF3802D2884200F2CB80434693
:40500000091AA4B2B1FBF7F007FB101144EA01440EFB00FEA64508D91CEB040400F1FF3102D2A64500F2BB800846A4EB0E0440EA03409CE7C6F12007B34022FA07FC4CEADA
:40504000030C20FA07F401FA06F31C43F9404FEA1C4900FA06F3B1FBF9F8200C1FFA8CFE09FB181140EA014108FB0EF0884202FA06F20BD91CEB010108F1FF3A80F0888094
:40508000884240F28580A8F102086144091AA4B2B1FBF9F009FB101144EA014100FB0EFE8E4508D91CEB010100F1FF346CD28E456AD90238614440EA0840A0FB0294A1EBBA
:4050C0000E01A142C846A64656D353D05DB1B3EB080261EB0E0101FA07F722FA06F3F1401F43C5E9007100263146BDE8F087C2F12003D8400CFA02FC21FA03F391400143D6
:405100004FEA1C471FFA8CFEB3FBF7F007FB10360B0C43EA064300FB0EF69E4204FA02F408D91CEB030300F1FF382FD29E422DD9023863449B1B89B2B3FBF7F607FB16333E
:4051400041EA034106FB0EF38B4208D91CEB010106F1FF3816D28B4214D9023E6144C91A46EA004638E72E46284605E70646E3E61846F8E64B45A9D2B9EB020864EB0C0E99
:405180000138A3E74646EAE7204694E74046D1E7D0467BE7023B614432E7304609E76444023842E7704700BF10B501390244904201D1002005E0037811F8014FA34201D0DE
:4051C000181B10BD0130F2E70A44914200F1FF3300D1704710B511F8014B03F8014F9142F9D110BD02440346934200D1704703F8011BF9E70FB40A4B13B51C6824B1A369E2
:4052000013B9204600F088FA05AB049AA1680193204600F091FC02B0BDE8104004B0704790070008094B13B51C68014634B1A36923B90190204600F06FFA0199A26820463D
:4052400002B0BDE8104000F03BBF00BF9007000870B50E46054618B183690BB900F05CFAAB69AC6813B9284600F056FA2C4B9C4220D16C68636EDB0705D4A389980502D4D5
:40528000A06D00F0E7FAA38919071DD52369DBB1013EA36816F8011F013BA36039BB002B38DA22460A21284600F05CF8013011D00A2511E01B4B9C4201D1AC68DAE71A4B0B
:4052C0009C4208BFEC68D5E72146284600F09CF80028DDD04FF0FF35636EDA0705D4A3899B0502D4A06D00F0B6FA284670BD002B04DAA2699A4206DC0A2904D023685A1C09
:4053000022601970C5E72246284600F02BF80130BFD1DFE723680A255A1C22601D70DBE71482001034820010F4810010024B01461868FFF78DBF00BF9007000810B50139A1
:40534000034632B111F8014F03F8014B013A002CF7D11A440021934200D110BD03F8011BF9E70000F8B50E461446054618B183690BB900F0D1F9214B9C422BD16C68A3694A
:40538000A360A3891A072FD523696BB323692068C01A6369F6B28342374604DC2146284600F026F930BBA368013BA36023685A1C22601E7063690130834204D0A389DB079D
:4053C00006D50A2E04D12146284600F011F988B93846F8BD0A4B9C4201D1AC68CFE7094B9C4208BFEC68CAE72146284600F00CF80028CBD04FF0FF37EAE700BF148200107E
:4054000034820010F4810010324B70B51D6806460C4625B1AB6913B9284600F07DF92E4B9C420FD16C68A389B4F90C2019072CD4DD0611D40923336042F04003A3814FF043
:40544000FF303EE0254B9C4201D1AC68EBE7244B9C4208BFEC68E6E7580712D5616B41B104F14403994202D0304600F05BFA00236363A38923F02403A38100236360236917
:405480002360A38943F00803A38123694BB9A38903F42073B3F5007F03D02146304600F001FAA089B4F90C2010F001030AD00023A36063695B42A361236943B910F0800058
:4054C000BAD170BD810758BF6369A360F4E70020F7E700BF900700081482001034820010F48100108A892DE9F041054610070C4658D44B68002B05DC0B6C002B02DC0020C5
:40550000BDE8F081E66A002EF9D0002312F480522F682B6032D0606DA3895A0705D56368C01A636B0BB1236CC01A00230246E66A216A2846B047431CA38906D129681D293F
:405540002CD82A4ACA40D60728D500226260D9042269226004D5421C01D12B6803B96065616B2F600029CAD004F14403994202D0284600F0D7F900206063C1E7216A012375
:405580002846B047411CC7D12B68002BC4D01D2B01D0162B01D12F60B1E7A38943F04003A381ADE70F69002FA9D093070E6808BF4B690F6018BF0023A6EB07088B60B8F14A
:4055C000000F9CDD216AA66A43463A462846B047002806DCA38943F04003A3814FF0FF308EE70744A8EB0008E9E700BF0100402038B50B6905460C4613B90025284638BD3F
:4056000018B183690BB900F087F8144B9C421BD16C68B4F90C30002BEFD0626ED00704D4990502D4A06D00F015F928462146FFF759FF636EDA070546E0D4A3899B05DDD463
:40564000A06D00F008F9D9E7054B9C4201D1AC68DFE7044B9C4208BFEC68DAE71482001034820010F4810010002310B50446C0E90033C0E90433836081814366C2818361F5
:40568000194608225C30FFF7ADFD054B6362054BA362054BE362054B2462236310BD00BF7161001093610010CB610010EF610010014900F0AFB800BFF155001070B5682267
:4056C0004D1E55430E4605F1740100F097F9044640B10021C0E900160C30A06005F16802FFF780FD204670BD014800F0B3B800BFED380008014800F0AEB800BFED38000890
:40570000014800F0A7B800BFEE380008014800F0A2B800BFEE38000810B50446FFF7F0FFA3691BB1BDE81040FFF7F0BFC4E912332365134B134A1B68A262A34204BF012376
:40574000A361204600F020F86060204600F01CF8A060204600F018F80022E06004216068FFF782FFA06801220921FFF77DFFE06802221221FFF778FF0123A361D2E700BFEE
:40578000F0810010B1560010F8B50746FFF7ACFF1E4B1E68B36913B93046FFF7BDFF4836D6E90134013B03D533680BB33668F7E7B4F90C50D5B9164BE36004F15800656609
:4057C00000F047F8FFF796FFC4E90155C4E904552560A5610822294604F15C00FFF702FDC4E90D55C4E912552046F8BD6834D9E704213846FFF762FF044630600028D5D140
:40580000FFF778FF0C233B60EEE700BFF08100100100FFFF2DE9F8430646884600F148040027D4E90195B9F1010905D52468002CF7D13846BDE8F883AB89012B07D9B5F961
:405840000E30013303D029463046C04707436835E9E770477047704770B50E46B1F90E10002996B014461D4608DAB6F90C3000222A601A0610D44FF480630EE06A4600F07D
:40588000DDFC0028F1DB019A02F47042A2F500535A425A412A60EEE740230020236016B070BD00008B8973B59D0706460C4607D504F14703236023610123636102B070BDF8
:4058C00001AB6A46FFF7C8FF00990546304600F095F848B9B4F90C309A05EFD423F0030343F00203A381E3E70D4BB362A389206043F08003A381009B6361019B20615BB1B2
:40590000B4F90E10304600F0ABFC28B1A38923F0030343F00103A381A0890543A581CDE7B156001037B5002944D051F8043C0190002BA1F10404B8BFE41800F009FD1E4ADB
:405940000198136833B96360146003B0BDE8304000F004BDA34208D9256861198B4201BF19685B6849192160EDE71A465B680BB1A342FAD911685518A5420BD124682144F1
:405980005418A3421160E0D11C685B68536021441160DAE702D90C230360D6E7256861198B4204BF19685B68636004BF491921605460CAE703B030BDF038000870B50E4EBF
:4059C0000C463168054611B900F0C2FB30602146284600F0BDFB431C0AD0C41C24F00304A04207D0211A284600F0B2FB013001D14FF0FF34204670BDF43800082DE9F04137
:405A0000CD1C25F0030508350C2D38BF0C25002D074601DBA94205D90C233B6000263046BDE8F0812E4E00F093FC33681C4634BB29463846FFF7C2FF431C04464DD1346839
:405A40002646002E40D123683146384604EB030800F07EFB80453AD1216803356D1A25F0030508350C2D38BF0C2529463846FFF7A5FF01302BD023682B4423600EE022681D
:405A8000521B1ED40B2A16D96119A342256018BF5960636808BF316062514B60384604F10B0600F05BFC26F00706231DF21AB6D09B1BA350B3E76268A3420CBF32605A60A5
:405AC000ECE723466468B2E734467668B9E70C233B60384600F042FCA1E72560DEE700BFF03800089368013B002B10B4936008DA9469A34201DB0A2903D15DF8044BFFF77C
:405B000031BC1368581C1060197008465DF8044B7047F8B506460F461446D518AC4201D1002007E014F8011B3A463046FFF7DAFF431CF3D1F8BD00002DE9F04F0D469DB0D1
:405B400014469846064618B183690BB9FFF7E4FD894B9D421BD175686B6ED90705D4AB899A0502D4A86DFFF775FEAB891B0701D52B69EBB929463046FFF746FCC0B16B6E51
:405B8000DC070ED54FF0FF301DB0BDE8F08F7B4B9D4201D1B568DFE7794B9D4208BFF568DAE7AB899805EDD4A86DFFF754FEE9E70023099320238DF82930CDF80C8030239B
:405BC000DFF8C0818DF82A304FF0010923469A4613F8012B0AB1252AF9D1BAEB040B0BD05B46224629463046FFF793FF013000F0AA80099A5A4409929AF80030002B00F008
:405C0000A28000234FF0FF32CDE905230AF1010A049307938DF853301A935446052214F8011B584800F044FB049AD8B9D10644BF20238DF85330130744BF2B238DF8533066
:405C40009AF800302A2B15D0079A544600204FF00A0C214611F8013B303B092B4ED9B0B1079214E0A0EB080309FA03F313430493A246D2E7039B191D1B680391002BBBBF6B
:405C80005B4242F0020207930793B8BF049223782E2B0CD163782A2B35D1039B1A1D1B680392002BB8BF4FF0FF3302340593DFF8E4A021780322504600F0FAFA40B1402314
:405CC000A0EB0A0003FA00F0049B03430134049314F8011B2C488DF82810062200F0E8FA00283FD0294B1BBB039B073323F0070308330393099B3B44099367E70CFB02328F
:405D00000C460120A5E700230134059319464FF00A0C204610F8012B303A092A03D9002BC5D00591C3E70CFB012104460123F0E703AB00932A46164B04A93046AFF30080E8
:405D40000746781CD6D16B6ED90705D4AB899A0502D4A86DFFF77FFDAB895B063FF512AF099811E703AB00932A46094B04A9304600F080F8E4E700BF148200103482001030
:405D8000F4810010548200105E82001000000000135B00105A8200102DE9F047164699468A680B69DDF820809342B8BF1346336091F8432007460C460AB1013333602368EB
:405DC000990642BF336802333360256815F0060506D104F1190AE36832689B1AAB4226DC94F84320131E226818BF012392062BD404F1430249463846C04701301ED0236857
:405E0000E568326803F00603042B08BFAD1AA36822690CBF25EAE57500259342C4BF9B1AED1800261A34B5421AD1002008E00123524649463846C047013003D14FF0FF3020
:405E4000BDE8F0870135C6E7E1185A1C302081F84300224494F8451082F843100233C7E70123224649463846C0470130E6D00136D9E700002DE9FF470F7E0C9D782F914623
:405E800080460C469A4601F1430207D8622F0AD8002F00F0D880582F00F0A38004F1420584F842703AE0A7F16303152BF6D801A151F823F00D5F0010215F00109D5E0010AB
:405EC0009D5E00109D5E00109D5E0010215F00109D5E00109D5E00109D5E00109D5E00102D600010515F00100F6000109D5E00109D5E00104F6000109D5E0010515F001049
:405F00009D5E00109D5E0010176000102B681A1D1B682A6004F1420584F842300123A3E020682968060601F104030AD50E682B60002E03DA2D23764284F843305E480A2349
:405F400019E00E682B6010F0400F18BF36B2EFE72B682068191D2960010601D51E6802E04606FBD51E8854486F2F0CBF08230A23002184F843106568A560002DA2BF21682C
:405F800021F0040121600EB9002D4DD01546B6FBF3F103FB1167C75D05F8017D3746BB420E46F4D9082B0BD12368DE0708D5236961689942DEBF302305F8013C05F1FF35B9
:405FC000521B2261CDF800A04B4603AA21464046FFF7E2FE01304CD14FF0FF3004B0BDE8F087354881F845702968236851F8046B29601D0614D5DF0744BF43F020032360E9
:406000001EB9236823F0200323601023B0E7236843F0200323607823284884F84530E3E7590648BFB6B2E6E71546BBE72B6826686169181D286035061B6801D5196002E022
:406040007006FBD51980002323611546BAE72B681A1D2A601D6862680021284600F028F908B1401B606063682361002384F84330A8E723692A4649464046D0470130ABD0C3
:4060800023689B0713D4E068039B9842B8BF1846A4E70123324649464046D04701309BD00135E36803995B1AAB42F2DCEBE7002504F11906F5E700BF658200107682001056
:4060C00070B50D461446064618B183690BB9FFF723FB1C4B9C4224D17468636ED80705D4A389990502D4A06DFFF7B4FBA368013B002BA36005DAA26993421CDBEBB20A2B07
:4061000019D023685A1C22601D70EDB2636EDA0705D4A3899B0502D4A06DFFF79CFB284670BD094B9C4201D1B468D6E7074B9C4208BFF468D1E7294622463046FFF712F92F
:406140000546E3E71482001034820010F481001038B5064D0023044608462B6000F03EF9431C02D12B6803B1236038BDF838000810B50C46B1F90E1000F0F6F80028ABBFF4
:40618000636DA3891B1823F48053ACBF6365A38110BD2DE9F0411F468B89DB0505460C46164605D5B1F90E100223002200F068F8A389B4F90E1023F48053A38132463B46D2
:4061C0002846BDE8F04100F017B810B50C46B1F90E1000F055F8431CA38915BF606523F4805343F48053A38118BFA38110BDB1F90E1000F013B8000038B5074D0446084620
:40620000114600222A601A46FAF752FD431C02D12B6803B1236038BDF838000838B5064D0023044608462B6000F0B0F8431C02D12B6803B1236038BDF838000838B5074D0A
:4062400000230446084611462B6000F0A7F8431C02D12B6803B1236038BD00BFF838000838B5064D0023044608462B6000F09EF8431C02D12B6803B1236038BDF8380008D5
:4062800038B5074D04460846114600222A601A4600F094F8431C02D12B6803B1236038BDF838000800000000000000000000000001F0FF01102A2BDB10F0070F08D010F8D6
:4062C000013B013A8B422DD010F0070F42B3F6D1F0B441EA012141EA014122F007047FF000070023F0E80256083C85EA010586EA010685FA47F5A3FA87F586FA47F6A5FAE7
:4063000087F68EB9EED1F0BC01F0FF0102F0070232B110F8013B013A83EA010313B1F8D10020704701387047002D06BF35460338073815F0010F07D1013015F4807F02BF4D
:40634000013015F4C03F0130F0BC0138704700BF0148FFF77FBA00BFEC3800080148FFF77ABA00BFEC38000838B5074D04460846114600222A601A4600F028F8431C02D119
:406380002B6803B1236038BDF8380008024B58221A604FF0FF307047F8380008024B58221A604FF0FF307047F8380008024B58221A600020704700BFF8380008024B5822D4
:4063C0001A604FF0FF307047F8380008024B58221A604FF0FF307047F8380008044A05491368002B08BF0B461844106018467047FC38000800390008F8B500BFF8BC08BC8C
:406400009E467047F8B500BFF8BC08BC9E4670475FF800F0850900080300000001000000010000000000000005036000040000000100000000000000010000000604600088
:4064400008000000EC27000851030010030000000000000000000000680000000000000000000000000000001212000000000000523A20424C4520537461636B206F6E0A6A
:406480002020205374617274204164766572746973656D656E740000523A2054696D656F75742100523A204861726477617265204572726F72000000523A20537461636B99
:4064C0002042757379205374617475733A2025780A000000523A20536574204C45204576656E74204D61736B20636F6D706C657465000000523A2053657420446576696381
:4065000065204164647265737320636F6D706C65746500002020204661696C656420746F20536574204C6F63616C20424441646472657373205B5374617475732030782540
:406540003032585D0A0000002020204C6F63616C204164647265737320536574207375636365737366756C6C790000002020204264416464726573732073657420746F3AC3
:4065800020253032583A253032583A253032583A253032583A253032583A253032580A00523A2047657420446576696365204164647265737320436F6D6D616E6420636F62
:4065C0006D706C65746500002020204164766572746973696E67207769746820416464726573733A2000000025322E3258200000523A2053657420547820506F77657220D8
:40660000436F6D6D616E6420636F6D706C65746500000000523A2047415050204164766572746973656D656E742053746172742F53746F700000000020203C526573746155
:406640007274204144563E00523A2047617020456E68616E63656420436F6E6E65637420436F6D706C65746500000000523A2044617461204C656E677468204368616E6715
:4066800065000000523A204741502044657669636520436F6E6E656374656400523A204741502044657669636520446973636F6E6E65637465643A2025640A00523A204707
:4066C000415020436F6E6E656374696F6E2055706461746520436F6D706C657465000000523A205570646174696E6720746865205068792E2E2E2E2E0000000020202053CA
:40670000455420504859207570646174656420746F2032204D627073000000002020205365742050485920436F756C64206E6F742075706461746520746F2032204D627045
:4067400073000000523A204765742050485920636F6D706C65746500523A205570646174652050485920436F6D706C6574650000523A204741545420436F6E6E65637465AC
:40678000643A2025782C2025780A0000523A204741545420446973636F6E6E656374656400000000523A2047415454204D54552045786368616E676520526571756573747E
:4067C0002C206E65676F746961746564203D2025640A0000523A20474154542057726974652052657175657374205B626448616E646C65203078253032582C2061747472CE
:4068000048616E646C65203078253032585D0A002020204661696C656420746F2073656E6420777269746520726573706F6E7365000000002020204741545420777269743C
:406840006520726573706F6E73652073656E74002020204E6F74696669636174696F6E7320656E61626C6564000000002020204E6F74696669636174696F6E73206E6F747A
:4068800020656E61626C656400000000523A20474154545320526561642043686172616374657269737469632056616C7565204163636573732052657175657374000000C1
:4068C000523A2047415454205772697465576974686F7574526573706F6E73653A20252E2A730A00523A204F74686572206576656E743A20256C780A0000000043795F4240
:406900004C455F537461727420415049204572726F723A20307825780A000000424C4520537461636B20496E697469616C697A65642E2E2E0000000043795F424C455F47EF
:406940006574537461636B4C69627261727956657273696F6E20415049204572726F723A20307825322E32780A000000537461636B2056657273696F6E3A2025642E256498
:406980002E25642E25640A00436F756C646E27742073656E64206E6F74696669636174696F6E2E205B43595F424C455F4552524F525F494E56414C49445F504152414D4593
:4069C0005445525D000000004174747268616E646C65203D203078253458202043795F424C455F47415454535F4E6F74696669636174696F6E20415049204572726F723ABE
:406A000020307825322E32780A000000424C45204E6F74696669636174696F6E2073656E74210000302E302E302E3030300000002E2E2F4F6E657468696E785F4372656124
:406A4000746F722E637964736E2F47656E6572617465645F536F757263652F50536F43362F70646C2F647269766572732F7065726970686572616C2F7363622F63795F73EE
:406A800063625F756172742E6800000031323334353600002B000000070000001800000007000000000003000000240001000028010000000700000000180000000000006A
:406AC000020003280100020003000000002A0000000000000300002A01000201030000000F00000004030008040003280100020005000000012A0000000000000500012A55
:406B00000100020105000000020000000C030008060003280100020007000000042A0000000000000700042A01000201070000000800000014030008080000280100000032
:406B40000B000000011800000000000009000328010020000B000000052A0000000000000A00052A000020010B000000040000001C0300080B00022901010A030B00000082
:406B800002000000240300080C000028010000001E0000000A180000000000000D000328010002000E000000292A0000000000000E00292A010002010E000000150000000B
:406BC0002C0300080F0003280100020010000000242A0000000000001000242A01000201100000000800000034030008110003280100020012000000252A0000000000006A
:406C00001200252A01000201120000000A0000003C030008130003280100020014000000272A0000000000001400272A0100020114000000220000004403000815000328B8
:406C40000100020016000000262A0000000000001600262A0100020116000000090000004C030008170003280100020018000000282A0000000000001800282A01000201AE
:406C8000180000000C0000005403000819000328010002001A000000232A0000000000001A00232A010002011A000000080000005C0300081B000328010002001C0000004A
:406CC0002A2A0000000000001C002A2A010002011C00000001000000640300081D000328010002001E000000502A0000000000001E00502A010002011E000000070000009C
:406D00006C0300081F00002801000008240000001000000074030008200003280100100022000000100000007C0300082100D9E70000100922000000010000008403000818
:406D40002200022901010A0322000000020000008C0300082300032801000400240000001000000094030008240031F40001040924000000140000009C03000897F38E8503
:406D80009F874C8B864F088C6D2F7ACB9DB307351CFDA6BF8048F5C1D9E70F3127C05FD5C0A3459BC444427531F4A67001000300050007000000000008000A000B0000007F
:406DC0000C000E00100012001400160018001A001C001E001F0021002200240000000000000000000D00000008000000000200000000000000000000000000000000000024
:406E00000000000000000000000000000B000000000000000000000000000000000000002E2E2F4F6E657468696E785F43726561746F722E637964736E2F47656E65726170
:406E40007465645F536F757263652F50536F43362F70646C2F647269766572732F7065726970686572616C2F6970632F63795F6970635F6472762E68000000002E2E2F4F27
:406E80006E657468696E785F43726561746F722E637964736E2F47656E6572617465645F536F757263652F50536F43362F70646C2F647269766572732F7065726970686555
:406EC00072616C2F6770696F2F63795F6770696F2E6300002E2E2F4F6E657468696E785F43726561746F722E637964736E2F47656E6572617465645F536F757263652F5068
:406F0000536F43362F70646C2F647269766572732F7065726970686572616C2F6770696F2F63795F6770696F2E6800002E2E2F4F6E657468696E785F43726561746F722E5C
:406F4000637964736E2F47656E6572617465645F536F757263652F50536F43362F70646C2F647269766572732F7065726970686572616C2F6970632F63795F6970635F64DC
:406F800072762E63000000002E2E2F4F6E657468696E785F43726561746F722E637964736E2F47656E6572617465645F536F757263652F50536F43362F70646C2F647269DD
:406FC000766572732F7065726970686572616C2F6970632F63795F6970635F706970652E630000002E2E2F4F6E657468696E785F43726561746F722E637964736E2F476596
:407000006E6572617465645F536F757263652F50536F43362F70646C2F647269766572732F7065726970686572616C2F70726F742F63795F70726F742E6300002E2E2F4F5D
:407040006E657468696E785F43726561746F722E637964736E2F47656E6572617465645F536F757263652F50536F43362F70646C2F647269766572732F7065726970686593
:4070800072616C2F737973636C6B2F63795F737973636C6B2E6300002E2E2F4F6E657468696E785F43726561746F722E637964736E2F47656E6572617465645F536F757219
:4070C00063652F50536F43362F70646C2F647269766572732F7065726970686572616C2F737973636C6B2F63795F737973636C6B2E6800002E2E2F4F6E657468696E785F7E
:4071000043726561746F722E637964736E2F47656E6572617465645F536F757263652F50536F43362F70646C2F647269766572732F7065726970686572616C2F73797369F9
:407140006E742F63795F737973696E742E6300002E2E2F4F6E657468696E785F43726561746F722E637964736E2F47656E6572617465645F536F757263652F50536F4336EA
:407180002F70646C2F647269766572732F7065726970686572616C2F737973706D2F63795F737973706D2E63000000000000204000002440000000400000000000002340CE
:4071C000000030400000314000009F40000022400000104002020202020202020210101D800017007500FF030602063604102000000000007FC00000000400000000000005
:407200000019324B647D00804000080B100000000000FF012002001F00800004FF081018001000140018001C4044484C500000000810000008000000040000000410000008
