:020000041000EA
:4000000000F00308CF0200100D00000035030010350300103503001035030010000000000000000000000000000000003103001031030010000000003103001031030010A7
:400040003103001031030010310300103103001031030010310300103103001031030010310300103103001031030010310300103103001031030010310300103103001040
:400080003103001031030010310300103103001031030010310300103103001031030010310300103103001031030010310300103103001031030010310300103103001000
:4000C00031030010310300103103001031030010310300103103001031030010310300103103001031030010310300103103001031030010310300103103001031030010C0
:40010000310300103103001031030010310300103103001031030010310300103103001031030010310300103103001031030010310300103103001031030010310300107F
:40014000310300103103001031030010310300103103001031030010310300103103001031030010310300103103001031030010310300103103001031030010310300103F
:4001800031030010310300103103001031030010310300103103001031030010310300103103001031030010310300103103001031030010310300103103001031030010FF
:4001C00031030010310300103103001031030010310300103103001031030010310300103103001031030010310300103103001031030010310300103103001031030010BF
:40020000310300103103001031030010310300103103001031030010310300103103001031030010310300103103001031030010310300103103001031030010310300107E
:40024000310300103103001031030010310300103103001031030010310300103103001031030010310300103103001031030010310300103103001031030010310300103E
:4002800031030010310300103103001010B5054C237833B9044B13B10448AFF300800123237010BDD826000800000000E862001008B5034B1BB103490348AFF3008008BD1B
:4002C00000000000DC260008E86200107047FFF7FDFF72B6104C114DAC4209DA21686268A368043BA2BFC858D050FAE70C34F3E70B490C4A00209142BCBF41F8040BFAE7C4
:4003000009480A490860BFF34F8F00F015F900F0EFF800F03BFBFEE7F888021010890210D82600080C3800080000000808ED00E0FEE7FEE700B504207146084202D0EFF37D
:40034000098001E0EFF30880043001F001FDFEE708B5012001F0D4FA08BD00005D4BD3F8802302F00F0202F1D00153F8213003F00703042B17D8DFE803F0031616050800B5
:40038000554B11E0554B1B680EE002F1C003514951F8233003F01F03112B1DD0132B1ED14FF4004300E04E4BB2BB4A4AD2F8900500F00100D2F88815C1F30171D2F88825F0
:4003C00012F0405F0ED0434AD2F88825C2F30172012A08D0002206E04FF40043E4E74FF4FA43E1E7012202B108B9032916D13949D1F88005C0F31100D1F88425C2F30C023B
:40040000D1F88015C1F300610131B3FBF2F300FB03F3B3FBF1F301E0012A2BD02D4AD2F88023C2F30112D3402C4A53602D49D1F89000C0F3072001300969090E0131B3FBCF
:40044000F1F19160B3FBF0F3D360136103F5742101F23F212448A0FB0101C1F38741117503F2E7332149A1FB03139B099361DB03D3617047174AD2F8400600F00100D2F8CE
:400480000016C1F30171D2F8002612F0405F08D0104AD2F80026C2F30172012A02D0002200E0012202B108B90329B7D10949D1F8002602F07F02D1F80006C0F30420D1F8B8
:4004C0000016C1F3044102FB03F3B3FBF0F3B3FBF1F3A3E70000264000127A008C02000800366E010000214083DE1B43D34D621008B50D4802F022F900F002F9FFF72EFF41
:4005000000221146042000F061FF084801F02CF8074B1B6893F8513013B900F081FB08BD044801F0A1F8F8E714540010F4260008FC280008184C001008B501F0CEFC074AD3
:40054000D2F8883043F47003C2F88830BFF34F8FBFF36F8F01F0C5FC08BD00BF00ED00E0024B034AC3F8002E704700BF00001F410100118010B55F4AD2F8003523F0030329
:4005800043F00103C2F800355B4B1A681068D2F88810425822F47F4242501A681068D2F88410425822F07F4242501A681068D2F88410425822F47F4242501B6893F83E20F2
:4005C00032B14C49D1F8802322F00F02C1F8802393F83E2032B14749D1F8802322F03002C1F8802393F83E3033B1424AD2F8803343F00043C2F880330021012001F0B4F987
:400600000021022001F0B0F90021032001F0ACF90021042001F0A8F90021084601F0A4F9344CD4F8043523F4407323F0010343F00103C4F80435D4F8043523F47F03C4F843
:400640000435D4F8043543F00043C4F80435D4F8003523F47063C4F80035D4F8003523F4E043C4F80035D4F8003543F40043C4F80035224A136823F440731360002002F027
:4006800041F8D4F8803113F0010F05D1D4F80C3523F00043C4F80C350821002001F0AAFB154B1B6893F83F20022A03D99B680022C3F8082C104A13689868B3F874104358D4
:4006C00023F47F4343F4A0634350126892F8731003238B4092F8701092F8720081400B43916843F00043C1F800349368D3F8003410BD00BF00002640FC28000800002740EC
:4007000030B58FB040F2DC5001F0E6FA9621002001F070FB34252A46002101A804F050FA1D4C01AA0021204600F076FB2A46002101A804F045FA01AA0121204600F06CFB6F
:40074000FFF718FF24252A46002101A804F038FA01A9204600F010FD0DF1040C0F4C0FCCACE80F000FCCACE80F002368CCF8003001A90B4800F000FD2A46002101A804F0BA
:400780001FFA4FF4CC03049301A9064800F0F4FCFFF7E6FE0FB030BD000032404C4C0010800432400006324000B587B01C4A01AB07CA03C31A7004A827F016FC40BB9DF80D
:4007C000103030338DF804309DF8113030338DF806309DF8123030338DF80830BDF814306421B3FBF1F202F130008DF80A0001FB12339BB2ADF814300A21B3FBF1F202F1CB
:4008000030008DF80B0001FB123330338DF80C3001AA0921042003F021FC07B05DF804FB704C0010114B1B78022B02D0002213460CE00F4B20225A601022DA6070470D498F
:40084000C95C012901D90132D2B20133002BF6D02AB9074B20229A6010225A607047044B20225A6010225A60704700BF21290008000632402029000808B544F214039842B3
:400880002FD8B0F5804F10D9A0F580400138132826D8DFE800F05025252525372E2125252525252525252525256B41F20103984231D043F21203984204D1FFF7B3FF01F046
:4008C0008BFD0DE0B0F5805F0AD10021084602F0F5FD2A4809F0B2FD0021084602F0EEFD08BD45F20E039842FAD1244B0A22DA64F6E74B78214880F841300BF0D3F8FFF732
:4009000091FFEDE71E4B1B78002BE9D1FFF78AFF00F0A6F8E4E70B78042BE1D1CA78174B93F844309A42DBD1FFF77CFF134A936C01339364D4E7134B1B685B6A1A78102AE6
:4009400011D0104B1B685A6A49795171586A0BF02DF80028C4D00BF061F80A4B1B68586A0BF024F8BCE70522DA70EAE74222034804F018F904480BF06BF8B1E7AC0200083C
:400980002129000804290008BC03000810B586B062B6204B93E803000490ADF81410090C8DF816101C4800F03DF804AA0721022003F054FBFFF7F8FE04E0184AD36C013B60
:4009C000D36463B127F020FB144B9B6C002BF4D0124800238364443006F042FAEDE713464FF47A72DA642322ADF80C20503301930123ADF8083001A802F0BEFE0024002CAC
:400A0000E0D101A9064800EB440002F047FF0134E4B2F4E77C4C001079080010AC0200082429000888B108B5094AD062094B1B7843B91046084B536302F092F9054A0121E1
:400A4000117008B902F0AEF908BD0448704700BF80030008742800088C4C00100100160008B502F027FA08BDC0F30800B0FA80F040097047B0F1204F3CD018D880283BD0BD
:400A800007D9B0F5807F3FD0244B984209D024487047102832D0402801D12248704700282ED170474FF4A40070471D4870471E4B98422BD02DD31D4B98422CD8B0F1704F4D
:400AC00012D900F1805001380428EED801A353F820F000BFA50A0010AB0A0010050B0010ED0A0010F10A00100D4870471048704710487047002070470F4870470F4870478E
:400B0000074870470E487047044870474FF4A0007047034870470248C3E700BF06005200FF00520002005000090000A0050000F00200520003005200050052000100500066
:400B40000100520010B5124B1B6893F83130012B16D90F4B1C68236AB4F8B0201344D4F8B420D358002B11DB0A4B1868FFF782FF636801229A6063689B68002BFBD110BD90
:400B800040F2C311044801F0CBF8E2E70348F6E7FC2800087C280008D04F0010020050001A4B186228B102230370FF23437000234380174B1B6893F8502002B9704700B5D3
:400BC00083B0B3F93830ADF80030002301931149684601F047F8BDF90030002B07DB03F01F015B0901228A400B4941F82320084B1B6893F8513013B903B05DF804FB0222EA
:400C00000649012000F0ECFDF6E700BF7C280008FC280008C508000800E100E07D09000808B50248FFF7BCFF08BD00BFA028000838B505460C46FFF717FF002833D0002CDA
:400C400033D0FFF78BFB1A4B1A4A1A6000225A609D60DC60184B1B6893F85220EAB11868D3F8842083581B0E8258C2F30722591C02FB0111114B03FB01F1114B1B68114A6A
:400C8000A2FB03239B09B1FBF3F101F5195108314FF4807003F0BCFF06E000214FF4807003F0B6FF00E0084838BD0748FCE700BF7C28000800010005FC280008C0EA210121
:400CC00090020008D34D62100600520008B5FFF739FF08BD10B50446FFF7C6FE08B91E4810BDFFF73BFB1D4B4FF0E0521A604FF0B053DB7A23B1194A136843F4807313609E
:400D0000164B5C6000229A60DA60154B1B6893F85420DAB11868D3F8842083581B0E8258C2F30722591C02FB01110E4B03FB01F10D4B1B680D4AA2FB03239B09B1FBF3F132
:400D400001F69801002003F063FFC9E70021084603F05EFFC4E700BF060052007C280008FC28000860F5900090020008D34D621038B505460C46FFF777FE00283CD0002CFF
:400D80003CD0FFF7EBFA1E4B4FF0C0621A604FF0B053DB7A23B11A4A136843F480731360174B4FF480725A609D60DC60154B1B6893F85320DAB11868D3F8842083581B0E38
:400DC0008258C2F30722591C02FB01110E4B03FB01F10E4B1B680E4AA2FB03239B09B1FBF3F101F56171002003F012FF05E00021084603F00DFF00E0064838BD0548FCE7B1
:400E00007C280008FC280008808D5B0090020008D34D621006005200002800F0A181F8B50D4614460646002A00F09C81072900F2F8802368012B00F2F980636833F00F031B
:400E400040F0F980237A33F01F0340F0F980E368032B00F2FA802369012B00F2FB806369012B00F2FC80A369012B00F2FD80E369032B00F2FE80236A012B00F2FF80636A46
:400E8000012B00F20081A36A012B00F20181E36A032B00F20281236B072B00F203812768072D00F20481012F00F20781002F40F00A810123AB4073606768072D00F2078193
:400EC00037F00F0340F00981A800A74B1B6893F87D108B590F22824023EA020307F00F0787401F438F51277A072D00F2FC8037F01F0340F0FE809C4B1A689369F31ADB093B
:400F00005269190102EB0313032D00F2F88053584FEAC50C1F2000FA0CF023EA000307F01F0707FA0CF71F435750E768082D00F2F380032F00F2F68068008B4B1B6893F84C
:400F40007C108B590322824023EA020207F00303834013438B512769082D00F2E980012F00F2EC80B3690122AA4023EA020307F00107AF401F43B7616769072D00F2E4806C
:400F8000012F00F2E7807848036893F87EC05CF806300121A94023EA010307F00102AA401A434CF806206A0002F1100C032303FA0CF31943036893F87F70BB5923EA010164
:400FC000A36903F00103AB400B43E26902F0030202FA0CF21343BB51036893F88020B15821F0FF01236A03F00103606A400000F002000343A06A800000F004000343E06A93
:40100000C00000F018000343206B4001C0B20343AD0005F47E7503FA05F50D43B5500020F8BD4521514800F07BFE02E746214F4800F076FE01E747214C4800F071FE01E786
:4010400048214A4800F06CFE01E74921474800F067FE00E74A21454800F062FEFFE64B21424800F05DFEFEE64C21404800F058FEFDE64D213D4800F053FEFCE64E213B4886
:4010800000F04EFEFBE64F21384800F049FEFAE65021364800F044FEF9E65121334800F03FFEF8E65221314800F03AFEF7E640F227312F4800F034FEF5E64FF44A712C48B3
:4010C00000F02EFEF2E60123AB40B360F4E64FF47171274800F024FEF2E640F2C531244800F01EFEF0E64FF42271214800F018FEFDE640F289211E4800F012FEFBE62A1F78
:401100005968D2001F20904021EA000107F01F0797400F435F6008E74FF4DD61144800F0FFFD06E740F2E961114800F0F9FD03E740F269610E4800F0F3FD10E740F26A618C
:401140000B4800F0EDFD0DE740F20341084800F0E7FD15E740F20441054800F0E1FD12E70448704703485BE7FC2800082C5000108450001001005A0000286ED070B50C46C9
:40118000054600296BD00B6833F0FF0347D1236933F0FF0348D1A3685B0D5B05002B48D1636823F4FF7323F00103002B46D1E36913F0604F47D1236A13F0604F48D1294B60
:4011C00019688A69AA1AD2094969100101EB021226682E601E6896F87DC0E66845F80C601E6896F87EC0266945F80C601E6896F87FC0666945F80C601E6896F87CC0A66802
:4012000045F80C606668AE611B6893F88030A669EE50E3690B50236A5360002070BD9921114800F07DFDB2E79A210F4800F078FDB1E79B210C4800F073FDB1E79C210A48AD
:4012400000F06EFDB3E79D21074800F069FDB2E79E21054800F064FDB1E7044870470348DCE700BFFC2800082C50001001005A0038B50C4B1B68D3F8B4301B58002B01DBB5
:40128000094838BD05460C460B0C1B041BB9A4B26C600020F5E740F2D521044800F040FDF5E700BFFC28000801008A00D04F001038B50368002B0FDA05460C46C2600B0CBF
:4012C0001B041BB9A4B2AC60002038BD40F2BB21024800F025FDF5E70148F6E7D04F001001008A0038B504460D4651B1084B1B68D3F8B4301B59002B08DAE3682B600020D6
:4013000038BD9921034800F00BFDEFE70248F7E7FC280008DC50001001008A00264B1B6893F83130834242D970B505460C4600293FD00B6813F01F0F01D0204870BD1E4B9D
:401340001B6893F8313098421CD21B4B1B68186AB3F8B03003FB0505194E35602268D2080021606803F02CFC00212846FFF780FF35686CB1224600212846FFF799FF68B178
:401380001048DBE740F2C3110F4800F0C9FCDCE740F293310C4800F0C3FCEBE70021084B1868FFF765FF0028C8D00648C6E7034870470248C2E700BFFC28000803018A00FC
:4013C000A428000801018A00D04F001038B505460C4613461AB11BB3D4B9124838BD0029F9D1114B1B6893F8313098420AD20E4B1B68186AB3F8B03003FB05000B4B1860D8
:401400002046EBE740F2C311094800F089FCEEE706494C608B6004312846FFF77FFFDDE70048DBE703018A00FC280008A4280008D04F00102DE9F041184B1B68DE6833683D
:40144000834229D90C46470900F01F0001258540B1B14FF00008114B18680368002B15DA726852F8273013EA05060DD12B4342F827300021FFF7FCFE54B13046BDE8F081FD
:4014800000F02BFD8046E6E7054EF2E7054EF3E7404600F026FDF0E7034EEEE7A4280008020188000301880004018A002DE9F041194B1B68DD682B6883422BD90C464609A8
:4014C00000F01F00012303FA00F8B9B10027124B18680368002B17DA6A6852F8263013EA080F0FD023EA080342F8263000250021FFF7BEFE54B12846BDE8F08100F0EDFC68
:401500000746E4E7054DF2E7054DF3E7384600F0E8FCF0E7034DEEE7A4280008020188000301880004018A000B4B1B68DB681A6882420CD9410900F01F00012202FA00F0C5
:401540005B6853F82130034203D004487047044870470448704700BFA42800080101880004018A0000018800034B1B6803B17047014B1860FBE700BFB02800082DE9F843E4
:4015800004460E4617461D46DDF82080324B1B68002B44D0304B1B682C2004FB00F01C185FFA85F943F80090C5F3072363602D0CA5602A4B1B6893F83130994534D2274BED
:4015C0001B681A6AB3F8B01001FB09222261656893F832309D422DD2204B1B681A6A05F1800302EB43156561D4F808904FEA19431B042BBB4FEA19431B043BBB1FFA89F304
:4016000043EA0943AB60E76126620023A361B8F1000F02D0B8F90030A381BDE8F883B5210F4800F07DFBB5E740F2C3110D4800F077FBC4E740F2DF110A4800F071FBCBE765
:401640004FF4FF71074800F06BFBD3E740F2FF11044800F065FBD1E7B0280008FC28000838510010D04F001030B58FB00446002849D0A369072B4BD8E36A002B4DD0236BBB
:40168000002B4FD00DF11C0C04F1140EBEE80F00ACE80F00DEF80030CCF800300DF1080CA646BEE80F00ACE80F00DEF80030CCF800301F4B1B68DB8E079A1344ADF83030AE
:4016C000089B0D930CAD00950B9BA26AE16A0A98FFF754FF00210091069B0A460598FFF74DFF216B284600F0BDFABDF93030002B07DB03F01F015B0901228A400D4941F838
:4017000023200FB030BD52210B4800F009FBB0E75621094800F004FBAEE75821064800F0FFFAACE75921044800F0FAFAAAE700BFFC28000800E100E038510010F8B5074660
:401740000E461C46154652B3204B1B6863B31F4B19682C2202FB071002FB06114A684FF0010C0CFA02F2120446680CFA06F603692BB38F692FBB1B68002B24DA2B882B601A
:401780001A432A600369DD60C1F818C04C620469330C1B046BB9B6B2A6603846F8BDFD210B4800F0BDFACFE7FE21094800F0B8FACDE740F2BB21074800F0B2FAEBE7064F16
:4017C000EBE7064FE9E7054FE7E700BFB028000838510010D04F001004028A0007028A00F8B506460F4615460F4B1B6873B10E4B1C682C2000FB0644236A6BB1E369AB424C
:4018000010D9236A43F825700020F8BD4FF4AF71064800F085FAEAE74FF4B171034800F07FFAEBE70248F0E7B0280008385100100A028A0070B582B000230193044680B1F8
:401840002369A3B16369C3B1236AE3B16369DD682A0C1ED1ADB2002D3DD163691B6802B070BD40F2D111244800F05AFAE8E74FF4E971214800F054FAE4E740F2D3111E480B
:4018800000F04EFAE0E74FF4EA711B4800F048FADCE712041A601B682069184B1B68D3F8B4301B58002BD5DA01A9FFF71BFD60B9019803681E0CDBB2E2699A4206D9226A97
:4018C00052F8233013B1984700E0002631462069FFF7CEFCBEE763691D601B68636A2BB19847002363620023A361B6E7A36A002BF9D09847F7E700BF38510010FC280008FB
:4019000010B50446084B1B683BB1074B1B682C2000FB0430FFF78EFF10BD40F2B111034800F0FEF9F1E700BFB02800083851001010B504460A4B1B689B6CC34013F0010FFC
:4019400008D0074B1B681B691034A402185900F00F0010BDBE21034800F0E2F9F1E700BFFC28000894510010134B1B6893F83C3083421DD9042904D9A1F580739BB2132BB1
:4019800018D8FF290CD901F01F010C4B00F1C00243F82210D030042243F820200020704701F00701D030054B43F82010002070470348704702487047FC280008000026400A
:4019C00001004A0010B504460E4B1B6893F83C30834209D904F1D0030B4A52F8230000F00700042806D010BD4FF4A171074800F097F9EFE7C03452F8240000F01F0040F424
:401A00008070F0E7FC28000800002640EC510010B0F5C26F80F09F80B2F5C26F80F09D80B1F1807F80F09B8010B54E4B01241C70FF2825D800F00F0E0F24A4460720FF2A5D
:401A40003FD81201D2B24EEA020E40F4E0204CF0F00C44F47024444B1B681A6AB3F8B030C3EBC303D358002BF5DA3E4B5B78002B49D03E4BD3F81C35002B44DB3C485FE02C
:401A8000B0F5A06F06D200F00F000F244FF0000CE646D4E7C0F30323B0F5C06F07D20001C0B21843FF244FF0000CE646C7E7000200F47060184340F60F744FF0000CE64649
:401AC000BDE7B2F5A06F06D2120402F47022104344F47024BFE7130A1B0403F470231843B2F5C06F06D2130503F47003184344F47F04B0E7130603F07063184344F0706411
:401B000044F47024A7E7194B41F61F72C3F8082143F63D52C3F80421D3F8182522EA0C0C4CEA0E02C3F81825D3F8142522EA04042043C3F814050B4A5160C3F81C150020C8
:401B4000094B1B681A6AB3F8B030C3EBC303134400225A6010BD06487047054870470448704700BFB4280008FC2800080000264001004A0038B50446254B00221A70254BBC
:401B80001B681A6AB3F8B030C3EBC30302EB030CD358002BF3DA204BD3F8082141F61F739A421AD000251C4BD3F8200520F07F400023CCF8043045B340B3CCB9144B5B681A
:401BC000A3FB013144081C1902464FF00003204641F1000102F054FE18E00F4BD3F8042143F63D539A4201D00025DCE70125DAE7A0FB0101064B5A685308C0184FF0000381
:401C000041F1000102F03CFE00E0002038BD00BFB4280008FC2800080000264038B504460C4B9A680C4B9A4204D010340B4B53F8240038BD0D4631B11034074B53F824004C
:401C400043F82450F5E740F23711054800F068F8F2E700BF00ED00E00000000800000010A452001060B338B50D4604464368072B13D8B4F900306268002B13DB5201D2B243
:401C800003F1604303F5614383F800230D4B9A680D4B9A420DD0002038BD32210B4800F03FF8E6E703F00F035201D2B20849CA54ECE72946B4F90000FFF7B0FF0020EBE768
:401CC0000448704700ED00E000000008A452001014ED00E00100560010B5044605E0084B186800F0F1F8A4F50044B4F5004FF6D8044B186804FB00F000F0E6F810BD00BF73
:401D0000A8020008A402000808B5034B1B7803FB00F000F0D9F808BDA002000801BEFEE738B50C46044D18220146284602F050FFAC610020FFF7F2FFB00D0008024B1B687A
:401D40005B6801229A607047FC280008FEE7000008B50268254BDA6142681A6282685A62C2689A620269DA6242691A6382695A63C2699A631E4A916AD963D16A1964516A46
:401D80005964516B9964926BDA64F1EE103A13F0900F27D0026A154B1A65426A5A65826A9A65C26ADA65026B1A66426B5A66826B9A66C26BDA66026C1A67426C5A67826CA4
:401DC0009A67C26CDA67026DC3F88020426DC3F88420826DC3F88820C26DC3F88C20026EC3F89020FFF7B2FF08BD00BFB00D000800ED00E070B40446002830D019233048D1
:401E000002681668B2F8A850725922F003028B422CBF002301231A43725102681668B2F8A850725922F44072725102681568B2F8AAC055F80C2022F00302134345F80C30DD
:401E400003681868B3F8AA20835823F4407383503CB110291DD9212926D801221AE06423CDE7174B1B6893F855208A421ED293F856208A421CD293F857208A421AD293F82D
:401E800058208A4218D293F859308B4216D3042200E000220A4B1B6859680B6823F00F0313430B6070BC70470222F3E70022F1E70122EFE70222EDE70322EBE70522E9E756
:401EC000FC280008000000000230800803D001300238FCD100BF00BF7047EFF3108072B6704780F3108870474FF0B0539B899BB2FBB14FF0B0539B899BB2B3F5807F18D008
:401F000030B4174AD2F8483823F44073154908680468D0F8980025582B4343F4407323500B681968D3F89C30D2F84428CA5030BC70470C4A13681868D3F89810435823F076
:401F40000F0343F00203435013681968D3F89C208B5823F00F0343F002038B50704700BF00100016FC2800084FF0B0539B899BB2FBB14FF0B0539B899BB2B3F5807F18D07D
:401F800030B4174AD2F8203823F44073154908680468D0F8980025582B4343F4407323500B681968D3F89C30D2F82028CA5030BC70470C4A13681868D3F89810435823F042
:401FC0000F0343F00303435013681968D3F89C208B5823F00F0343F003038B50704700BF00100016FC2800084FF0B0539B899BB2B3B14FF0B0539B899BB2B3F5807F0FD04C
:402000000D4BD3F8183823F440730C4A12681168D2F898208858034343F440738B507047064B1B681968D3F898208B5823F4E04343F4C0438B50704700100016FC280008E3
:402040004FF0B0539B899BB2FBB14FF0B0539B899BB2B3F5807F18D030B4124AD2F84C3823F44073104908680468D0F8980025582B4343F4407323500B681968D3F89C30FF
:40208000D2F84C28CA5030BC7047074B1B681968D3F898208B5823F4E04343F480438B50704700BF00100016FC28000808B54FF0B0539B899BB243B14FF0B0539B899BB27B
:4020C000B3F5807F01D0012008BD0E20FFF730FC4FF0B0535B782BB14FF0B0535B78DBB2222B02D818B90120EEE70120ECE70020EAE7000010B5044601280BD884B9114B18
:402100005869C00F104B1B6893F844300BB1012C08D010BD40F262710C48FFF701FEEDE70020EFE7074B9B6913F0804F07D1054B9B69002B01DB0020EBE70120E9E701202D
:40214000E7E700BF00002640FC2800080053001038B5164B1B6893F8443013B304460D46072809D8114B1B6893F8443053B1104B9B6903F0070306E040F2CC710D48FFF7BC
:40218000CFFDEFE70023DBB29C420AD008498A6922F0070204F0070002438A610DB19C4200D838BDC820FFF7AFFDFAE7FC280008000026400053001028B30246C36823B39E
:4021C000036823B310B490F804C0124B03EB8C035C682346002123B193420CD019465B69F9E7012020B144B14A611161002353615DF8044B70470020F4E7064B03EB8C0CD6
:40220000CCF80420F1E700207047002070470020704700BFC0280008024648B390F804C0144B03EB8C0359680B461BB193420CD05B69FAE70020E0B18A4208D019695A6971
:402240004A61B2B11B69136170470120F3E74B693BB1084A02EB8C0CCCF8043000221A617047044B03EB8C0C0023CCF80430704700207047C028000870B582B004460D4681
:40228000022803D9042801D0032817D16B1EDBB2012B03D9042D01D0082D15D1264800EB84046468042D29D0012D29D0022D2DD026466469002CFBD100202EE040F6B2114B
:4022C0001E48FFF72DFDE1E740F6B3111B48FFF727FDE3E76469BCB1194B984212D0A3681D42F7D1E3681A6800925B6801932368294668469847104B9C61EBE70020EAE76B
:402300000020E8E7012DEAD102B070BD0A4B9E69002ED1D03669CFE73669002EF4D0B3681D42F9D1F3681A6800925B6801933368294668469847EFE7C0280008005300100B
:40234000FF00420070B50446012826D81E4B5B684BB301210020FFF78FFF064670BBFFF7BCFD0546184B5B681BB104210020FFF783FF164A136923F004031361012C14D0FB
:4023800030BF2846FFF7ADFD0F4B5B681BB108210020FFF771FF304670BD4FF4E0710C48FFF7BEFCD2E70026D9E720BF064B1B7803B120BF044B01221A70E2E70221002050
:4023C000FFF75AFF034EE6E7C028000800ED00E000530010FF00420010B5174BDB681BB301210220FFF748FF0446F8B9FFF775FD114BDB681BB104210220FFF73DFF0F4BB5
:4024000059680F4A0A4042F01B025A605A680D490A435A605A680A435A605A680A435A605B6830BF204610BD0024DFE702210846FFF722FF044CF5E7C028000800002640A5
:402440000000FC0F003A0280FF00420008B5FFF744FD074B5A6807490A4042F468525A605A680A405A605B68FFF73BFD08BD00BF00002640FF00FC0FF8B5074601281BD847
:402480004FF0B0535B78EBB14FF0B0535B78DBB29CB24FF0B0539B899BB2ABB14FF0B0539D89ADB20E20FFF743FA0646F8B9B5F5807F0CD02E4E1BE040F64C212D48FFF73D
:4024C0002FFCDDE72123E3E74FF48075EAE7222C3AD8294B1B685A6802F57042936923F08073390601F080710B43936100E0204EB5F5807F2AD0B5F5807F23D01E4B1B6836
:4025000093F83130012B24D91B4B1B681C6AB3F8B0301C44B5F5807F21D02FB3174A01212046FEF7C5FE024660B9134B1B68D3F8B4301B59002BF8DBE36803F07F43B3F108
:40254000204F13D03046F8BD094ED1E7222CD5D8D1E740F2C3110A48FFF7E2FBD4E70FB1084ADCE7084ADAE7084AD8E71646E9E70400420000530010FC2800080300000C2D
:40258000D04F001001010030010000300100000C70B50446022801D0052805D1FFF786FD40B9204D284670BD40F202711E48FFF7B7FBF3E7FFF791FC0646022C23D01B4AB3
:4025C000536923F0070343F0030353613420FFF79BFBFFF735FD0025144A536923F0070304F007010B435361022C17D09120FFF78BFBFFF7B9FC0020FFF73EFF05463046B2
:40260000FFF76FFCCEE70120FFF736FF054610B1002DF4D1E0E7FFF767FCF9E7FFF7E4FCEDE700BF030042000053001000002640F8B50446012805D8FFF738FD40B92C4D29
:402640002846F8BD4FF402612A48FFF769FBF3E7FFF743FC074694B9274B0022C3F8302F4FF0B05393F84067F6B20120FFF704FF054608B175BB20E0FFF736FCFAE74FF0BC
:40268000B05202F58053D3F810081C4B03F5E041C1F8300F92F84167F6B203F57043D3F81C2F22F01F0242F00B02C3F81C2F0320FFF72AFBFFF7C4FC0025114AD2F81C3F47
:4026C00023F01F0306F01F061E43C2F81C6F2CB9FFF78AFC3846FFF704FCB1E70720FFF713FBFFF741FC0020FFF7C6FE0546F1E70300420000530010007026400000264038
:4027000000F0264004280FD000060B4B1B681A68D3F8A03000F04070D0504FF0E022136923F00403136170474FF0E022136943F004031361704700BFFC280008014B1860A9
:40274000704700BFFC28000838B50D4640F4004000040D4BD8614FF47A740B4B1B6C13F0010F05D124B1013C0120FFF7CDFAF4E744B1054B1A6C42F001021A64DB6A2B803E
:40278000002038BD0148FCE700003C400400160010B50E4B03EA00430B430D4AD3614FF47A740B4B1B6C13F0010F05D124B1013C0120FFF7A9FAF4E734B1054A136C43F097
:4027C00001031364002010BD0248FCE70000FF7F00003C400400160070B582B005460A2407E0BCB1013CB3B9BDF80620B2F5C05F11D04FF4C05141F60260FFF7C9FF0346ED
:402800000028EED10DF1060141F60260FFF79CFF0346E6E74A4B002B43D0002B6DD0002B35D1BDF8063023F03F039BB2ADF80630AA78012A69D0EA78002A7DD196B2C2F13D
:402840000104A4B223F040039BB2ADF8063043F01003ADF806303B4BD3403B4A1360BDF80610314389B2ADF8061041F60960FFF78FFF0346EA78961B06F00306ADF806600E
:40288000A400A4B23443ADF80640304A54664FF0B052527812B14FF0B0525278184602B070BD0DF1060141F60360FFF74DFF03460028B2D1BDF8062012F4806FADD10A2421
:4028C00008E0C4B1013C002BA7D1BDF80620B2F5806FA2D04FF4806141F60360FFF758FF03460028EDD10DF1060141F60360FFF72BFF0346E5E7124B8FE70DF1060141F69B
:402900000960FFF721FF034689E7EA78012A0ED90024022643F04003ADF8063043F03003ADF806300A4BD340074A136097E796B2C2F10204A4B2EDE70024012682E700BFC5
:40294000040016000024F4008C02000800F03D400048E80138B50C4641F2010141EA400141F60860FFF714FF054620B16001FFF7CBF9284638BD46F6370141F60F60FFF7BF
:4029800007FF0546F2E70000024A136F43F010031367704700F03D4010B59CB01E4C0DF14C0CA646BEE80F00ACE80F00BEE80F00ACE80F00DEF80030CCF800300DF1280CA2
:4029C00004F1240EBEE80F00ACE80F00BEE80F00ACE80F00DEF80030CCF800300DF1040E04F1480CBCE80F00AEE80F00BCE80F00AEE80F00DCF80030CEF8003013A90748F8
:402A0000FEF7BAFB0AA90648FEF7B6FB01A90548FEF7B2FB1CB010BDCC5400100001324080013240000232402DE9F041002800F0EE800646794B5B6813F4003F01D1784C8D
:402A400006E0FFF703FDFAE7013C0120FFF75CF9744BDB6E0BB1002CF6D1724BD3F8A03013F0010F06D06F4BD3F8B43013F0010F40F0CF806B4BDB6E1BB16B4D2846BDE867
:402A8000F081FFF789FF694901F5F833684AC3F8A420327842F42022C3F8A8204FF00112C3F8AC20D1F8005115F0010540F0B3801B6F13F0080F3DD00B6801225D4941EA05
:402AC00042321343594A1360544B5B6913F0804F43D1544AD2F8C43043F00303C2F8C430504CD4F8A07047F4403343F03003C4F8A0304020FFF708F9D4F8B03013F0010F3C
:402B000041D027F4803727F0100747F4003848F02008444BC3F8A0804FF4FA64464B1B6913F0100F3CD1002C3AD0013C0120FFF7EBF8F3E7414B1B68414A934203D83B4B4B
:402B40001B68404ABDE7404AA2FB0332120D374B1B68013AB2D13B4AB3E701210320FFF7F7FA2E4B5B6903F08043384A126892F84420002AB4D0002BB2D0284A936943F042
:402B800080439361ACE70123C4F8B0304020FFF7BBF80323C4F8B0304020FFF7B5F8B0E754B92B4D75B3002D7FF468AF31787078FFF7D0FE054661E71A4A936E43F00803B7
:402BC00093660120FFF796FA18B947F4003848F0280828F4802343F00103124AC2F8A0300F4C03E0013C0120FFF78EF80D4BD3F8B43013F0010F01D1002CF3D1002CD1D1EB
:402C0000134DD0E73046FFF7E7FD0546CBE7114D34E7054D32E7104D30E700BF00002640F07E0E0000F03D400300160000003C4006000001041A0080004032409402000840
:402C400000093D00040A008083DE1B43FC280008040016000100160002001600014B1868704700BF8C02000810B50024042C06D82046FEF7A7FE032803D00134F6E700204D
:402C800010BD0120FCE70000064BD3F8000500F00300012802D0032801D0002070470120704700BF0000264038B5012903D0082937D0234838BD234B1B78012B37D003208B
:402CC000FEF732FC204B984233D0FFF7CDFF012831D0022003F081FC0546FFF7FEF81B4B186025F093F90446062826D0022D0BD0012011F0E5FE022C00D078B1134B1868B3
:402D0000FFF7EFF80E48D5E7022011F0D9FE032C01D0052CF2D10028CCD0EFE7FFF712FBECE70A4B1868FFF7DCF80020C2E70448C0E70348BEE70248BCE70020BAE700BF8E
:402D4000FF0042002D290008010188000029000808B50248FFF760FA08BD00BF8C05000890B110B5094A5060C36A03B193600024074B1C70074B1C70074B1C60074B1C701C
:402D800000F090FB204610BD0548704700290008382900084C290008482900085C2900080100160010B59AB00DF1540C384C0FCCACE80F002368CCF800304C22002102A806
:402DC00001F0FEFE334B029315AB049341F65003ADF8143005238DF816301B23ADF82030ADF8223003238DF8243004238DF8253006238DF8263008238DF829304023ADF8D7
:402E00004C3001238DF850302348FFF7D5F908A803F048FC10BB214B0393214B5B68996BA9B10B460DF12A022031D3F800E0D3F804C09C68D868C2F800E0C2F804C0946027
:402E4000D060103310328B42EFD11B88138002A803F0D0FB20B1134B00221A601AB010BD114B01221A700023104A1370104A13700B4B5B681A6A00929B6ADB88ADF80430BA
:402E80002223ADF8063068460BF070FCE3E700BF385500100D3A00108C050008440E000800290008482900082D290008202900082129000808B503F0C3FF08BD014B986740
:402EC000704700BF00F03D4008B518F0F5FD034B1B680BB100B1984708BD00BF0C29000858B108B5B1F5FD7F01D3054808BD0A46044901F057FE0020F8E70148704700BFEB
:402F000001001600070800162DE9F04FADF5097D80460E4617460293B1F1805F03D38A18A24B9A4210D9B6F1A05F03D3F219A04B9A4209D99F4B9E4240F22881F21903F24C
:402F400001239A4200F225819B4B5B6913F0804301932AD0984B5B6903F007030393022B19D00123049300230193944B019A9A4238D006F17046730A009326F4FF7424F03D
:402F8000010400210320FEF755FA82460028F8D1054600215EE00520FFF7FAFA0190884B9842F8D001230493DFE7864BD3F81C2F02F01F024FF0B05393F84037DBB29A42E4
:402FC00014BF01230023049302D005230393CCE70120FFF72DFB0190794B9842F8D005230393C2E740F2D5117748FEF799FEC0E704F1805212780DF1200C0CF8032001345F
:403000000133B3F5007F15D2B442F1D3BD42EFD218F805200DF1200C0CF8032040B904F180521278D2B218F805C0624500D001200135E4E7814650B1029BC3B1009B03F5A6
:40304000002008A94002FDF7F3FD82464946009B01330093019B002B5CD1BAF1000F59D1BD4257D253464FF000094846C9E74FF0C80B059506945D46DDF800B00BF50024EF
:4030800064022046FDF726FE8246013D0120FEF73BFE0AF4A403B3F5A40F01D1002DEDD10794059D069C494B9A4507D0BAF1000F0BD0464B9A4525D04946C8E7FDF706FEC1
:4030C0008246434B9842F9D0F0E74FF0C80B0595079D5B46A3461C4608A92846FDF748FE8246013C0120FEF70FFE0AF4A403B3F5A40F04D1002CEFD1059D5C46D9E7059DDC
:403100005C46D6E7FDF7E2FD8246314B9842F9D049469CE779BB00210320FEF7C7F90028F9D1019BABB9244B5B6913F0804F02D0039B022B22D0204B1B6813F4000F08D1D4
:40314000049B33B90020FFF773FA01901C4B9842F8D0019B03BB1F4B9A4520D004339A4520D0BAF1000F01D0DFF86CA050460DF5097DBDE8F08FFEF7E1FDCCE70220FFF7C0
:4031800007FA01900E4B9842F8D0D4E7DFF84CA0E1E7DFF848A0DEE7DFF844A0E6E7DFF844A0E3E7DFF83CA0E0E700BF0000101000800014FF0700160000264003004200F7
:4031C0000400420000F026404C5500100100500002005000020052001300160006005200120016000100160058B1B1F5FD7F01D30548704708B501230A460449FFF784FED2
:4032000008BD0148704700BF010016000708001670B5C0B006460C4615464FF480720849684601F0BFFC05E016F8012B6A401DF80250013C002CF7D1284640B070BD00BFB5
:40324000A4550010002070470388AE2202FB03F3A3F26F33024AA2FB0323DB080B807047CDCCCCCCB0F9003042F64B0202FB03F3044A82FB0302DB17A3EB2233BD330B8013
:40328000704700BFAD8BDB680020704708B511F051FA08BD08B5FEF737FD08BD074B1B685B6BB3F90030002B07DB03F01F015B0901228A40024941F8232070470429000832
:4032C00000E100E00A4B1B685B6BB3F90030002B0CDB03F01F015B0901228A402033054941F82320BFF34F8FBFF36F8F704700BF0429000800E100E0024BD3F8000500F047
:403300000300704700002640024BD3F81C05C00F704700BF0000264008B5FEF72BFC08BD70B504460D4616460320FEF7FDF8054B984205D0324629462046FEF769FB70BDEE
:403340000148FCE70101880003004A00431A002BB8BF5B4293422CD3184BD3F83C35C3F3090C884216D9411A01EB5201B1FBF2F3BCEB03031BD41149D1F83C2522F47F7265
:4033800022F00302C3F309000243C1F83C25ACEB03007047091A01EB5203B3FBF2F3634440F2FE329342E6D940F2FF33E3E70023E1E74FF0000C6346E9E700BF00002640F1
:4033C00008B5034B1A684FF40041FFF7BFFF08BDA405000810B5FFF7DFFA0220FFF76EFD0A4C23680A49586BFEF73CFC23685B6BB3F90030002B07DB03F01F015B09012283
:403400008A40044941F8232010BD00BF04290008C92E001000E100E00420704708B5FEF75CFD08BD08B5FEF75CFD08BD08B5FEF789FF08BD08B50021FEF78AFE08BD70471F
:4034400070470020704700000048704711001600004870471100160000487047110016000048704711001600004870471100160000487047110016000048704711001600B4
:4034800000487047110016000048704711001600004870471100160000487047110016007047000008B5034800F0B6FD024800F0C5FD08BD8805000880050008022800F213
:4034C0008580002940F0848070B50A460023002B3ED0012A47D0404B5B7A002B7AD13E4B997200284ED13D4D2B685C68C1EBC10204EB420C1C6801EB810104EB8104BCF8FF
:4035000004C0A4F810C05C681B6803EB81035B6834F812401C802C68636803EB4203226802EB81014A685B8853802D4B18702B4B1B681868284B9B7A03EB830300EB8300EF
:4035400006F0DAFE002846D1234B01225A7242E0214C04EB030C9CF80840012C01D90132D2B20133B3E71D4B1B681B6801EB810203EB82035B681B79023BDBB2012BAAD9CC
:40358000184828E00128D0D1144E33685C68C1EBC10204EB42051C6801EB810104EB8104AD8925825C6804EB42041B6803EB81035B6824891C803468636803EB4203226812
:4035C00002EB81014A685B895380AEE70648704705487047054870BD18290008042900085C2900080200160001001600FF00160010B541B9164B1B681B68996891F81FE0DD
:4036000000231C4607E0124B1B681B68D96891F81FE0F5E7012473450AD24CB9CA5C3AB1013311F803C0BCF11B0FF3D01344F2E76CB101338279CA54002206E0D4180134EA
:4036400010F802C001F804C00132052AF6D910BD0429000838B504460BF0A2F8054660B90E4B19680A6A238903EB83039B00143B13445A6812F0007F01D1284638BDE07BDE
:403680001B695B68CA699B1A00EB80001844A2882168034B184401F085FAEEE7042900083029000830B587B00289194B1B685B699B889A4203D00025284607B030BD044637
:4036C00001AB07C883E807000022ADF81020A289ADF8122040228DF814201846FFF7BAFF054648B923681B7813F0020F0AD0094B1B68214608489847084A137803F0FE0326
:403700001370D9E7034B1B68214605489847F3E7042900080829000805000100382900080600010043885A1E92B2232A1BD84078D8B90F4A11680A6A03EB83039B00143B70
:4037400013445A6812F0007F11D010B41B695C68CA69A21A00EB80031344064AD35A23805DF8044B704701207047012070477047042900083029000800B3114B1B681A6A80
:40378000038903EB83039B00143B13445B6813F0007F01D00120704700B587B001AB00220192029203920492059207C883E807001846FFF74FFF07B05DF804FB0E20704764
:4037C00004290008002849D070B582B086460388ADF804309DF805302BB10025224805B1002002B070BD2148C35C012B38D9242938D89EF801301BB94FF0000C654603E04C
:403800001B48EEE70CF1010C1A4B1C68266A01EB810080001438304403895B1A63451BD3C5B901EB0C0303EB83039B00143B3344586810F0007FE5D09EF801001B695B6869
:40384000E4691B1B00EB80000B4C2044C35C13800125D7E70648C2E70548C0E7044870470148BEE70248BCE7070016002029000801001600042900083029000800B583B03D
:403880000DF10602FFF79EFF30B9BDF8060000F0010003B05DF804FB0020FAE750B330B585B00C46054639B30388ADF800309DF8013013B1124805B030BD124AD35C012B8F
:4038C0001CD90846FFF758FF08B10F48F3E721892846FFF7D3FF08B90C48ECE76B4694E8070083E807002A88ADF80C2018460AF093F8E0E7064870470548DCE70048DAE795
:40390000070016002029000802001600170016000100160000B583B000230093ADF804308389ADF800300389ADF8023012238DF80430094B1B7813F0010F05D139B18DF8D5
:40394000051068460AF048F803B05DF804FBC0680AF070F8F8E700BF38290008E8B110B404460023194600E00133104A127B9A4208D939B90D4A02EB83025268A242F3D1B4
:403980000121F1E759B9012A0DD8084B03EB82014C6001321A73002002E00548704700205DF8044B70470348FAE700BF38290008010016000300160070B506460D460020D2
:4039C000044607E0084B03EB84035B682946304698470134044B1B7BA34204D9024B1B7813F0010FEED170BD382900080246807908B1002070470023052B03D8D15C11B92D
:403A00000133F9E7704701207047000070B588B004460D46B34A137843F00103137044F21003984200F28A8044F20403984210D241F20303984220D8B0F5805F2ED3A0F56A
:403A40008053032B2AD8DFE813F0BF001E0121016D01A0F58043043B0C2B1FD8DFE813F077011E00FC01B401F8011E00B1011E001E001E001E001E00B40143F212039842FC
:403A80004ED01CD943F21903984207D1084602F04DFF944A137803F0FE031370914B1B7813F0110F09D08F4A137803F0FE0313708D4B1B6829462046984708B070BD42F216
:403AC0000403984228D1874B1B6913F0010FE5D10023ADF808308DF80A30844E33689B6A93F900308DF8083002A807F049FC33689B6A93F901308DF8083001238DF8093041
:403B0000FF238DF80A3002A807F03AFC754A136943F001031361C1E743F201039842BDD10023734A1370734A1370734A137043F212039C42B2D1FFF70BF9AFE745F217032F
:403B4000984239D8B0F5A04FA8D9A4F5A043013B162BA3D801A252F823F000BFD33E0010033F0010273F00109D3A00109D3A00109D3A00109D3A00109D3A00109D3A0010BF
:403B80009D3A00109D3A00103B3F00109D3A0010A93F0010B33F0010F13F00109D3A00109D3A00109D3A0010FB3F00109D3A00109D3A00100540001046F2010398427FF4E1
:403BC0006DAFFFF7F9FE69E74C4B1E683046FFF70DFF00284AD1454B19688B6A1B791BB34FF0B05090F8043603F03F0390F80526920102F47C62134390F80326120302F4CA
:403C0000F832134390F80026520402F47E021A43096B0B7035490868006BC3F3072343700B68196B130C8B70304E3368186B07F069FB33680021186BFFF7DAFC3368012182
:403C4000186BFFF7D5FC294B1B68986A023007F011FF2B4A02AB92E8030083E80300184607F074FB224B02221A7017E7304607F049FB224E00213068FFF7BAFC012130689E
:403C8000FFF7B6FCDFE7FFF797FE07E749781C4B1B89ADF80430002383B19DF80530FF2B3AD0BDF80430ADF81430ADF810309DF811102A780B4B0B441A75EFE6114A32F886
:403CC0001320ADF808209DF8092042B90E48825C012A04D90B4A12F81320914216D00133DAE700BF3829000808290008042900082D2900082129000828290008A80500083B
:403D0000F85600102429000820290008AB4A32F81330ADF80430C0E740F2CA31A848FDF7FFFFBEE70B78002B7FF4B8AE0B7A43B9A44B0222DA8324229A83A34A43F8182F9F
:403D40004B60A04A137803F0FE031370A6E6CB78002B7FF4A3AE49799C4B1B89ADF8043000237BB19DF80530FF2B24D0BDF80430ADF81830ADF808309DF80930944A012110
:403D8000D1548BE68D4A32F81320ADF808209DF8092042B98F48825C012A04D9874A12F81320914201D00133DBE7844A32F81330ADF80430D6E740F2CA318148FDF7B0FFE4
:403DC000D4E7FFF7F9FD69E60B78D3B98B78012B1BD069787D4B1B89ADF804300023C3B19DF80530FF2B2DD0BDF80430ADF81C30ADF808309DF80930FF2B02D0A978764A94
:403E0000D154764B02221A7048E6754B00221A70DFE76A4A32F81320ADF808209DF8092042B96C48825C012A04D9644A12F81320914201D00133D2E7604A32F81330ADF825
:403E40000430CDE740F2CA315D48FDF769FFCBE7624B02221A7021E6FFF7AEFD594B1B7813F0010F3FF41AAE5D4B1B78012B28D0032B2AD0022B7FF411AE594B00221A70FC
:403E8000584B1B685B68584A1178C1EBC10203EB42039A79002A3FF401AE9B88002B3FF4FDAD484B93F82430002B7FF4F7AD0120FFF704FB00287FF4F1AD494B01221A70BE
:403EC000ECE5474B02221A70E8E5454B00221A70E4E52B88ADF808309DF8093013B93D4A0221D1546A782988344B23F812106A78344B134400221A7529462046FFF75CFD0A
:403F0000CCE52B88ADF808309DF8093013B9314A0021D1546B782E4A0021D15429462046FFF74AFDBAE52B88ADF808301723ADF80A3002A809F05CFDB0E52846FFF7B2FB48
:403F40000146E0B12846FFF7E5FC1E4B1B7813F0110F04D0254B1B682946204698472A89184B1B7813F0010F03D0531E9BB2232B0BD8144A137803F0FE0313708EE52946CA
:403F80002046FFF719FD0146DCE712238DF80C30ADF80A20AB89ADF8083001238DF80D3002A809F019FDE4E729462046FFF704FD74E529462046FFF7FFFC6FE524290008B1
:403FC000A45600103829000894260008F856001028290008202900082C2900082D2900082129000804290008222900080829000829462046FFF7E0FC50E529462046FFF70F
:40400000DBFC4BE52846FFF78DFB29462046FFF7D3FC43E50020704730B108B5034A10600348FFF79BFC08BD024870476029000815400010010016000020704730B108B579
:40404000034A10600348FFF789FC08BD02487047642900083940001001001600082801D90E48704700B587B00023019302930393049305930192ADF80810094B1B681B6804
:4040800003EB40004388ADF80C3001A8FFF7E2FA00B1024807B05DF804FB00BF010016006429000881F0004102E000BF83F0004330B54FEA41044FEA430594EA050F08BFF4
:4040C00090EA020F1FBF54EA000C55EA020C7FEA645C7FEA655C00F0E2804FEA5454D4EB5555B8BF6D420CDD2C4480EA020281EA030382EA000083EA010180EA020281EABF
:404100000303362D88BF30BD11F0004F4FEA01314FF4801C4CEA113102D0404261EB410113F0004F4FEA03334CEA133302D0524263EB430394EA050F00F0A780A4F1010474
:40414000D5F1200E0DDB02FA0EFC22FA05F2801841F1000103FA0EF2801843FA05F359410EE0A5F120050EF1200E012A03FA0EFC28BF4CF0020C43FA05F3C01851EBE37145
:4041800001F0004507D54FF0000EDCF1000C7EEB00006EEB0101B1F5801F1BD3B1F5001F0CD349085FEA30004FEA3C0C04F101044FEA445212F5800F80F09A80BCF1004FFC
:4041C00008BF5FEA500C50F1000041EB045141EA050130BD5FEA4C0C404141EB0101013C28BFB1F5801FE9D291F0000F04BF01460020B1FA81F308BF2033A3F10B03B3F1C6
:4042000020020CDA0C3208DD02F1140CC2F10C0201FA0CF021FA02F10CE002F11402D8BFC2F1200C01FA02F120FA0CFCDCBF41EA0C019040E41AA2BF01EB0451294330BD63
:404240006FEA04041F3C1CDA0C340EDC04F11404C4F1200220FA04F001FA02F340EA030021FA04F345EA030130BDC4F10C04C4F1200220FA02F001FA04F340EA03002946EB
:4042800030BD21FA04F0294630BD94F0000F83F4801306BF81F480110134013D4EE77FEA645C18BF7FEA655C29D094EA050F08BF90EA020F05D054EA000C04BF19461046F8
:4042C00030BD91EA030F1EBF0021002030BD5FEA545C05D14000494128BF41F0004130BD14F580043CBF01F5801130BD01F0004545F0FE4141F470014FF0000030BD7FEA79
:40430000645C1ABF194610467FEA655C1CBF0B46024650EA013406BF52EA033591EA030F41F4002130BD00BF90F0000F04BF0021704730B54FF4806404F132044FF00005B5
:404340004FF0000150E700BF90F0000F04BF0021704730B54FF4806404F1320410F0004548BF40424FF000013EE700BF42004FEAE2014FEA31014FEA02701FBF12F07F439E
:4043800093F07F4F81F06051704732F07F4208BF704793F07F4F04BF41F40021704730B54FF4607401F0004521F000411CE700BF50EA010208BF704730B54FF000050AE03D
:4043C00050EA010208BF704730B511F0004502D5404261EB41014FF4806404F132045FEA915C3FF4D8AE4FF003025FEADC0C18BF03325FEADC0C18BF033202EBDC02C2F173
:40440000200300FA03FC20FA02F001FA03FE40EA0E0021FA02F11444BDE600BF70B54FF0FF0C4CF4E06C1CEA11541DBF1CEA135594EA0C0F95EA0C0F00F0DEF82C4481EAD4
:40444000030621EA4C5123EA4C5350EA013518BF52EA033541F4801143F4801338D0A0FB02CE4FF00005E1FB02E506F00042E0FB03E54FF00006E1FB03569CF0000F18BF33
:404480004EF0010EA4F1FF04B6F5007F64F5407404D25FEA4E0E6D4146EB060642EAC62141EA55514FEAC52040EA5E504FEACE2EB4F1FD0C88BFBCF5E06F1ED8BEF1004F82
:4044C00008BF5FEA500E50F1000041EB045170BD06F0004646EA010140EA020081EA0301B4EB5C04C2BFD4EB0C0541EA045170BD41F480114FF0000E013C00F3AB8014F1E6
:40450000360FDEBF002001F0004170BDC4F10004203C35DA0C341BDC04F11404C4F1200500FA05F320FA04F001FA05F240EA020001F0004221F0004110EBD37021FA04F6E2
:4045400042EB06015EEA430E08BF20EAD37070BDC4F10C04C4F1200500FA04F320FA05F001FA04F240EA020001F0004110EBD37041F100015EEA430E08BF20EAD37070BDF4
:40458000C4F1200500FA05F24EEA020E20FA04F301FA05F243EA020321FA04F001F0004121FA04F220EA020000EBD3705EEA430E08BF20EAD37070BD94F0000F0FD101F0E9
:4045C0000046400041EB010111F4801F08BF013CF7D041EA060195F0000F18BF704703F00046520043EB030313F4801F08BF013DF7D043EA0603704794EA0C0F0CEA13552F
:4046000018BF95EA0C0F0CD050EA410618BF52EA4306D1D181EA030101F000414FF0000070BD50EA410606BF1046194652EA430619D094EA0C0F02D150EA013613D195EAF8
:404640000C0F05D152EA03361CBF104619460AD181EA030101F0004141F0FE4141F470014FF0000070BD41F0FE4141F4780170BD70B54FF0FF0C4CF4E06C1CEA11541DBFB9
:404680001CEA135594EA0C0F95EA0C0F00F0A7F8A4EB050481EA030E52EA03354FEA013100F088804FEA03334FF0805545EA131343EA12634FEA022245EA111545EA10650F
:4046C0004FEA00260EF000419D4208BF964244F1FD0404F5407402D25B084FEA3202B61A65EB03055B084FEA32024FF480104FF4002CB6EB020E75EB030E22BFB61A75464F
:4047000040EA0C005B084FEA3202B6EB020E75EB030E22BFB61A754640EA5C005B084FEA3202B6EB020E75EB030E22BFB61A754640EA9C005B084FEA3202B6EB020E75EB5A
:40474000030E22BFB61A754640EADC0055EA060E18D04FEA051545EA16754FEA06164FEAC30343EA52734FEAC2025FEA1C1CC0D111F4801F0BD141EA00014FF000004FF0EF
:40478000004CB6E711F4801F04BF01430020B4F1FD0C88BFBCF5E06F3FF6AFAEB5EB030C04BFB6EB020C5FEA500C50F1000041EB045170BD0EF0004E4EEA113114EB5C04E4
:4047C000C2BFD4EB0C0541EA045170BD41F480114FF0000E013C90E645EA060E8DE60CEA135594EA0C0F08BF95EA0C0F3FF43BAF94EA0C0F0AD150EA01347FF434AF95EA12
:404800000C0F7FF425AF104619462CE795EA0C0F06D152EA03353FF4FDAE1046194622E750EA410618BF52EA43067FF4C5AE50EA41047FF40DAF52EA43057FF4EBAE12E7D3
:404840004A0011D212F5001211D20DD56FF47873B3EB62520ED44FEAC12343F0004343EA505323FA02F070474FF00000704750EA013002D14FF0FF3070474FF00000704733
:4048800053B94AB9002908BF00281CBF4FF0FF314FF0FF3000F074B9ADF1080C6DE904CE00F006F8DDF804E0DDE9022304B070472DE9F047089D04468E46002B4DD18A4200
:4048C000944669D9B2FA82F252B101FA02F3C2F1200120FA01F10CFA02FC41EA030E94404FEA1C48210CBEFBF8F61FFA8CF708FB16E341EA034306FB07F199420AD91CEB5D
:40490000030306F1FF3080F01F81994240F21C81023E63445B1AA4B2B3FBF8F008FB103344EA034400FB07F7A7420AD91CEB040400F1FF3380F00A81A74240F20781644451
:40494000023840EA0640E41B00261DB1D4400023C5E900433146BDE8F0878B4209D9002D00F0EF800026C5E9000130463146BDE8F087B3FA83F6002E4AD18B4202D38242F1
:4049800000F2F980841A61EB030301209E46002DE0D0C5E9004EDDE702B9FFDEB2FA82F2002A40F09280A1EB0C014FEA1C471FFA8CFE0126200CB1FBF7F307FB131140EAC5
:4049C00001410EFB03F0884208D91CEB010103F1FF3802D2884200F2CB804346091AA4B2B1FBF7F007FB101144EA01440EFB00FEA64508D91CEB040400F1FF3102D2A645D2
:404A000000F2BB800846A4EB0E0440EA03409CE7C6F12007B34022FA07FC4CEA030C20FA07F401FA06F31C43F9404FEA1C4900FA06F3B1FBF9F8200C1FFA8CFE09FB18116A
:404A400040EA014108FB0EF0884202FA06F20BD91CEB010108F1FF3A80F08880884240F28580A8F102086144091AA4B2B1FBF9F009FB101144EA014100FB0EFE8E4508D9CD
:404A80001CEB010100F1FF346CD28E456AD90238614440EA0840A0FB0294A1EB0E01A142C846A64656D353D05DB1B3EB080261EB0E0101FA07F722FA06F3F1401F43C5E9CF
:404AC000007100263146BDE8F087C2F12003D8400CFA02FC21FA03F3914001434FEA1C471FFA8CFEB3FBF7F007FB10360B0C43EA064300FB0EF69E4204FA02F408D91CEB10
:404B0000030300F1FF382FD29E422DD9023863449B1B89B2B3FBF7F607FB163341EA034106FB0EF38B4208D91CEB010106F1FF3816D28B4214D9023E6144C91A46EA004672
:404B400038E72E46284605E70646E3E61846F8E64B45A9D2B9EB020864EB0C0E0138A3E74646EAE7204694E74046D1E7D0467BE7023B614432E7304609E76444023842E7B2
:404B8000704700BF10B501390244904201D1002005E0037811F8014FA34201D0181B10BD0130F2E70A44914200F1FF3300D1704710B511F8014B03F8014F9142F9D110BD62
:404BC00002440346934200D1704703F8011BF9E710B50139034632B111F8014F03F8014B013A002CF7D11A440021934200D110BD03F8011BF9E70000F8B500BFF8BC08BC0B
:404C00009E467047F8B500BFF8BC08BC9E4670475FF800F0E9090008030000000100000001000000000000000503600004000000010000000000000001000000060460003C
:404C4000080000005428000851030010030000000000000000000000680000000000000000000000000000001212000000000000302E302E302E3030300000003132333441
:404C8000353600002B00000007000000180000000700000000000300000024000100002801000000070000000018000000000000020003280100020003000000002A00006B
:404CC000000000000300002A01000201030000000F000000CC030008040003280100020005000000012A0000000000000500012A010002010500000002000000D40300081E
:404D0000060003280100020007000000042A0000000000000700042A010002010700000008000000DC03000808000028010000000B00000001180000000000000900032852
:404D4000010020000B000000052A0000000000000A00052A000020010B00000004000000E40300080B00022901010A030B00000002000000EC0300080C0000280100000002
:404D80001E0000000A180000000000000D000328010002000E000000292A0000000000000E00292A010002010E00000015000000F40300080F000328010002001000000043
:404DC000242A0000000000001000242A010002011000000008000000FC030008110003280100020012000000252A0000000000001200252A01000201120000000A000000C3
:404E000004040008130003280100020014000000272A0000000000001400272A0100020114000000220000000C040008150003280100020016000000262A0000000000005C
:404E40001600262A01000201160000000900000014040008170003280100020018000000282A0000000000001800282A01000201180000000C0000001C04000819000328DC
:404E8000010002001A000000232A0000000000001A00232A010002011A00000008000000240400081B000328010002001C0000002A2A0000000000001C002A2A010002019E
:404EC0001C000000010000002C0400081D000328010002001E000000502A0000000000001E00502A010002011E00000007000000340400081F000028010000082400000005
:404F0000100000003C0400082000032801000400210000001000000044040008210031F40001040921000000140000004C04000822000328010010002400000010000000D5
:404F4000540400082300D9E70000100924000000010000005C0400082400022901010A0324000000020000006404000897F38E859F874C8B864F088C6D2F7ACB27C05FD555
:404F8000C0A3459BC444427531F4A6709DB307351CFDA6BF8048F5C1D9E70F3101000300050007000000000008000A000B0000000C000E00100012001400160018001A0067
:404FC0001C001E001F00210000002300240000002E2E2F4F6E657468696E785F43726561746F722E637964736E2F47656E6572617465645F536F757263652F50536F433652
:405000002F70646C2F647269766572732F7065726970686572616C2F6970632F63795F6970635F6472762E68000000002E2E2F4F6E657468696E785F43726561746F722EF1
:40504000637964736E2F47656E6572617465645F536F757263652F50536F43362F70646C2F647269766572732F7065726970686572616C2F6770696F2F63795F6770696FD8
:405080002E6300002E2E2F4F6E657468696E785F43726561746F722E637964736E2F47656E6572617465645F536F757263652F50536F43362F70646C2F6472697665727324
:4050C0002F7065726970686572616C2F6770696F2F63795F6770696F2E6800002E2E2F4F6E657468696E785F43726561746F722E637964736E2F47656E6572617465645F55
:40510000536F757263652F50536F43362F70646C2F647269766572732F7065726970686572616C2F6970632F63795F6970635F6472762E63000000002E2E2F4F6E65746876
:40514000696E785F43726561746F722E637964736E2F47656E6572617465645F536F757263652F50536F43362F70646C2F647269766572732F7065726970686572616C2FF3
:405180006970632F63795F6970635F706970652E630000002E2E2F4F6E657468696E785F43726561746F722E637964736E2F47656E6572617465645F536F757263652F500C
:4051C000536F43362F70646C2F647269766572732F7065726970686572616C2F70726F742F63795F70726F742E6300002E2E2F4F6E657468696E785F43726561746F722E93
:40520000637964736E2F47656E6572617465645F536F757263652F50536F43362F70646C2F647269766572732F7065726970686572616C2F737973636C6B2F63795F7379EF
:4052400073636C6B2E6300002E2E2F4F6E657468696E785F43726561746F722E637964736E2F47656E6572617465645F536F757263652F50536F43362F70646C2F64726975
:40528000766572732F7065726970686572616C2F737973636C6B2F63795F737973636C6B2E6800002E2E2F4F6E657468696E785F43726561746F722E637964736E2F476541
:4052C0006E6572617465645F536F757263652F50536F43362F70646C2F647269766572732F7065726970686572616C2F737973696E742F63795F737973696E742E630000CB
:405300002E2E2F4F6E657468696E785F43726561746F722E637964736E2F47656E6572617465645F536F757263652F50536F43362F70646C2F647269766572732F706572BC
:405340006970686572616C2F737973706D2F63795F737973706D2E63000000000000204000002440000000400000000000002340000030400000314000009F40000022401D
:405380000000104002020202020202020210101D800017007500FF030602063604102000000000007FC0000000040000000000000019324B647D00804000080B100000002B
:4053C0000000FF012002001F00800004FF081018001000140018001C4044484C50000000081000000800000004000000041000000012000004210000002100000016000053
:4054000040114002C41300138013A013200000001C0000000000214000002540000001400000344000002440000031400000324000001F4100002340000011400101010193
:405440000101010101101010800019005500F0000501053B04101C01010000000FC000000004000001010101011D3A57789600082000101208000000001F00000010000F7D
:40548000002000023F06080E00080009000A000B24282C3034000000100000009000000088000000080000008000000004F0000000F00000400200002005A000D001000100
:4054C0008001A001200000001000000000000000000000000000000066666666000000000000FFFF000000001C1C1C1C1C1C1C1C00000000000000000000000066E6EE6644
:40550000000000000000FFFF000000001C1A1A1A1A1A000000000000000000000000000066E66666000000000000FFFF000000001A1A001C00000000240003003000010011
:405540002800020024000200100001002E2E2F4F6E657468696E785F43726561746F722E637964736E2F47656E6572617465645F536F757263652F50536F43362F70646CBD
:405580002F6D6964646C65776172652F626C652F63795F626C655F68616C5F7076742E630000000000316253C4F5A697B988DBEA7D4C1F2E4372211087B6E5D4FACB98A9E7
:4055C0003E0F5C6D86B7E4D5427320113F0E5D6CFBCA99A8C5F4A796013063527C4D1E2FB889DAEB3D0C5F6EF9C89BAA84B5E6D7407122137E4F1C2DBA8BD8E9C7F6A5949B
:4056000003326150BB8AD9E87F4E1D2C02336051C6F7A495F8C99AAB3C0D5E6F4170231285B4E7D67A4B1829BE8FDCEDC3F2A1900736655439085B6AFDCC9FAE80B1E2D39A
:4056400044752617FCCD9EAF38095A6B4574271681B0E3D2BF8EDDEC7B4A192806376455C2F3A0914776251483B2E1D0FECF9CAD3A0B586904356657C0F1A293BD8CDFEE5A
:4056800079481B2AC1F0A3920534675678491A2BBC8DDEEF82B3E0D1467724153B0A5968FFCE9DAC2E2E2F4F6E657468696E785F43726561746F722E637964736E2F4765C3
:4056C0006E6572617465645F536F757263652F50536F43362F70646C2F6D6964646C65776172652F626C652F63795F626C655F6761702E68000000003F0000000000000016
:40570000FFFF0000319C0010C5A00010C5A00010C5A00010C5A000105D86001031870010C5A00010C5A00010C5A00010C5A00010C5A00010C5A00010C5A00010C5A0001057
:40574000C5A00010C5A00010599E0010A59E0010DD940010E1960010BD9A00105175001000000000885B0010285B0010080000002111011000000000E05900102C590010F1
:405780000F00000000000000000000000000000000000000000000000120000071AD001006200000B5AE00100720000085AD00100820000075AE00100920000075AF0010D1
:4057C0000A20000071AC00100B20000039AF00100C20000001AF001010200000CDAC0010112000004DAC00101220000051AE001014200000EDAE001015200000E5AC00105A
:4058000017200000A1AC00100E200000D1AC0010ACFD000047B10010ADFD00003BB00010A0FD0000B1B10010A1FD00009BB00010A2FD0000D7B00010A5FD0000A7B200107A
:40584000A6FD00000BB20010A8FD00000DB00010A9FD0000E3AF0010AAFD0000FFB00010ABFD00006DB20010AFFD0000FDB00010C3FD000059B20010B0FD0000D1B100103E
:40588000B2FD00001FB20010051400002BAD00102D0C000005AE00107B0C0000B3AD00107C0C0000A9AF001027200F2028201020292010202B200A202C200B202D200D20A7
:4058C0002E200C204E201720000001000100000100010202030002000000000002020100020000010001000501000502020300020000000000020501000500002D0901100B
:40590000950A01109D09011001010B0102028102820503040403840906090709080909090A09050A0C0B0D0D0E0E0000010000000100000000000000020000000400000090
:4059400002000000030000000700000005000000040000000A00000008000000050000000C0000000B000000060000000E0000000D00000007000000100000000F0000009D
:405980000800000013000000110000000900000016000000140000000A0000001700000017000000FF00000018000000180000000B0000001B000000190000000C000000D6
:4059C0001D0000001C0000000D0000001F0000001E0000000E0000002100000020000000010000006D2F0110FEFFFFFF392E0110010000006D2F011006000000313101108D
:405A0000F8FFFFFF392E011018001200552E0110A000000CAD2B011047FFEDFB392E0110E8000C00A52D011000012000B52C01101FFED3FF392E0110A000000CCD350110F0
:405A40005FFFFFFB392E01100002000025340110FFFDFFFF392E0110000C0000B52A0110FFF3FFFF392E0110000A0000592D011001000000792D0110FEF7FFFF392E011050
:405A800000200000F92B011000400000D5340110FF9FFFFF392E0110FFFFFFFF3F2E0110FFFFFFFFAF2A011000800000912A011000000100732A0110FF7FFEFF392E0110D5
:405AC00000800100372A0110FF7FFEFF392E011000008003192A0110FFFF7FFC392E011000801F0A552A0110FF7FE0F5392E011000000000000000000000000000000000F4
:405B000087000000000000000000000000000000000404000104080002041400030C200004042C0005064800810000000000000000000000820000000100000001000000F4
:405B4000010000000200000002000000020000000400000003000000030000000600000005000000F10000000700000007000000F20000000900000008000000FF00000008
:405B80000A0000000A000000020000005D3A0110010000005D3A01100E0000005139011002000000953901100C0000003939011002000000D53901100C00000039390110B5
:405BC0000E0000005D3A01100C000000993A011002000000393901100E000000DD3A0110F401FA00960064004B0032001E00140003040506020D110037BE011085BD011021
:405C00009BC4011011BF0110BBBF01104BC4011061C4011035C5011025C00110D5C0011011C301103FC3011087C5011041C4011017C5011017C5011017C50110E5C30110A0
:405C40008DC30110D1C30110AD010210B9010210D1110210C1120210CD1202100FBF011035BE0110F1C40110B9BF0110E7BF011059C4011077C4011085C50110D1C0011068
:405C800071C101102BC3011063C30110FFC5011047C4011085C5011085C5011085C501103DC4011085C5011085C5011085C5011085C5011085C5011085C5011085C50110DA
:405CC0000C000800020017000D00010001000200090009000100010006000200090018001800030001000100090009000300030005000000D7DE0110DFDE0110DBDE011091
:405D0000D5DE0110AFDE0110ABDE0110CDDE0110CBDE0110A3DE0110A7DE0110E3DE0110CFDE0110C9DE0110E7DE0110E7DE0110A1DE0110D3DE011079F801107DFC011077
:405D400021FA01108DF7011049E9011081E5011079F1011075EC011021E001108DE00110CDFD011085F5011005EC0110F5E40110FDF00110A143011049F6011089FE0110FE
:405D800039020210A90302108104021061000210D9FE0110C5010210BDFF0110FFFF01100D0002100F0002101300021017C501100100021009000210070002104916021028
:405DC000A90F02108515021029150210F9150210D9120210DD110210791202103D13021035A20110D5150210CD0F0210C10F0210C70F0210C50F0210CB0F0210C30F02106F
:405E000017C5011017C5011017C5011019910110C90F0210B52802109F2802109F2802109F280210D1280210D57E02109F280210CD7E0210D97E0210D17E0210EB2C0210E3
:405E4000E72C02106F2C02106B2C0210AB2802109B28021095280210AF280210672C02107F2C0210A72802107B2C0210CD2C02109F280210832C0210772C0210732C02102E
:405E80009F280210D5280210D9280210DD280210A3280210A3280210BD420210394102103941021039410210E342021075420210394102105B420210274302106F420210E7
:405EC000F7420210ED420210A94002103941021039410210394102101F400210454202103F400210CF420210D1410210E541021053410210394102103B43021089410210BF
:405F000075410210394102102B4202107B430210394102103941021039410210DF450210174502101745021017450210034602108B45021017450210D1450210D14502109F
:405F40007D45021019460210074602109D440210994402106B4502103744021029440210294402103B440210E345021043450210554502101B4502101745021049460210BC
:405F8000314502101F450210174502106F450210634602105F460210174502101745021008000000060F0020200107021900000007070E05020220001C1202000103000E5A
:405FC000032000800000C000000000040000002822000000000000040000F7FFFF7F00000030000000000080000000000000000000000000000000000000000000000000C8
:4060000000000000ED480210F5490210A149021051490210034A0210BD49021021490210114A0210AD4902104F490210154A0210B949021039490210034A0210B549021087
:4060400023490210034A0210B1490210674902101F4A0210C14902106D4902102D4A0210C54902103941021017450210A32802103941021017450210A32802103941021033
:4060800017450210A32802103941021017450210A32802103941021017450210A32802103941021017450210A32802103941021017450210A328021039410210174502103F
:4060C000A328021081490210414A0210C94902103941021017450210A32802103941021017450210A32802103941021017450210A32802103941021017450210A3280210CA
:406100003941021017450210A3280210794A0210894B02103B4B0210774A02107F4B0210374B0210AB4A0210B94B02103F4B0210754A0210754B0210334B0210394102107A
:4061400017450210A32802103941021017450210A32802103941021017450210A32802103941021017450210A32802103941021017450210A32802101D4C0210AB4C0210F4
:4061800000000000314C0210BD4C0210211402103F4C0210E34C021059140210FD4B02106F4C0210BD1002100B4C02108D4C0210DD10021026002B00300036003C00430002
:4061C0004B0055005F006A00770086009600A800BD00D400EE000B012B014F017801A601DA01130254029D02EE024A03B1032404A5043605D9058F065C0742084409650A16
:40620000AA0B160DAF0E79107C12BD1445171C1A4B1DDE203030303142383030303130323033303430353036303730383039304130423043304430453046313031313132E6
:4062400031333134313531363137313831393141314231433144314531463230323132323233323432353236323732383239324132423243324432453246333033313332A4
:406280003333333433353336333733383339334133423343334433454142007C010000310100000B0B01120C000000FF03000080ABCDABCD80409C1B04041BFFFFFFFF0042
:4062C0000000000410080007070400F216FBE0FBE01F60427EF56D720196BE2090000010502604060037D700000000002DE9F84F00250746ADF80050041D00F1180A40685C
:40630000DFF8F0804FF6FF7B98B1616889B180070FD1207A80070CD19AF8300048B1FDF759F8FCF7CFFFFDF777F80DF091FC10B15BE045465BE097F84400C0F3C0100DF0E3
:40634000FDFC05460004000C4FD12B49084621F077FE0604360C48D1A27A2189206821F02DFE68460EF0D8FA0500A07A00F1060000F0FF092AD14946606800F063F8050044
:4063800024D1504600F012FC05001FD1E06820B1384600F01FFA050018D11848184ABDF8003090F8241009EB8100001DC1B29088D288D618B04207D3C01A801A80B222F085
:4063C00085F9060006D000E05E4645460EF068F836B10AE0A07A801DC0B20BF09DFCF5E700F012F80749012008700DF043FC2846BDE8F88F010016003D800210582D000840
:406400009C360008080800081CB50024142001908DF800402346064A6946064821F064FD04480068401C01D14FF6FF7420461CBD816500100C08000801480089704700004F
:406440009C3600082DE9F84F05460C460020890000908A46684621F093FD07004BD12748009B0022036017E003F82220062A08D2234803EB820100EB820046784E70408873
:4064800007E005EB8200183803EB820186784E700088521C4880D2B2A242E5D300251EE005F1010909F0FF0015E003EB850203EB8001B2F802C04E88B4450AD991F801800C
:4064C000A1F802C092F801C081F801C0568082F80180401CC0B2A042E7D309F0FF05A542DED347B95146684621F04AFD070002D10449009808603846BDE8F88F000700086F
:40650000105B0010040700080EB50C4A0146002312684FF6FF7004290DD009290AD109200093ADF80800ADF80A306946104621F0D8FC80B20EBD04200093F2E70C0800082A
:40654000F0B5002319E05A1C00EB830612E030F8235030F82240A5420BD2778820F8234000EB8204B4F802C0A6F802C020F822506780521C8A42EAD35B1C8B42E3D3F0BDCD
:4065800010B5D0E90014428900890C2820D2DFE800F01F060E0E120A1F161F1F1F1A00201BF0E4FD14E008460DF0FAFE10E0E0B208F074FC0CE000200BF04CF808E008782F
:4065C000FCF76EFF04E00846022C03D008F098FA002010BD02F016FEFAE710B50EF05AFA0446022802D100F085FA00B90124204610BD00007CB506004FF00000ADF80000B1
:406600008DF8040006F1040408D030460EF032FA054668460EF074F915B13EE020487CBD2089BDF80010401A2081304600F03AFB050010D1A17A01AA606800F00DFB0500FC
:4066400009D1E06838B1B6F84400000903D0304600F020F905462089BDF8001008442081DDB90EF000F93046FFF740FE050014D130460EF077F905000FD1FCF73DFE0328D9
:4066800003D10DF091FF0DF0DBFF304600F0FEF90546A17A6068FFF753FF28467CBD00000100160038B504004FF00000ADF8000008D0A18D090A05D1617A102902D8E17905
:4066C000102901D90F4838BDE085694620460EF095F90500E08DBDF800100844E0850FD16946204600F012FA0500E08DBDF800100844E08504D1322221460348FEF752FA58
:40670000284638BD01001600A83600082DE9F0411F4F0026386D60B1796D51B14218891E12F8024C0022FCF773FD844201D0194E2BE0002505EB850307EB8304606800B308
:4067400057F82310E9B16289D7F854C0624518D294F80CC01CF0090F02D0FEF723FA0AE009780170606831B1628957F82310083A08310830F1E723691BB10122207B114653
:4067800098476D1CADB2042DD4D33046BDE8F08168290008FFFF1600F0B5C10701D040F008000B4CFF2184F85D10002101250E4601EB810204EB820205FA01F3177B0340E6
:4067C0009F4200D11681491CC9B20429F0D3F0BD6829000870B5134908B3B0F84410124CC1F30711002584F85C10016921654069C4E91505FF2684F85D6028464FF6FF73E8
:4068000000EB800204EB8201401C4B8144F822500D610E73C0B20D810428F1D30021084670BD0000010016006829000810B5174B48B3417839B3002202E04908521CD2B26A
:406840000029FAD102EB8201114A02EB810111F8084CFF2C17D103787BB1438821F80A3C946D136D234441F8143C4488936D2344936582680AB141F8042C103942780A7280
:40688000406800230860184610BD00000100160068290008F0B5B0F84420234C46690021C2F30712D2B3D3070BD090F8203003EBC30505EB431501EB850101EB031101F198
:4068C0004001530715D5C37F2C2513FB05F55FEA857C4FF00C0723D003EB430505EBC30307EB830505F00305C5EB830505F11005294492070ED590F821004FF00803C200A5
:4069000095070FD003EBC00202F00302C2EBC0020C321144891C8E4200D300242046F0BD0C35E5E70832F4E70100160082880168807908F0B3BA7047024800214160018066
:4069400041807047AC0500082DE9FF410C460021164642F205070291012802D0022857D116E0002202A901201EF044FC01283DD1029D324621462846FEF714F901208DF8A4
:4069800006000095ADF804606846FCF77FFC3FE0204D012B68681ED040B3298808442146FEF700F928880024304481B229806888021D91420CD12C80696800914FF0020129
:4069C0008DF80610ADF804006846FCF75FFC00E01ED96C601CE00390208803A9C0F30B024FF002001EF006FC012803D0384604B0BDE8F0810398686061886980A17881703D
:406A0000E178C1706178417021780170042028800020ECE7AC05000810B5124802F00CFC68B9114802F000F848B911490F480860084600F085FA10B90E4809F05BF90400FC
:406A40000ED1FFF763FE0404240C04D0002141F2050000F089F900214FF4805000F084F9204610BDE18100108F8500103DBC0010BC0500080DB7001010B504F03BFC03F016
:406A800071FDBDE8104004F0C7BC000070B50546041D00F1180600F0ADF9144829680160616809888180A17A03290FD361688979017261684989C1F3470141726168898991
:406AC000C180B179817296F83010C1726168098A818100F091F8002806D100F0A5F8002802D1034A0121117070BD0000C8290008B405000810B502F079F9012803D121F0CB
:406B000097FA012800D0002010BD00002DE9F0411C4D0C46060005D0DFF86C8098F8000018B16D1C2846BDE8F081B08D08F02EFB308808F031FB0500F4D130460AF012F85A
:406B40000746304603F0A8FB0744304601F00AF8384400F634102080304605F0C2FC21880844208096F83010C1EBC10100EBC1002080304601F0EEFB218808442080A8F8E7
:406B80000400CFE701001600B405000810B505F043FC03F08FFB00F0B5FF0AF010F801F095FBBDE8104008F0C3BA000010B5040010481DD0204608F0C3FA002818D120469C
:406BC00001F092FB002813D120460AF003F800280ED1204600F09EFF002809D1204603F06FFB002804D12046BDE8104005F020BC10BD000001001600094810B50949C07A42
:406C0000887000F063FF064801F0AEFB002806D103F068FBBDE81040014805F043BC10BDC8290008B405000810B500220849094800F014FF10F0FF0008D0002204490548F5
:406C400000F00CFFBDE8104004F05ABF10BD0000196A001021AA0010F0B5002635461670334616E030F82340082C0AD900EB83077F8837B1083C20F823401478641C14704C
:406C800005E053B100EB830420F8235065805B1CDBB28B42E6D33046F0BD014EFBE7000001001600F0B52E4C031D0020A188247802460CB12B48F0BD2A4D1C68083D4CB18E
:406CC0001F898F4206D3596821B100244FF0020C9E7A39E02846F0BD0CEB8203CB5A03B331F822E0BEF1000F2AD00EFB03439CB2052A32D2DFE802F0030C11161E00B1F832
:406D000000E08B78BEF1230FE4D3032BE2D317E08B8833B1302BDDD312E00B890BB1282BD8D30DE08B895BB1233B4FF6BA7E7345D0D205E00B8A002BCCD04B8A012BC9D19E
:406D40000028C8D1521CD2B29642C5D8C6EBC60104EB81018F42BDD3F0BD0020F2E70000B405000809001600034A1268002A02D0002800D010477047C829000870B50446EA
:406D800005F0ADFB01F0FCFB00F048FE174D012C16D0022C29D11648046800F02BF821F0D3F8FFF7F3FEFFF767FE00202870002C1BD0A446BDE87040002143F21200604761
:406DC00021F00EF9848DFFF717FF38B9FFF72CFF20B901202870204608F0D8F9BDE87040002143F20100FFF7BFBF70BDB4050008C829000803480021016041608160C16014
:406E000070470000C829000801464FF6C05007F01BBD000008B504218DF8001010B100788DF803000549487808B1401E4870694641F20100FFF798FF08BD0000B40500082C
:406E4000064910B509780448002903D00220FFF7DBFF002010BD000002001600B405000838B503000B4810D0597800290DD00A4C084D60786D1C042806D201200090074A71
:406E8000184608F0EBFC08B1284638BD6178491C617038BD01001600B4050008156E001030B50C46054600F00DF8002806D1044A6978126802EB0111C988218030BD00000D
:406EC000C00500080B4B024642F6137051781B7899420DD2084B1B6803EB01110B7A6FEA03039B0704D4127809788A4200D1002070470000B6050008C005000810B50A49FB
:406F00000A4B027809781B68491EC9B203EB01142478A24202D14170002010BD0029F3D14FF6FF7010BD0000B6050008C00500080249096801EB0010807B7047C005000873
:406F400042F6117138B1006828B105490A6822B142F61470704708467047086000207047C40500082DE9F74F84B0154604980E4660B1152E05D01E2E0BD9D22E09D0522E85
:406F800007D042F6127007B0BDE8F08F42F61170F9E700200390049890F80180FF208DF808000498FFF78EFF07002ED1DFF810A542F6147B1B2E0CD01D2E0AD0F0070BD034
:406FC000012E06D0DAF8001001EB0810007BB0421AD1F00703D00FE01E2EF3D0F9E71E2E14D0DAF8001001EB0810407B20B1522E0CD0D22E08D109E01D2E07D1DAF80010E1
:4070000001EB0810407B08B15F46D8E0012E20D0DAF8001001EB0810C088001D0AF056FE040018D002214FF0010942F616700F2E77D013DC4FF005024FF0030729D2DFE8E9
:4070400006F0282BFD4AFC56FB73FA82F991F887F7000920E2E742F60577B0E0182E71D009DCA6F11002082A13D2DFE802F0E9B7FFEA1212EDED1E2E7ED006DC192E7BD094
:407080001B2E01D01D2E04D1F0E0522E75D0D22E74D042F612778FE0E87804280BD0DAF80070AB7807EB0811097B491E8B4208D006280ED105E0DAF8001001EB0810007BD3
:4070C00038B1A87860712888A071000AE071E878F7E05F4670E02988172901D207466BE0ADF8067028886071000AA07148E02879012817D01027ADF8061028796071EA88AC
:40710000BDF80630BF1C201D7A4318442968FDF749FDBDF80600E98807FB0100ADF806002EE050E00227E6E7ADF80690A88829688200601DFDF736FDBDF80600A98800EB61
:407140008100EBE7ADE1ADF80610A888801C5CE0286808B1A88828B9012003900020ADF806900090434601222146284600F0CEFB070026D0039802E063E077E055E1D8B165
:40718000267100208DF80A008DF80960304600F07BFA04998DF808006A460988ADF80410BDF806100094091DADF806100146002002F0A2FF070002D020460AF0A7FD384607
:4071C000E1E6E8887AE1ADF80690AA88601D2968FDF7E8FCBDF80600A988AFE0EA88002A3FF47CAFAA88002AFAD0DAF8007007EB0813DB885B1E9A42BFF670AF2A68002A78
:40720000EED0ADF80610A888001DA8806071AA88E888BDF806304243201D18442968FDF7C1FCBDF80600A988EA8801FB020075E7C9E0ADE0A3E083E047E033E021E003E0B0
