:020000041000EA
:4000000000F00308CF0200100D00000035030010350300103503001035030010000000000000000000000000000000003103001031030010000000003103001031030010A7
:400040003103001031030010310300103103001031030010310300103103001031030010310300103103001031030010310300103103001031030010310300103103001040
:400080003103001031030010310300103103001031030010310300103103001031030010310300103103001031030010310300103103001031030010310300103103001000
:4000C00031030010310300103103001031030010310300103103001031030010310300103103001031030010310300103103001031030010310300103103001031030010C0
:40010000310300103103001031030010310300103103001031030010310300103103001031030010310300103103001031030010310300103103001031030010310300107F
:40014000310300103103001031030010310300103103001031030010310300103103001031030010310300103103001031030010310300103103001031030010310300103F
:4001800031030010310300103103001031030010310300103103001031030010310300103103001031030010310300103103001031030010310300103103001031030010FF
:4001C00031030010310300103103001031030010310300103103001031030010310300103103001031030010310300103103001031030010310300103103001031030010BF
:40020000310300103103001031030010310300103103001031030010310300103103001031030010310300103103001031030010310300103103001031030010310300107E
:40024000310300103103001031030010310300103103001031030010310300103103001031030010310300103103001031030010310300103103001031030010310300103E
:4002800031030010310300103103001010B5054C237833B9044B13B10448AFF300800123237010BD90350008000000008091001008B5034B1BB103490348AFF3008008BD8D
:4002C0000000000094350008809100107047FFF7FDFF72B6104C114DAC4209DA21686268A368043BA2BFC858D050FAE70C34F3E70B490C4A00209142BCBF41F8040BFAE736
:4003000009480A490860BFF34F8F00F015F900F0EFF800F095FEFEE7B4B90210CCB9021090350008404700080000000808ED00E0FEE7FEE700B504207146084202D0EFF33D
:40034000098001E0EFF30880043002F0DDF9FEE708B5012001F0ACFF08BD00005D4BD3F8802302F00F0202F1D00153F8213003F00703042B17D8DFE803F0031616050800FF
:40038000554B11E0554B1B680EE002F1C003514951F8233003F01F03112B1DD0132B1ED14FF4004300E04E4BB2BB4A4AD2F8900500F00100D2F88815C1F30171D2F88825F0
:4003C00012F0405F0ED0434AD2F88825C2F30172012A08D0002206E04FF40043E4E74FF4FA43E1E7012202B108B9032916D13949D1F88005C0F31100D1F88425C2F30C023B
:40040000D1F88015C1F300610131B3FBF2F300FB03F3B3FBF1F301E0012A2BD02D4AD2F88023C2F30112D3402C4A53602D49D1F89000C0F3072001300969090E0131B3FBCF
:40044000F1F19160B3FBF0F3D360136103F5742101F23F212448A0FB0101C1F38741117503F2E7332149A1FB03139B099361DB03D3617047174AD2F8400600F00100D2F8CE
:400480000016C1F30171D2F8002612F0405F08D0104AD2F80026C2F30172012A02D0002200E0012202B108B90329B7D10949D1F8002602F07F02D1F80006C0F30420D1F8B8
:4004C0000016C1F3044102FB03F3B3FBF0F3B3FBF1F3A3E70000264000127A008C02000800366E010000214083DE1B43D34D621008B50D4802F0BEFD00F076FAFFF72EFF2C
:4005000000221146042001F0C3FB084801F046FD074B1B6893F8513013B900F06DFF08BD044801F07DFDF8E7647D0010AC35000814380008C86F001008B502F0AAF9074A6F
:40054000D2F8883043F47003C2F88830BFF34F8FBFF36F8F02F0A1F908BD00BF00ED00E0074BD3F8800110F0010007D11A46D3F80C3523F00043C2F80C35704701487047D5
:400580000000264003004A00084B1B6893F83E30834209D9064AE03052F8203043F0004342F820300020704702487047143800080000264001004A000C4B1B6893F83E3068
:4005C00083420ED90F290ED8094AE03052F8203023F00F0301F00F01194342F8201000207047044870470348704700BF143800080000264001004A000C4B1B6893F83E30D5
:4006000083420FD903290FD8094AE03052F8203023F03003090101F03001194342F82010002070470348704702487047143800080000264001004A00054B1A681168D2F8D1
:4006400088208B5823F47F4343EA00238B50704714380008054B1A681168D2F884208B5823F07F4343EA00638B5070471438000830B4022804D003282DD02E4830BC7047D6
:4006800003294BD8B2F5803F4AD21F2B4AD82A4C2568A868B5F878C084445CF8210020F47F0020F47F40120222F07F4222F0FF0210434CF8210022689068B2F87820104498
:4006C00050F8212022F0F802DB00DBB2134340F821300020D2E739BBB2F1807F26D21F2B26D8154C2568A868B5F87AC084445CF82100C0B240EA02224CF821202268906886
:40070000B2F87A20104450F8212022F0F802DB00DBB2134340F821300846AFE70548ADE70448ABE70348A9E70248A7E70148A5E70048A3E701004A00143800081B4B1B68C0
:4007400093F83FC084452BD903292BD809B9072A0ED9012905D0022906D0032907D0144870470F2A04D9F6E7032A01D9F5E7DAB900B593F871E001FA0EF14FF0030C0CFABB
:400780000EFC01EA0C0193F870C00CEA02029B68114300F5407043F8201000205DF804FB0348704702487047014870471438000801004A00032836D808B907290ED90128CB
:4007C00005D0022806D0032807D0194870470F2904D9F6E7032901D9F5E731BB10B5154B1A6892F873304FF0030E0EFA03F392F870C092F872400CFA04F4234392F8714093
:40080000A0400EFA04FE00EA0E0018430CEA01019368084340F00040C3F800049368D3F80034002010BD024870470148704700BF01004A0014380008054B1A681168D2F8B3
:4008400084208B5823F47F4343EA00238B50704714380008034AD2F8003543F40043C2F80035704700002640024B034AC3F8002E704700BF00001F410100118010B5044616
:4008800003280AD8084BD3F8000520F0030004F003040443C3F8004510BD40F64A11034801F01AFFEEE700BF00002640FC6F001010B504460F280BD8084AD2F8003523F4FA
:4008C0007063240204F470641C43C2F8004510BD40F64921024801F0FFFEEDE700002640FC6F001010B5044604280BD8084AD2F8003523F4E043240304F4E0441C43C2F876
:40090000004510BD40F66F21024801F0E5FEEDE700002640FC6F001010B50446012809D8074A136823F44073240204F440741C43146010BD40F6D221024801F0CDFEEFE7E6
:4009400000002740FC6F001008B50120FFF796FF0020FFF771FE0020FFF77CFE0020FFF76BFF00210846FFF727FE00210846FFF743FE0020FFF708FE0021012001F0CCFC50
:400980000021022001F0C8FC0021032001F0C4FC0021042001F0C0FC0021084601F0BCFC0020FFF785FF0020FFF79CFFFFF752FF0020FFF7B1FF002002F040FBFFF7D0FDD8
:4009C0000821002001F0F2FE002202210846FFF7B5FE0B23042200210220FFF749FE00210220FFF7E7FE08BD30B58FB040F2DC5001F04EFE9621002001F0D8FE34252A46B4
:400A0000002101A805F02AFA1F4C01AA0021204600F0DEFE2A46002101A805F01FFA01AA0121204600F0D4FEFFF78EFF24252A46002101A805F012FA4FF40023049301A97F
:400A4000204600F0B9FF0DF1040C104C0FCCACE80F000FCCACE80F002368CCF8003001A90B4800F0A9FF2A46002101A805F0F6F94FF4CC03049301A9064800F09DFFFFF7AD
:400A8000F3FE0FB030BD00BF00003240587000108004324000063240014B1878704700BF3038000870B582B043F20603984200F08F800C4628D944F2100398426FD945F2FD
:400AC000170398426FD8B0F5A04F6CD9A0F5A043013B162B67D8DFE813F0BF00D400DF0066006600660066006600660066006600E7006600120166006600660066006600E4
:400B00006600660066000E0142F2160398423AD8B0F5005F11D3A0F50053162B43D8DFE803F04B4242424F424242426C42424242424242424293428F970041F20103984223
:400B400036D041F20203984204D10978804805F08DF909E0B0F5805F25D17E4805F00CFA0021084603F030FE02B070BDA0F58043063B0A2B17D8DFE803F02F4448165E1675
:400B8000161616163C0043F2020398421CD043F20303984207D1704805F0EEF9E4E744F206039842E2D201466C4805F05FF9DBE76B4805F0E1F9D7E76A4805F0DDF9D3E707
:400BC000694805F0D9F9CFE7684805F0D5F9CBE7674805F0D1F9C7E7FFF75EFF0146654805F044F9FFF758FF0028BDD100F0E0FABAE7614805F0C0F9B6E7604805F0BCF959
:400C0000B2E75F4805F0B8F9AEE72378A27861785C4805F02BF90021084603F0D5FD5A4B186018B9594805F0A7F99DE70146584805F01CF998E76188564805F017F993E79C
:400C4000554805F099F98FE7544805F095F98BE7534805F091F987E72388ADF804309DF8044022469DF805104E4805F0FFF8464BBDF804201A8221229A8120460DF0CAFA45
:400C800072E72388ADF804309DF804209DF80510454805F0EBF867E76188F82928BFF821424805F0E3F85FE72289217B404805F0DDF82389222B7FF457AF04F10C0521461F
:400CC000284603F00FFFE0680FF068FD58B1394805F052F92121284603F072FF38B1364805F04AF940E7354805F046F9F2E7344805F042F938E7334805F03EF934E7238972
:400D0000242B7FF431AF26682579324629462E4805F0ACF8002405E0315D2C4805F0A6F80134E4B26B1E9C42F6DB294B195D294805F09CF8002304E0F15C254AD15401334E
:400D4000DBB2AB42F8D3224B83F8F3500CE700BFC47000107C7000102071001088740010A4700010B0700010E070001000710010487100106C7100109C710010C07100101B
:400D8000D8710010F07100102C370008307200104C72001080720010B8720010CC720010E0720010F8720010147300103473001064730010A0730010E0730010C473001016
:400DC000FC7300101C7400105074001078740010AC0200088074001000B585B0184800F0C9F9184B1860C8B10146174805F03EF8164B1B6B164A10681860918892799980B5
:400E00009A7102A82AF04EF901460E4B186048B1104805F02BF805B05DF804FB0E4805F0ABF8E5E7BDF80C3000939DF80A309DF809209DF80810094805F018F8EBE700BFB3
:400E4000A50A00102C370008A07400101C0400088C750010DC740010C07400101075001010B5174C174B636093F8F3302381211D04F1100003F0B4FE2060D0B9114A92F83D
:400E8000F310114804F0F2FF002406E00D4B195D0E4804F0EBFF0134E4B20A4B93F8F330013B9C42F2DB074B195D094804F0DEFF10BD0146024B9A89064804F0D7FFF7E7CC
:400EC0002C370008AC0200082C75001078740010807400104C750010D0F840037047D0F80803C0F30800704708B5FFF7F5FF08BD08B5FFF7F4FF08BD014B1878704700BF1F
:400F0000303800080020034603B17047034AD25C012A01D90130C0B20133F5E73438000870B506460C461546072907D8012D0BD885B9012101FA04F4746070BD40F22731AA
:400F4000074801F0C9FBF1E74FF44A71044801F0C3FBEDE7012101FA04F4B460EDE700BF9475001038B505460C46082904D82869E04000F0010038BD40F20931014801F01F
:400F8000ABFBF4E79475001038B505460C46072904D8012101FA04F4EC6038BD40F29D31014801F099FBF4E79475001010B5FFF7A3FF02280ED0FFF7A5FFB0B9114C012201
:400FC00005212046FFF7ACFF002204212046FFF7A7FF10BD0B4C002205212046FFF7A0FF04212046FFF7D0FFF3E7064C002205212046FFF795FF002204212046FFF790FF2E
:40100000E7E700BF0006324070B5054614460E4601B122B940F27351044801F05DFB22463146284602F09CF870BD00BFEC75001008B50248FFF7E8FF08BD00BF000063403A
:4010400008B562B600F070F8FFF7C6FE012204212148FFF765FF24E0204B00221A6002E01E4B64229A601E48FFF742FF68B11B4B1B79EF2BF4D81A48FFF736FF174A137998
:40108000591C1171174AD054EAE7144B9B6823B1591E124A9160012B14D0FFF787FFFFF785FF2AF00FF804210F48FFF75BFF0028D2D00A4A136801331360052BD3D1FFF7EC
:4010C000CFFED0E714461279064B83F8F320FFF7C7FE00232371E0E7000632404037000800006340AC02000800003240002807DB00F01F02400901239340024A42F820307C
:40110000704700BF00E100E0036843F0004303607047000008B50249024802F0B4FB08BD543700080000634010B50D4B93F8383043B10C4BB3F90000FFF7D8FF0A48FFF773
:40114000E3FF10BD064C22460849074802F080F90749044801F072FA012384F83830E8E7543700084876001000006340587600101511001088B108B5094AD062094B1B78B1
:4011800043B91046084B536302F02AFF054A0121117008B902F046FF08BD0448704700BF1C0400088D370008507600100100160008B502F0BFFF08BD002807DB00F01F021A
:4011C000400901239340024A42F82030704700BF00E100E0034B1B681A68D3F88430D058000E704714380008044B1B681A68D3F88430D058C0F30720704700BF14380008F0
:40120000C0687047034B1B68D3F8B4301858C00F704700BF14380008C0F30800B0FA80F040097047B0F1204F3CD018D880283BD007D9B0F5807F3FD0244B984209D0244891
:401240007047102832D0402801D12248704700282ED170474FF4A40070471D4870471E4B98422BD02DD31D4B98422CD8B0F1704F12D900F1805001380428EED801A353F8E0
:4012800020F000BF551200105B120010B51200109D120010A11200100D4870471048704710487047002070470F4870470F487047074870470E487047044870474FF4A000FC
:4012C0007047034870470248C3E700BF06005200FF00520002005000090000A0050000F0020052000300520005005200010050000100520010B50446094B1B6893F8313073
:40130000834207D9064B1B681A6AB3F8B00004FB002010BD40F2C311024801F0DDF9F1E714380008D479001008B50120FFF7E2FFFFF768FF68B9084B1869FFF773FF074B08
:401340001A6853680121996053689B68002BFBD108BD0348FCE700BF94370008143800080200500070B504460D4616462AB132462946204600F0E8FB70BD40F293310248AF
:4013800001F0AAF9F3E700BFD4790010164B186228B102230370FF23437000234380134B1B6893F8502002B9704700B583B0B3F93830ADF80030002301930D49684601F0D1
:4013C0003DF9BDF90000FFF7F7FE084B1B6893F8513013B903B05DF804FB02220549012000F0D0FEF6E700BF9437000814380008E10B0008990B000808B50248FFF7C6FFEB
:4014000008BD00BFB837000838B505460C46FFF703FF78B384B3FEF7A1FF184B184A1A6100225A619D61DC61164B1B6893F85230D3B1FFF7CFFE0446FFF7D6FE611C00FB9C
:401440000111114800FB01F1104B1B68104AA2FB03239B09B1FBF3F101F5195108314FF4807005F0ADFD06E000214FF4807005F0A7FD00E0074838BD0648FCE7943700087F
:401480000001000514380008C0EA210190020008D34D62100600520008B5FFF745FF08BD10B50446FFF7B8FE08B91C4810BDFEF755FF1B4B4FF0E0521A614FF0B053DB7AE7
:4014C00023B1174A136943F480731361144B5C6100229A61DA61134B1B6893F85430C3B1FFF778FE0446FFF77FFE611C00FB01110D4800FB01F10D4B1B680D4AA2FB0323DB
:401500009B09B1FBF3F101F69801002005F058FDCCE70021084605F053FDC7E706005200943700081438000860F5900090020008D34D621038B505460C46FFF76DFE0028C5
:4015400039D0002C39D0FEF709FF1D4B4FF0C0621A614FF0B053DB7A23B1194A136943F480731361164B4FF480725A619D61DC61144B1B6893F85330C3B1FFF72BFE0446AB
:40158000FFF732FE611C00FB01110F4800FB01F10E4B1B680E4AA2FB03239B09B1FBF3F101F56171002005F00BFD05E00021084605F006FD00E0074838BD0648FCE700BFC7
:4015C0009437000814380008808D5B0090020008D34D62100600520070B506460C461546072907D8012D0BD885B9012101FA04F4746070BD40F22731074801F06DF8F1E73F
:401600004FF44A71044801F067F8EDE7012101FA04F4B460EDE700BF9475001070B506460D461446072912D834F00F0315D1AD000D4B1B6893F87D108B590F22AA4023EA67
:40164000020304F00F04AC401C438C5170BD4FF47171064801F040F8E6E740F2C531034801F03AF8E3E700BF143800089475001070B504460E461546072919D835F01F038E
:401680001CD1184B1B689869201AC0095B69020103EB0010032E17D89858F6001F24B44020EA040005F01F05B54005439D5070BD4FF422710C4801F00FF8DFE740F289210F
:4016C000094801F009F8DCE7043E4368F6001F22B24023EA020305F01F0505FA06F61E434660E4E7143800089475001070B506460D461446082911D8032C15D86D000D4B50
:401700001B6893F87C108B590322AA4023EA020304F00304AC401C438C5170BD4FF4DD61054800F0D9FFE7E740F2E961024800F0D3FFE3E7143800089475001070B5064626
:401740000D46144608290CD8012C10D8B1690123AB4021EA030104F00104AC400C43B46170BD40F26961054800F0B6FFECE740F26A61024800F0B0FFE8E700BF9475001096
:4017800070B506460D461446072910D8012C14D80D4B1B6893F87E2091590123AB4021EA030104F00104AC400C43945170BD40F20341064800F090FFE8E740F204410348B4
:4017C00000F08AFFE4E700BF1438000894750010002800F0E78070B50D4614460646002A00F0E280072900F297802368012B00F29880636833F00F0340F09880237A33F05E
:401800001F0340F09880E368032B00F299802369012B00F29A806369012B00F29B80A369012B00F29C80E369032B00F29D80236A012B00F29E80636A012B00F29F80A36A42
:40184000012B00F2A080E36A032B00F2A180236B072B00F2A280226829463046FFF7BCFE626829463046FFF7D9FE227A29463046FFF7FEFEE26829463046FFF737FF2269D4
:4018800029463046FFF75AFF626929463046FFF777FF0121A9406A0002F1100E032303FA0EF319434148036893F87FC05CF8063023EA0101A36903F00103AB400B43E269F4
:4018C00002F0030202FA0EF213434CF80630036893F88020B15821F0FF01236A03F00103606A400000F002000343A06A800000F004000343E06AC00000F018000343206B08
:401900004001C0B20343AD0005F47E7503FA05F50D43B550002070BD4521254800F0DCFE63E74621224800F0D7FE62E74721204800F0D2FE62E748211D4800F0CDFE62E70B
:4019400049211B4800F0C8FE61E74A21184800F0C3FE60E74B21164800F0BEFE5FE74C21134800F0B9FE5EE74D21114800F0B4FE5DE74E210E4800F0AFFE5CE74F210C4853
:4019800000F0AAFE5BE75021094800F0A5FE5AE75121074800F0A0FE59E75221044800F09BFE58E7034870470248B4E714380008307A001001005A0000286ED070B50C4674
:4019C000054600296BD00B6833F0FF0347D1236933F0FF0348D1A3685B0D5B05002B48D1636823F4FF7323F00103002B46D1E36913F0604F47D1236A13F0604F48D1294B18
:401A000019688A69AA1AD2094969100101EB021226682E601E6896F87DC0E66845F80C601E6896F87EC0266945F80C601E6896F87FC0666945F80C601E6896F87CC0A668B9
:401A400045F80C606668AE611B6893F88030A669EE50E3690B50236A5360002070BD9921114800F039FEB2E79A210F4800F034FEB1E79B210C4800F02FFEB1E79C210A482E
:401A800000F02AFEB3E79D21074800F025FEB2E79E21054800F020FEB1E7044870470348DCE700BF14380008307A001001005A00C1607047C0687047034B1B68D3F8B43099
:401AC0001858C00F704700BF143800080368002B01DA002070470148704700BF01008A0038B505460C460B0C1B0413B9A4B26C6038BD40F2D521024800F0EEFDF6E700BFBF
:401B0000D479001038B505460C460B0C1B0413B9A4B2AC6038BD40F2BB21024800F0DCFDF6E700BFD479001038B504460D46FFF7C3FF08B9034838BD29462046FFF7D0FF6E
:401B40000020F8E701008A00F8B504460D461646FFF7BCFF10B1064F3846F8BD074631462046FFF7A5FF29462046FFF7CBFFF3E701008A0038B504460D4629B12046FFF7BD
:401B80009BFF30B9064838BD9921064800F0A4FDF4E72046FFF78EFF28600020F3E700BF01008A00887A0010C06870470368002B01DA002070470148704700BF01008A00B3
:401BC00010B50446094B1B6893F83130834207D9064B1B681A6AB3F8B00004FB002010BD40F2C311024800F077FDF1E714380008D479001070B504460D4616462AB1324621
:401C000029462046FFF7A0FF70BD40F29331024800F062FDF3E700BFD4790010184B1B6893F83130834227D970B50C4631B30B6813F01F0F01D0134870BDFFF7C1FF054698
:401C4000114E30602268D2080021606804F006F900212846FFF768FF224600213068FFF7C9FF08B10948E7E700213068FFF75CFF0028E1D00548DFE7024870470148DBE790
:401C80001438000803018A00BC37000801018A0010B50C4613461AB18BB14CB9094810BD0029F9D1FFF78CFF074B18602046F6E705494C608B600431FFF7B0FFEFE70148C2
:401CC000EDE700BF03018A00BC3700082DE9F04104460E461A4B1868FFF766FF0368A3422CD90546670904F01F04012000FA04F4C6B14FF00008124B1868FFF757FFB8B911
:401D00006A6852F8273013EA04050FD11C4342F8274000210A4B1868FFF706FF56B12846BDE8F08100F0B5FD8046E4E7054DF0E7054DF3E7404600F0B0FDF0E7034DEEE727
:401D4000BC370008020188000301880004018A002DE9F84304460F461B4B1868FFF724FF0368A3422ED905464FEA541804F01F04012000FA04F4CFB14FF00009124B1868BD
:401D8000FFF714FF0646B8B96B6853F82800204210D020EA040443F8284000210A4B1868FFF7C2FE57B13046BDE8F88300F071FD8146E3E7054EF0E7054EF3E7484600F012
:401DC0006CFDF0E7034EEEE7BC370008020188000301880004018A0010B504460B4B1868FFF7E2FE0368A3420CD9620904F01F04012303FA04F4436853F82230234203D0D1
:401E0000034800E0034810BD0348FCE7BC3700080101880004018A0000018800002807DB00F01F02400901239340024A42F82030704700BF00E100E0C0687047006870472E
:401E4000C1607047034B1B68D3F8B4301858C00F704700BF14380008000C704780B270470368002B01DA002070470148704700BF01008A0010B50446094B1B6893F83130F1
:401E8000834207D9064B1B681A6AB3F8B00004FB002010BD40F2C311024800F01DFCF1E714380008D479001010B50446094B1B6893F83230834206D9064B1B68186A80347B
:401EC00000EB441010BD40F2DF11034800F004FCF2E700BF14380008D479001070B506460C461546130C1B043BB9230C1B0453B9A4B244EA0544B46070BD4FF4FF71054878
:401F000000F0EAFBF1E740F2FF11024800F0E4FBEEE700BFD479001038B505460C460B0C1B0413B9A4B2AC6038BD40F2BB21024800F0D2FBF6E700BFD479001070B5054647
:401F40000C461646130C1B0443B9230C1B045BB9A4B244EA06442C602B6870BD4FF42671044800F0B9FBF0E740F29921014800F0B3FBEDE7D479001038B504460D4621B1FC
:401F800029462046FFF7F6FD38BD40F2B631024800F0A2FBF4E700BFD4790010034B1B6803B17047014B1860FBE700BFC83700082DE9F04104460E4617461D46DDF81880CD
:401FC000154B1B681BB3144B1A682C2304FB03F3D418E8B2D050C5F3072363602D0CA560FFF748FF20616068FFF75EFF6061A1680A46FFF773FFE76126620023A361B8F187
:40200000000F02D0B8F90030A381BDE8F081B521024800F061FBD6E7C8370008E47A001030B58FB00446002841D0A369072B43D8E36A002B45D0236B002B47D00DF11C0C83
:4020400004F1140EBEE80F00ACE80F00DEF80030CCF800300DF1080CA646BEE80F00ACE80F00DEF80030CCF800301B4B1B68DB8E079A1344ADF83030089B0D930CAD0095C7
:402080000B9BA26AE16A0A98FFF792FF00210091069B0A460598FFF78BFF216B284600F0CDFABDF93000FFF7B9FE0FB030BD52210A4800F011FBB8E75621084800F00CFB2C
:4020C000B6E75821054800F007FBB4E75921034800F002FBB2E700BF14380008E47A00102DE9F04704460D461F469046D2B1214B1B68E3B11F4B19682C2303FB041403FBAB
:4021000005156A68012101FA02F21604636801FA03F9206950B3AB6973B1DFF860A05046BDE8F087FD21144800F0D6FADFE7FE21114800F0D1FADDE7FFF792FE824610B173
:40214000DFF838A0EBE7B8F80020C8F800203243C8F8002041462069FFF772FE0123AB616F6249462069FFF7D7FED8E7DFF810A0D5E700BFC8370008E47A001007028A00B6
:4021800004028A00F8B506460F4615460F4B1B6873B10E4B1C682C2000FB0644236A6BB1E369AB4210D9236A43F825700020F8BD4FF4AF71064800F08FFAEAE74FF4B1711A
:4021C000034800F089FAEBE70248F0E7C8370008E47A00100A028A0070B582B0002301930446C0B12369E3B1636903B3236A23B36069FFF721FE0546FFF72EFE024610BBF7
:402200002846FFF72BFE014600283DD16069FFF715FE02B070BD40F2D111244800F05CFAE0E74FF4E971214800F056FADCE740F2D3111E4800F050FAD8E74FF4EA711B48D7
:4022400000F04AFAD4E700216069FFF777FE2069FFF7F8FD0028D3D001A92069FFF78CFE60B9019803681E0CDBB2E2699A4206D9226A52F8233013B1984700E00026314605
:402280002069FFF751FCBBE700226069FFF756FE636A2BB19847002363620023A361B5E7A36A002BF9D09847F7E700BFE47A001010B50446084B1B683BB1074B1B682C206B
:4022C00000FB0430FFF788FF10BD40F2B111034800F002FAF1E700BFC8370008E47A001010B504460A4B1B689B6CC34013F0010F08D0074B1B681B691034A402185900F0AE
:402300000F0010BDBE21034800F0E6F9F1E700BF14380008407B0010134B1B6893F83C3083421DD9042904D9A1F580739BB2132B18D8FF290CD901F01F010C4B00F1C00249
:4023400043F82210D030042243F820200020704701F00701D030054B43F82010002070470348704702487047143800080000264001004A0010B504460E4B1B6893F83C3003
:40238000834209D904F1D0030B4A52F8230000F00700042806D010BD4FF4A171074800F09BF9EFE7C03452F8240000F01F0040F48070F0E71438000800002640987B0010DF
:4023C000B0F5C26F80F09F80B2F5C26F80F09D80B1F1807F80F09B8010B54E4B01241C70FF2825D800F00F0E0F24A4460720FF2A3FD81201D2B24EEA020E40F4E0204CF0D4
:40240000F00C44F47024444B1B681A6AB3F8B030C3EBC303D358002BF5DA3E4B5B78002B49D03E4BD3F81C35002B44DB3C485FE0B0F5A06F06D200F00F000F244FF0000CBF
:40244000E646D4E7C0F30323B0F5C06F07D20001C0B21843FF244FF0000CE646C7E7000200F47060184340F60F744FF0000CE646BDE7B2F5A06F06D2120402F47022104365
:4024800044F47024BFE7130A1B0403F470231843B2F5C06F06D2130503F47003184344F47F04B0E7130603F07063184344F0706444F47024A7E7194B41F61F72C3F8082100
:4024C00043F63D52C3F80421D3F8182522EA0C0C4CEA0E02C3F81825D3F8142522EA04042043C3F814050B4A5160C3F81C150020094B1B681A6AB3F8B030C3EBC3031344B8
:4025000000225A6010BD06487047054870470448704700BFCC370008143800080000264001004A0038B50446254B00221A70254B1B681A6AB3F8B030C3EBC30302EB030C52
:40254000D358002BF3DA204BD3F8082141F61F739A421AD000251C4BD3F8200520F07F400023CCF8043045B340B3CCB9144B5B68A3FB013144081C1902464FF00003204611
:4025800041F1000103F0CAFA18E00F4BD3F8042143F63D539A4201D00025DCE70125DAE7A0FB0101064B5A685308C0184FF0000341F1000103F0B2FA00E0002038BD00BFFF
:4025C000CC3700081438000800002640002808DB4901C9B200F1604000F5614080F80013704700F00F004901C9B2014B1954704714ED00E038B504460C4B9A680C4B9A4205
:4026000004D010340B4B53F8240038BD0D4631B11034074B53F8240043F82450F5E740F23711054800F058F8F2E700BF00ED00E00000000800000010F47B0010E8B138B57A
:402640000D4604464368072B0BD86168B4F90000FFF7BCFF0A4B9A680A4B9A4206D0002038BD3221084800F037F8EEE72946B4F90000FFF7BFFF0020F2E70448704700BF41
:4026800000ED00E000000008F47B00100100560010B5044605E0084B186800F0F1F8A4F50044B4F5004FF6D8044B186804FB00F000F0E6F810BD00BFA8020008A4020008B4
:4026C00008B5034B1B7803FB00F000F0D9F808BDA002000801BEFEE738B50C46044D18220146284603F050FCAC610020FFF7F2FF10100008024B1B685B6801229A60704719
:4027000014380008FEE7000008B50268254BDA6142681A6282685A62C2689A620269DA6242691A6382695A63C2699A631E4A916AD963D16A1964516A5964516B9964926B78
:40274000DA64F1EE103A13F0900F27D0026A154B1A65426A5A65826A9A65C26ADA65026B1A66426B5A66826B9A66C26BDA66026C1A67426C5A67826C9A67C26CDA67026D6E
:40278000C3F88020426DC3F88420826DC3F88820C26DC3F88C20026EC3F89020FFF7B2FF08BD00BF1010000800ED00E070B40446002830D01923304802681668B2F8A850F9
:4027C000725922F003028B422CBF002301231A43725102681668B2F8A850725922F44072725102681568B2F8AAC055F80C2022F00302134345F80C3003681868B3F8AA203E
:40280000835823F4407383503CB110291DD9212926D801221AE06423CDE7174B1B6893F855208A421ED293F856208A421CD293F857208A421AD293F858208A4218D293F80A
:4028400059308B4216D3042200E000220A4B1B6859680B6823F00F0313430B6070BC70470222F3E70022F1E70122EFE70222EDE70322EBE70522E9E71438000800000000F1
:402880000230800803D001300238FCD100BF00BF7047EFF3108072B6704780F3108870474FF0B0535B7823B14FF0B0535878C0B27047212070474FF0B0539B899BB223B168
:4028C0004FF0B053988980B270474FF480707047054B1B6893F8443023B1044B986900F007007047002070471438000800002640C0687047034B1B68D3F8B4301858C00FCF
:40290000704700BF1438000838B5FFF7D4FFB0F5807F16D0164AD2F8483823F44073154908680468D0F8980025582B4343F4407323500B681968D3F89C30D2F84428CA505C
:4029400038BD0C4A13681868D3F89810435823F00F0343F00203435013681968D3F89C208B5823F00F0343F002038B50E8E700BF001000161438000838B5FFF79CFFB0F54A
:40298000807F16D0164AD2F8203823F44073154908680468D0F8980025582B4343F4407323500B681968D3F89C30D2F82028CA5038BD0C4A13681868D3F89810435823F0E6
:4029C0000F0343F00303435013681968D3F89C208B5823F00F0343F003038B50E8E700BF001000161438000808B5FFF764FFB0F5807F0FD00D4BD3F8183823F440730C4A26
:402A000012681168D2F898208858034343F440738B5008BD064B1B681968D3F898208B5823F4E04343F4C0438B50F2E7001000161438000838B5FFF73EFFB0F5807F16D06A
:402A4000114AD2F84C3823F44073104908680468D0F8980025582B4343F4407323500B681968D3F89C30D2F84C28CA5038BD074B1B681968D3F898208B5823F4E04343F401
:402A800080438B50F2E700BF001000161438000810B50446094B1B6893F83130834207D9064B1B681A6AB3F8B00004FB002010BD40F2C3110248FFF70FFEF1E714380008D1
:402AC000D479001010B5FFF7F6FEB0F5807F01D0012010BD0E20FFF703FC0446FFF7E0FE222802D81CB90120F3E70120F1E70020EFE7000010B5044601280BD884B9114B8F
:402B00005869C00F104B1B6893F844300BB1012C08D010BD40F262710C48FFF7DDFDEDE70020EFE7074B9B6913F0804F07D1054B9B69002B01DB0020EBE70120E9E7012048
:402B4000E7E700BF0000264014380008507C001038B5114B1B6893F8443093B104460D4607280FD8FFF7B4FEA0420AD00B4A936923F0070304F007010B4393610DB1A042C0
:402B800006D338BD40F2CC710548FFF7A5FDE9E7C820FFF795FDF4E71438000800002640507C001028B30246C36823B3036823B310B490F804C0124B03EB8C035C682346C6
:402BC000002123B193420CD019465B69F9E7012020B144B14A611161002353615DF8044B70470020F4E7064B03EB8C0CCCF80420F1E700207047002070470020704700BF20
:402C0000D8370008024648B390F804C0144B03EB8C0359680B461BB193420CD05B69FAE70020E0B18A4208D019695A694A61B2B11B69136170470120F3E74B693BB1084A9A
:402C400002EB8C0CCCF8043000221A617047044B03EB8C0C0023CCF80430704700207047D837000870B582B004460D46022803D9042801D0032817D16B1EDBB2012B03D9C6
:402C8000042D01D0082D15D1264800EB84046468042D29D0012D29D0022D2DD026466469002CFBD100202EE040F6B2111E48FFF713FDE1E740F6B3111B48FFF70DFDE3E71A
:402CC0006469BCB1194B984212D0A3681D42F7D1E3681A6800925B6801932368294668469847104B9C61EBE70020EAE70020E8E7012DEAD102B070BD0A4B9E69002ED1D00E
:402D00003669CFE73669002EF4D0B3681D42F9D1F3681A6800925B6801933368294668469847EFE7D8370008507C0010FF00420070B50446012826D81E4B5B684BB3012120
:402D40000020FFF78FFF064670BBFFF7A2FD0546184B5B681BB104210020FFF783FF164A136923F004031361012C14D030BF2846FFF793FD0F4B5B681BB108210020FFF723
:402D800071FF304670BD4FF4E0710C48FFF7A4FCD2E70026D9E720BF064B1B7803B120BF044B01221A70E2E702210020FFF75AFF034EE6E7D837000800ED00E0507C001058
:402DC000FF00420008B5FFF764FD074B5A6807490A4042F468525A605A680A405A605B68FFF75BFD08BD00BF00002640FF00FC0FF8B5064601280FD8FFF752FD84B2FFF7E1
:402E00005AFD05460E20FFF76BFA0746D0B9B5F5807F07D0254F16E040F64C212448FFF75BFCE9E7222C32D8224B1B685A6802F57042936923F08073310601F080710B435F
:402E4000936100E0194FB5F5807F22D0B5F5807F1BD00120FFF71CFE0446B5F5807F1BD0FEB1154A01212046FEF76EFE054660B92046FFF73FFD0028FAD12046FFF738FD61
:402E800000F07F40B0F1204F0DD03846F8BD074FD9E7222CDDD8D9E70EB1084AE2E7084AE0E7084ADEE72F46EFE700BF04004200507C0010143800080300000C010100309F
:402EC000010000300100000C70B50446022801D0052805D1FFF7F6FD40B9204D284670BD40F202711E48FFF7F7FBF3E7FFF7D1FC0646022C23D01B4A536923F0070343F0CF
:402F0000030353613420FFF7DBFBFFF793FD0025144A536923F0070304F007010B435361022C17D09120FFF7CBFBFFF725FD0020FFF75EFF05463046FFF7AFFCCEE7012092
:402F4000FFF756FF054610B1002DF4D1E0E7FFF7DBFCF9E7FFF748FDEDE700BF03004200507C001000002640F8B50446012805D8FFF7A8FD40B92C4D2846F8BD4FF402616C
:402F80002A48FFF7A9FBF3E7FFF783FC074694B9274B0022C3F8302F4FF0B05393F84067F6B20120FFF724FF054608B175BB20E0FFF7AAFCFAE74FF0B05202F58053D3F891
:402FC00010081C4B03F5E041C1F8300F92F84167F6B203F57043D3F81C2F22F01F0242F00B02C3F81C2F0320FFF76AFBFFF722FD0025114AD2F81C3F23F01F0306F01F06A6
:403000001E43C2F81C6F2CB9FFF7EEFC3846FFF744FCB1E70720FFF753FBFFF7ADFC0020FFF7E6FE0546F1E703004200507C0010007026400000264000F0264004280FD0F4
:4030400000060B4B1B681A68D3F8A03000F04070D0504FF0E022136923F00403136170474FF0E022136943F004031361704700BF14380008014B1860704700BF14380008CF
:40308000D0F840037047D0F80803C0F308007047C0F840127047D0F80802C0F308007047036813F4006F01D08020704740207047D0F80003C00880F0010000F00100704738
:4030C000D0F80002C00880F0010000F001007047F8B506460F461546FFF7EAFF48B900240FE03046FFF7CCFF38550134AC42F8D3F8BD0024FAE73046FFF7C2FF27F81400BD
:403100000134AC42F7D3F3E770B505460E461446FFF7B9FFA04200D80446224631462846FFF7D6FF204670BDF8B506460F461546FFF7C6FF48B900240FE0395D3046FFF7D3
:40314000A7FF0134AC42F8D3F8BD0024FAE737F814103046FFF79CFF0134AC42F7D3F3E7F8B506460F461446FFF79AFF05463046FFF791FF2B1AA34200D81C462246394617
:403180003046FFF7D1FF2046F8BDD0F840037047D0F80803C0F308007047C0F840127047D0F80802C0F308007047D0F8000E7047D0F8CC0F7047D0F8880F7047D0F88C0F4C
:4031C0007047036813F4006F01D08020704740207047D0F80003C00880F0010000F001007047D0F80002C00880F0010000F001007047000038B505460C46FFF7E2FFA0425E
:4032000008D9D5F8041321F0FF01E4B20C43C5F8044338BD4FF423710148FFF75DFAF0E71C7E001038B505460C4621F4366323F00D0313B9C5F8C84F38BD40F2A6310248A9
:40324000FFF74AFAF6E700BF1C7E001038B505460C4621F4EE6323F0030313B9C5F8884F38BD40F236410248FFF736FAF6E700BF1C7E001038B504460D4621F4EE6323F00E
:40328000030323B9C4F8805FD4F8803F38BD40F283410248FFF720FAF4E700BF1C7E001038B504460D4621F4366323F00D0323B9C4F8C05FD4F8C03F38BD40F2F13102480D
:4032C000FFF70AFAF4E700BF1C7E001070B5054614460E4601B122B94FF499610448FFF7FBF9224631462846FFF70EFF70BD00BFEC7500102DE9F04105460C46FFF761FF8B
:403300004708E269A1692846FFF7E0FF236A03442362E3691B1AE361EBB9A368B3B1E168B94211D3791E2846FFF764FF01212846FFF778FF636823F001036360236B0BB103
:4033400004209847BDE8F0810139ECE700212846FFF768FFEEE70646D4F818802846FFF738FF00B976004644A661E169B942E9D201392846FFF73EFFE4E7000070B5054645
:4033800014460E4601B122B940F273510448FFF7A3F9224631462846FFF7E2FE70BD00BFEC7500102DE9F04105460C46FFF709FF06462846FFF715FF0746A26A012A09D873
:4033C0002846FFF7EDFEB04202D0A36A012B11D0BDE8F081D4F82480E262013A41462846FFF7CCFFA36A1B1AA36207B9400040446062E5E70023A36237B3636A1F78FFF720
:4034000048FA064639462846FFF7C7FE4FF400712846FFF72FFF3046FFF73FFA2846FFF7CAFE20F4007121F0010141F400712846FFF70CFF236843F002032360236B002B93
:40344000C6D001209847C3E7636A1F88D7E70000002800F0B881F8B50C4616460546002900F0B3810B78022B20D8637B023BDBB2062B20D8A37B1BB1022B01D0032B1FD117
:4034800094F82130012B20D894F82830012B21D82378012B23D9A37F002B00F0B6806368013B062B00F2B38000231EE03F219148FFF712F9D9E740218E48FFF70DF9D9E761
:4034C00041218C48FFF708F9DAE742218948FFF703F9D9E743218748FFF7FEF8D8E76368083B082B94BF00230123002B40F09180A368053B042B00F291806369FF2B00F26E
:403500009280A369FF2B00F29380A37C4BB123781BB9A368092B00F0908049217548FFF7DBF8636B23F4366323F00D03002B40F08980E36B23F4EE6323F00303002B40F056
:4035400086802378022B00F087806268013A237F002B00F087804FF48033A168082900F283804FF400610B4302F00F02134343F000732B60276B2846FFF723FE874275D2F5
:40358000A76B2846FFF71DFE874274D2676A2846FFF717FE874273D223781B0603F040732B64637F002B70D04023A27C002A6ED04FF480621343227C002A6AD04FF480723A
:4035C0001343627C002A66D04FF400721343E26A013A120402F470221343627B013A02F007021343A27B120102F030021343AB64237B002B51D04FF48073E27B002A51D1C6
:403600002278022A4BD000224EE000236DE701236BE745213748FFF75FF869E746213548FFF75AF869E747213248FFF755F868E748213048FFF750F867E7A37B002B3FF411
:4036400070AF6AE74C212B48FFF746F871E74D212848FFF741F874E7A37F002B7FF475AF002274E7002378E700217CE762212148FFF732F884E763211E48FFF72DF885E7B7
:4036800064211C48FFF728F886E700238DE7002290E7002294E7002298E70023ADE74FF4007201E04FF400721343A268013A02F00F021343C5F80033227DA3691B0403F489
:4036C0007F031343C5F81033E26AD5F8003303F00F0303339A4201D3102A03D97A210548FEF7FAFFE37F3BB12378012B5BD0002203E000BF787E00100022637B013B03F096
:4037000007031343A27B120102F0300213436B64237B002B4AD04FF48072A368013B03F00F0313432278012A42D000221343C5F8003294F83030C5F8043394F82030002BD1
:4037400039D04FF0007394F82120012A35D00022134394F82820012A32D00022134394F8242013432B6594F83830C5F80432636B23F4926323F002031B051B0DC5F8C83F05
:40378000E36B23F08C035B055B0DC5F8883FF6B1002070603060B060F0603062F06230630C4B7363F8BD4FF48072A6E70022B4E74FF48032BAE70023C5E74FF08072C7E72A
:4037C0004FF48032CAE7044870470348EAE70020E8E700BFEFCDAB000160AA0008694B69834202D84B69C01A7047CB684A699B1A184470472DE9F84380460D46FFF7E1FCF0
:403800004FEA50094046FFF7C3FC07462C690FE0002412E06B69A34218D04046FFF7B5FC06464046FFF7D5FC48B3AB681E55013F97B10134EB68A342EAD06B69A342ECD1C7
:403840002B6B002BE6D008209847E3E700214046FFF7E8FC84B1013C2C61EC6829464046FFF7BCFF211A894504D901B101394046FFF7C0FCBDE8F883EC68013CECE7AB68E5
:4038800023F81460D3E738B504460D46FFF78DFC10F0080F06D12046FFF787FC10F0040F3AD138BD2046FFF783FC10F4487118D12046FFF77DFC10F4006F1ED12046FFF7C2
:4038C00077FC10F0010FE6D0EB6903BBAB681BB129462046FFF78EFF01212046FFF7E0FCD9E76B680B436B602046FFF7D9FC2B6B002BDDD010209847DAE76B6843F4006364
:403900006B604FF400612046FFF7CAFCD6E729462046FFF7EFFCDFE72046FFF74FFC10F4A0611BD12046FFF749FC10F0010F21D12046FFF743FC10F4007FB2D0002120465B
:40394000FFF784FC2B6823F001032B600023EB622B6B002BA5D002209847A2E72B680B432B602046FFF786FC2B6B002BDAD020209847D7E729462046FFF714FD0121204676
:40398000FFF778FCD4E74FF0B0535B7823B14FF0B0535878C0B2704721207047024B5869C0F38070704700BF0000264010B50446FFF7F4FF094B1B6893F8443033B128B1AE
:4039C0002CB1074A936943F08043936110BD044A936923F080439361F8E700BF1438000800002640024B5868C0F34040704700BF00002640024BD3F8000500F00300704797
:403A00000000264038B50D4640F4004000040D4BD8614FF47A740B4B1B6C13F0010F05D124B1013C0120FEF74BFEF4E744B1054B1A6C42F001021A64DB6A2B80002038BD11
:403A40000148FCE700003C400400160010B50E4B03EA00430B430D4AD3614FF47A740B4B1B6C13F0010F05D124B1013C0120FEF727FEF4E734B1054A136C43F001031364DD
:403A8000002010BD0248FCE70000FF7F00003C4004001600F0B583B006460A2507E0BDB1013DB4B9BDF80630B3F5C05F11D04FF4C05141F60260FFF7C9FF04460028EED116
:403AC0000DF1060141F60260FFF79CFF0446E6E7474C002C3ED0002C68D0002C35D1BDF8063023F03F039BB2ADF80630B278012A64D0F278002A78D197B2C2F10105ADB2EE
:403B000023F040039BB2ADF8063043F01003ADF80630384BD340384A1360BDF80610394389B2ADF8061041F60960FFF78FFF0446F378DF1B07F00307ADF80670AD00ADB223
:403B40003D43ADF806502D4B5D66FFF71CFF204603B0F0BD0DF1060141F60360FFF752FF04460028B7D1BDF8063013F4806FB2D10A2508E0C5B1013D002CACD1BDF8063015
:403B8000B3F5806FA7D04FF4806141F60360FFF75DFF04460028EDD10DF1060141F60360FFF730FF0446E5E7114C94E70DF1060141F60960FFF726FF04468EE7F278012AF1
:403BC0000ED90025022743F04003ADF8063043F03003ADF806300A4BD340074A13609CE797B2C2F10205ADB2EDE70025012787E7040016000024F4008C02000800F03D4029
:403C00000048E80138B50C4641F2010141EA400141F60860FFF71AFF054620B16001FEF74FFD284638BD46F6370141F60F60FFF70DFF0546F2E70000024A136F43F0100350
:403C40001367704700F03D4010B59CB01E4C0DF14C0CA646BEE80F00ACE80F00BEE80F00ACE80F00DEF80030CCF800300DF1280C04F1240EBEE80F00ACE80F00BEE80F00D9
:403C8000ACE80F00DEF80030CCF800300DF1040E04F1480CBCE80F00AEE80F00BCE80F00AEE80F00DCF80030CEF8003013A90748FDF782FE0AA90648FDF77EFE01A905487D
:403CC000FDF77AFE1CB010BDD47E00100001324080013240000232402DE9F041002800F0D9800646FFF77EFE08B96E4C06E0FFF769F8FAE7013C0120FEF7E2FC6A4BDB6E45
:403D00000BB1002CF6D1684BD3F8A03013F0010F06D0654BD3F8B43013F0010F40F0BE80614BDB6E0BB1614DB5E0FFF78DFF604901F5F8335F4AC3F8A420327842F4202233
:403D4000C3F8A8204FF00112C3F8AC20D1F8005115F0010540F0A4801B6F13F0080F31D00B680122544941EA42321343504A1360FFF714FE002838D14B4AD2F8C43043F0D5
:403D80000303C2F8C430484CD4F8A07047F4403343F03003C4F8A0304020FEF791FCD4F8B03013F0010F28D027F4803727F0100747F4003848F020083B4BC3F8A0804FF42F
:403DC000FA642BE03D4B1B683D4A934203D8384B1B683C4AC9E73C4AA2FB0332120D344B1B68013ABED1374ABFE701210320FEF7AFFE0120FFF7DAFDC5E70123C4F8B03031
:403E00004020FEF75DFC0323C4F8B0304020FEF757FCC9E7013C0120FEF752FC2B4B1B6913F0100F01D1002CF4D144B9284D65B38DBB31787078FFF7E5FE05462BE01A4A44
:403E4000936E43F0080393660120FEF753FE18B947F4003848F0280828F4802343F00103114AC2F8A0300F4C03E0013C0120FEF727FC0D4BD3F8B43013F0010F01D1002C50
:403E8000F3D1002CD3D1124DD2E73046FFF702FE0546CDE70F4D2846BDE8F081034DFAE70D4DF8E7F07E0E0000F03D400300160000003C4006000001041A008094020008E0
:403EC00000093D00040A008083DE1B4300403240040016000100160002001600014B1868704700BF8C02000810B50024042C06D82046FEF73FFA032803D00134F6E70020A1
:403F000010BD0120FCE708B5FFF774FD012802D0032801D0002008BD0120FCE7014B1870704700BF3038000838B5012903D0082937D0234838BD234B1B78012B37D0032019
:403F4000FDF74AFF204B984233D0FFF7CDFF012831D0022005F094FA0546FEF79AFC1B4B186027F0B1F80446062826D0022D0BD0012013F087FB022C00D078B1134B186894
:403F8000FEF78BFC0E48D5E7022013F07BFB032C01D0052CF2D10028CCD0EFE7FEF7C8FEECE70A4B1868FEF778FC0020C2E70448C0E70348BEE70248BCE70020BAE700BF65
:403FC000FF0042004D380008010188001838000808B50248FEF716FE08BD00BFFC07000890B110B5094A5060C36A03B193600024074B1C70074B1C70074B1C60074B1C7009
:4040000000F0D6FB204610BD0548704718380008583800086C380008683800087C3800080100160010B59AB00DF1540C394C0FCCACE80F002368CCF800304C22002102A849
:4040400001F00CFF344B029315AB049342F21833ADF8143005238DF81630FB23ADF82030ADF8223003238DF8243004238DF8253006238DF8263008238DF829304123ADF85E
:404080004C3001238DF850302448FEF78BFD05F0F0F908A805F058FA10BB214B0393214B5B68996BA9B10B460DF12A022031D3F800E0D3F804C09C68D868C2F800E0C2F8A5
:4040C00004C09460D060103310328B42EFD11B88138002A805F0E0F920B1134B00221A601AB010BD114B01221A700020104B1870FFF714FF0B4B5B681A6A00929B6ADB880A
:40410000ADF80430F423ADF8063068460DF0E2F9E3E700BF407F0010154E0010FC070008A410000818380008683800084D3800083438000808B505F0BFFD08BD014B98671D
:40414000704700BF00F03D4008B51AF097FA034B1B680BB100B1984708BD00BF24380008002807DB00F01F02400901239340024A42F82030704700BF00E100E000280CDB88
:4041800000F01F024009012393402030034A42F82030BFF34F8FBFF36F8F704700E100E0024B5869C0F38070704700BF00002640024B586900F00700704700BF0000264061
:4041C000064BD3F81C3F03F01F034FF0B05292F84007C0B2C01A18BF0120704700F02640034B1B6813F4000F0CBF01200020704700002640064AD2F83C3523F47F7323F019
:404200000303C0F309000343C2F83C35704700BF00002640024BD3F83C05C0F30900704700002640024BD3F81C05C00F704700BF00002640024BD3F8000500F00300704792
:404240000000264058B108B5B1F5FD7F01D3054808BD0A46044901F0F3FD0020F8E70148704700BF01001600070800162DE9F04FADF5097D80460E4617460293B1F1805F88
:4042800003D38A189A4B9A4210D9B6F1A05F03D3F219984B9A4209D9974B9E4240F21981F21903F201239A4200F21681FFF778FF40B3FFF77DFF0390022819D0012304936A
:4042C000002301938D4B019A9A422ED006F17046730A009326F4FF7424F0010400210320FDF7F4FC82460028F8D10546002154E00520FEF7E9FD0190814B9842F8D00123B3
:404300000493DFE7FFF75CFF049048B90120FEF72BFE7B4B9842F9D0019005230393D1E70523039300230193CCE740F2D5117548FEF7D2F9CAE704F1805212780DF1200CA2
:404340000CF8032001340133B3F5007F15D2B442F1D3BD42EFD218F805200DF1200C0CF8032040B904F180521278D2B218F805C0624500D001200135E4E7814650B1029BFE
:40438000C3B1009B03F5002008A94002FDF73CF882464946009B01330093019B002B5CD1BAF1000F59D1BD4257D253464FF000094846C9E74FF0C80B059506945D46DDF825
:4043C00000B00BF5002464022046FDF769F88246013D0120FEF774F90AF4A403B3F5A40F01D1002DEDD10794059D069C464B9A4507D0BAF1000F0BD0434B9A4525D04946D6
:40440000C8E7FDF749F88246404B9842F9D0F0E74FF0C80B0595079D5B46A3461C4608A92846FDF787F88246013C0120FEF748F90AF4A403B3F5A40F04D1002CEFD1059D3E
:404440005C46D9E7059D5C46D6E7FDF725F882462E4B9842F9D049469CE7D1B900210320FDF776FC0028F9D1019BABB1019B002B35D1274B9A4535D004339A4535D0BAF1CB
:40448000000F01D0DFF88CA050460DF5097DBDE8F08FFEF72FF9E1E7FFF782FE10B1039B022B0ED0FFF79CFE0028DFD0049B002BDCD10020FEF758FD0190114B9842F8D03B
:4044C000D4E70220FEF700FD01900D4B9842F8D0E8E7DFF844A0CCE7DFF83CA0C9E7DFF83CA0D1E7DFF838A0CEE7DFF834A0CBE70000101000800014FF0700160300420081
:4045000004004200547F00100100500002005000020052001300160006005200120016000100160058B1B1F5FD7F01D30548704708B501230A460449FFF798FE08BD014880
:40454000704700BF010016000708001670B5C0B006460C4615464FF480720849684601F06FFC05E016F8012B6A401DF80250013C002CF7D1284640B070BD00BFAC7F001085
:40458000002070470388AE2202FB03F3A3F26F33024AA2FB0323DB080B807047CDCCCCCCB0F9003042F64B0202FB03F3044A82FB0302DB17A3EB2233BD330B80704700BF53
:4045C000AD8BDB680020704708B512F089FE08BD08B5FEF775F808BD08B5044B1B685B6BB3F90000FFF7BCFD08BD00BF1C38000808B5044B1B685B6BB3F90000FFF7BEFD38
:4046000008BD00BF1C38000808B5FFF713FE08BD08B5FFF707FE08BD08B5FDF783FF08BD70B504460D4616460320FDF7D5FB054B984205D0324629462046FDF7C1FE70BD6B
:404640000148FCE70101880003004A00F8B5431A002BB8BF5B42934203D200252C46281BF8BD07460C461646FFF7D4FD0546A7420AD9391B01EB5601B1FBF6F4041B10D4AC
:404680002046FFF7B7FDEAE7E11B01EB5601B1FBF6F4044440F2FE339C42F1D940F2FF34EEE70024ECE7000008B5034B1A684FF40041FFF7CBFF08BD1408000810B5FFF74B
:4046C000C3FA0220FFF73AFD064C23680649586BFDF7B4FF23685B6BB3F90000FFF740FD10BD00BF1C380008494100100420704708B5FEF7CEF808BD08B5FEF7CEF808BD11
:4047000008B5FEF715FB08BD08B50021FEF720FA08BD7047704700207047000000487047110016000048704711001600004870471100160000487047110016000048704764
:404740001100160000487047110016000048704711001600004870471100160000487047110016000048704711001600004870471100160070470000014B1878704700BF25
:4047800030380008014B1870704700BF303800080020034603B17047044A1A441279012A01D90130C0B20133F4E700BF3038000808B5034800F0A2FD024800F0B1FD08BD9A
:4047C000F8070008F007000870B5022876D805460C46002975D1FFF7DBFF01283BD0FFF7CBFF00286FD1394B1C74002D42D1384E33685968C4EBC40201EB4200196804EB95
:40480000840401EB84018088088259681B6803EB84035B6831F81210198031684B6803EB42030A6802EB840462685B885380294B1D70274B1B681868244B1B7C03EB8303B7
:4048400000EB830008F03EFC0446002837D10120FFF798FF33E01E4B1B681B6804EB840203EB82035B681B79023BDBB2012BB6D9194C24E0012DDAD1154E33685968C4EB7A
:40488000C40201EB4200196804EB840401EB840180890882596801EB42011B6803EB84035B680989198031684B6803EB42030A6802EB840462685B895380B8E7074C2046F3
:4048C00070BD064CFBE7064CF9E700BF303800081C3800087C3800080200160001001600FF00160010B541B9164B1B681B68996891F81FE000231C4607E0124B1B681B681C
:40490000D96891F81FE0F5E7012473450AD24CB9CA5C3AB1013311F803C0BCF11B0FF3D01344F2E76CB101338279CA54002206E0D418013410F802C001F804C00132052ABD
:40494000F6D910BD1C38000882B0ADF804009DF805301BB9024AD05C02B070470020FBE7343800080378407843EA00207047000038B504460CF0C8FD054660B90E4B196802
:404980000A6A238903EB83039B00143B13445A6812F0007F01D1284638BDE07B1B695B68CA699B1A00EB80001844A2882168034B184401F045FAEEE71C380008503800080B
:4049C00030B587B002891A4B1B685B699B889A4203D00025284607B030BD044601AB07C883E807000022ADF81020A289ADF8122040228DF814201846FFF7BAFF054650B9AF
:404A00002068FFF7AFFF10F0020F0AD0094B1B68214609489847094A137803F0FE031370D8E7044B1B68214605489847F3E700BF1C38000820380008050001005838000885
:404A40000600010043885A1E92B2232A1BD84078D8B90F4A11680A6A03EB83039B00143B13445A6812F0007F11D010B41B695C68CA69A21A00EB80031344064AD35A238020
:404A80005DF8044B7047012070470120704770471C3800085038000800B3114B1B681A6A038903EB83039B00143B13445B6813F0007F01D00120704700B587B001AB002249
:404AC0000192029203920492059207C883E807001846FFF74DFF07B05DF804FB0E2070471C380008C1B110B586B00446B4B101AB00220192029203920492059207C983E892
:404B000007002288ADF8122040228DF814201846FFF72EFF06B010BD0E2070470E20F9E700283DD0F8B50C46164605460378407843EA0020FFF708FF012833D9242C33D8F3
:404B40006B7813B900210F4602E019482BE00131184B1868D0F820C004EB84029200143A624413891B1B8B4217D3B7B9631803EB83039B00143B63445A6812F0007FE6D098
:404B80006A781B695B68C0691B1A02EB82020A480244D35C33800127D9E73FB1002002E0034870470548F8BD0148FCE70048FAE7010016001C380008503800080700160030
:404BC00000B583B00DF10602FFF7AAFF30B9BDF8060000F0010003B05DF804FB0020FAE728B330B585B00C46054611B30378407843EA0020FFF7A8FE01281CD92046FFF79F
:404C00004BFF08B10D4817E021892846FFF7D8FF08B90B4810E06B4694E8070083E807002A88ADF80C2018460BF0AAFD04E005487047044800E0044805B030BD02001600F9
:404C4000170016000100160007001600014B1878704700BF30380008014B1870704700BF3038000882B0ADF804009DF805301BB9024AD05C02B070470020FBE73438000887
:404C800082B0ADF804009DF805300BB9014AD15402B070473438000830B583B005461C4B1B88ADF80030002494B19DF80130FF2B27D0BDF80030ADF8043000209DF8043005
:404CC00063F307009DF8053063F30F2003B030BD104B13F8142003EB4403587842EA0020FFF7C0FF012804D90A4B13F81430AB4201D00134D8E7074B33F81430ADF80030D6
:404D0000D3E740F2CA310448FDF7E6FCD1E700BF0081001044380008AC80001000B583B000230093ADF804308389ADF800300389ADF8023012238DF80430094B1B7813F00F
:404D4000010F05D139B18DF8051068460BF0F8FC03B05DF804FBC0680BF020FDF8E700BF58380008E8B110B404460023194600E00133104A127B9A4208D939B90D4A02EB98
:404D800083025268A242F3D10121F1E759B9012A0DD8084B03EB82014C6001321A73002002E00548704700205DF8044B70470348FAE700BF5838000801001600030016008C
:404DC00070B506460D460020044607E0084B03EB84035B682946304698470134044B1B7BA34204D9024B1B7813F0010FEED170BD583800080246807908B100207047002308
:404E0000052B03D8D15C11B90133F9E7704701207047000070B584B004460D46AE4A137843F00103137044F21003984200F28B8044F20403984210D241F20303984220D876
:404E4000B0F5805F2ED3A0F58053032B2AD8DFE813F0BF001E0121012D01A0F58043043B0C2B1FD8DFE813F048011E0077015A0173011E0057011E001E001E001E001E00D4
:404E80005A0143F2120398424ED01CD943F21903984207D1084604F09BFC8F4A137803F0FE0313708C4B1B7813F0110F09D08A4A137803F0FE031370884B1B682946204642
:404EC000984704B070BD42F20403984228D1824B1B6913F0010FE5D10023ADF804308DF806307F4E33689B6A93F900308DF8043001A809F0C5F933689B6A93F901308DF8EF
:404F0000043001238DF80530FF238DF8063001A809F0B6F9704A136943F001031361C1E743F201039842BDD100266E4B1E703046FFF792FE6C4B1E7043F212039C42B1D1AF
:404F4000FFF746F8AEE745F21703984238D8B0F5A04FA7D9A4F5A043013B162BA2D801A252F823F0D1510010FD5100101D520010A54E0010A54E0010A54E0010A54E00108B
:404F8000A54E0010A54E0010A54E0010A54E001031520010A54E00109F520010A9520010B3520010A54E0010A54E0010A54E0010BD520010A54E0010A54E0010C7520010D7
:404FC00046F2010398427FF46DAFFFF7F9FE69E7464B1E683046FFF70DFF00284AD1404B19688B6A1B791BB34FF0B05090F8043603F03F0390F80526920102F47C621343F4
:4050000090F80326120302F4F832134390F80026520402F47E021A43096B0B7030490868006BC3F3072343700B68196B130C8B702B4E3368186B09F0C9F833680021186BE6
:40504000FFF750FC33680121186BFFF74BFC244B1B68986A023009F0E1FB01AB244A92E8030083E80300184609F0F0F81D4B02221A7017E7304609F0A9F81C4E00213068EB
:40508000FFF730FC01213068FFF72CFCDFE7FFF797FE07E74878FFF7FFFDADF80C009DF80D102A780C4B0B441A75FBE60B78002B7FF4F8AE0B7A43B9074B0E22DA83F422AD
:4050C0009A830C4A43F8182F4B60034A137803F0FE031370E6E600BF58380008203800081C3800084D380008483800081808000804810010BC330008CB78002B7FF4D2AEB8
:405100004879FFF7C9FDADF804009DF80530724A0121D154C6E6FFF753FEC3E60B7873B98B78012B0FD06878FFF7B6FDADF804009DF80530FF2B02D0A978684AD154684B80
:4051400002221A70AEE60020FFF786FDEBE7644B02221A70A6E6FFF733FE624B1B7813F0010F3FF49FAEFFF771FD012828D003282AD002287FF496AE0020FFF76DFD5A4BEF
:405180001B685B68594A1178C1EBC10203EB42039A79002A3FF486AE9B88002B3FF482AE504B93F82430002B7FF47CAE0120FFF70BFB00287FF476AE0120FFF74DFD71E6B0
:4051C0000220FFF749FD6DE60020FFF745FD69E62B786878022143EA0020FFF751FD6A782988434B23F812106A783E4B134400221A7529462046FFF7E3FD53E62B786878E8
:40520000002143EA0020FFF73BFD6B78324A0021D15429462046FFF7D3FD43E62B88ADF80430F823ADF8063001A80BF095FA39E62846FFF7C5FB0146E0B12846FFF76EFDCA
:40524000284B1B7813F0110F04D02A4B1B682946204698472A89234B1B7813F0010F03D0531E9BB2232B0BD81E4A137803F0FE03137017E629462046FFF7A2FD0146DCE721
:4052800012238DF80830ADF80620AB89ADF8043001238DF8093001A80BF052FAE4E729462046FFF78DFDFDE529462046FFF788FDF8E529462046FFF783FDF3E5294620462B
:4052C000FFF77EFDEEE52846FFF7BCFB29462046FFF776FDE6E500BF483800084C3800084D380008583800081C3800084038000844380008203800080020704730B108B519
:40530000034A10600348FFF72DFD08BD0248704780380008F9520010010016000020704730B108B5034A10600348FFF71BFD08BD02487047843800081D53001001001600A1
:4053400081F0004102E000BF83F0004330B54FEA41044FEA430594EA050F08BF90EA020F1FBF54EA000C55EA020C7FEA645C7FEA655C00F0E2804FEA5454D4EB5555B8BF81
:405380006D420CDD2C4480EA020281EA030382EA000083EA010180EA020281EA0303362D88BF30BD11F0004F4FEA01314FF4801C4CEA113102D0404261EB410113F0004F6F
:4053C0004FEA03334CEA133302D0524263EB430394EA050F00F0A780A4F10104D5F1200E0DDB02FA0EFC22FA05F2801841F1000103FA0EF2801843FA05F359410EE0A5F1DD
:4054000020050EF1200E012A03FA0EFC28BF4CF0020C43FA05F3C01851EBE37101F0004507D54FF0000EDCF1000C7EEB00006EEB0101B1F5801F1BD3B1F5001F0CD34908F6
:405440005FEA30004FEA3C0C04F101044FEA445212F5800F80F09A80BCF1004F08BF5FEA500C50F1000041EB045141EA050130BD5FEA4C0C404141EB0101013C28BFB1F5E7
:40548000801FE9D291F0000F04BF01460020B1FA81F308BF2033A3F10B03B3F120020CDA0C3208DD02F1140CC2F10C0201FA0CF021FA02F10CE002F11402D8BFC2F1200CEA
:4054C00001FA02F120FA0CFCDCBF41EA0C019040E41AA2BF01EB0451294330BD6FEA04041F3C1CDA0C340EDC04F11404C4F1200220FA04F001FA02F340EA030021FA04F303
:4055000045EA030130BDC4F10C04C4F1200220FA02F001FA04F340EA0300294630BD21FA04F0294630BD94F0000F83F4801306BF81F480110134013D4EE77FEA645C18BFAD
:405540007FEA655C29D094EA050F08BF90EA020F05D054EA000C04BF1946104630BD91EA030F1EBF0021002030BD5FEA545C05D14000494128BF41F0004130BD14F580049C
:405580003CBF01F5801130BD01F0004545F0FE4141F470014FF0000030BD7FEA645C1ABF194610467FEA655C1CBF0B46024650EA013406BF52EA033591EA030F41F4002120
:4055C00030BD00BF90F0000F04BF0021704730B54FF4806404F132044FF000054FF0000150E700BF90F0000F04BF0021704730B54FF4806404F1320410F0004548BF4042F5
:405600004FF000013EE700BF42004FEAE2014FEA31014FEA02701FBF12F07F4393F07F4F81F06051704732F07F4208BF704793F07F4F04BF41F40021704730B54FF4607488
:4056400001F0004521F000411CE700BF50EA010208BF704730B54FF000050AE050EA010208BF704730B511F0004502D5404261EB41014FF4806404F132045FEA915C3FF48A
:40568000D8AE4FF003025FEADC0C18BF03325FEADC0C18BF033202EBDC02C2F1200300FA03FC20FA02F001FA03FE40EA0E0021FA02F11444BDE600BF70B54FF0FF0C4CF455
:4056C000E06C1CEA11541DBF1CEA135594EA0C0F95EA0C0F00F0DEF82C4481EA030621EA4C5123EA4C5350EA013518BF52EA033541F4801143F4801338D0A0FB02CE4FF07B
:405700000005E1FB02E506F00042E0FB03E54FF00006E1FB03569CF0000F18BF4EF0010EA4F1FF04B6F5007F64F5407404D25FEA4E0E6D4146EB060642EAC62141EA555154
:405740004FEAC52040EA5E504FEACE2EB4F1FD0C88BFBCF5E06F1ED8BEF1004F08BF5FEA500E50F1000041EB045170BD06F0004646EA010140EA020081EA0301B4EB5C04B0
:40578000C2BFD4EB0C0541EA045170BD41F480114FF0000E013C00F3AB8014F1360FDEBF002001F0004170BDC4F10004203C35DA0C341BDC04F11404C4F1200500FA05F3E3
:4057C00020FA04F001FA05F240EA020001F0004221F0004110EBD37021FA04F642EB06015EEA430E08BF20EAD37070BDC4F10C04C4F1200500FA04F320FA05F001FA04F207
:4058000040EA020001F0004110EBD37041F100015EEA430E08BF20EAD37070BDC4F1200500FA05F24EEA020E20FA04F301FA05F243EA020321FA04F001F0004121FA04F225
:4058400020EA020000EBD3705EEA430E08BF20EAD37070BD94F0000F0FD101F00046400041EB010111F4801F08BF013CF7D041EA060195F0000F18BF704703F000465200AE
:4058800043EB030313F4801F08BF013DF7D043EA0603704794EA0C0F0CEA135518BF95EA0C0F0CD050EA410618BF52EA4306D1D181EA030101F000414FF0000070BD50EA4B
:4058C000410606BF1046194652EA430619D094EA0C0F02D150EA013613D195EA0C0F05D152EA03361CBF104619460AD181EA030101F0004141F0FE4141F470014FF0000072
:4059000070BD41F0FE4141F4780170BD70B54FF0FF0C4CF4E06C1CEA11541DBF1CEA135594EA0C0F95EA0C0F00F0A7F8A4EB050481EA030E52EA03354FEA013100F0888092
:405940004FEA03334FF0805545EA131343EA12634FEA022245EA111545EA10654FEA00260EF000419D4208BF964244F1FD0404F5407402D25B084FEA3202B61A65EB03058C
:405980005B084FEA32024FF480104FF4002CB6EB020E75EB030E22BFB61A754640EA0C005B084FEA3202B6EB020E75EB030E22BFB61A754640EA5C005B084FEA3202B6EBBC
:4059C000020E75EB030E22BFB61A754640EA9C005B084FEA3202B6EB020E75EB030E22BFB61A754640EADC0055EA060E18D04FEA051545EA16754FEA06164FEAC30343EAC7
:405A000052734FEAC2025FEA1C1CC0D111F4801F0BD141EA00014FF000004FF0004CB6E711F4801F04BF01430020B4F1FD0C88BFBCF5E06F3FF6AFAEB5EB030C04BFB6EB1A
:405A4000020C5FEA500C50F1000041EB045170BD0EF0004E4EEA113114EB5C04C2BFD4EB0C0541EA045170BD41F480114FF0000E013C90E645EA060E8DE60CEA135594EA09
:405A80000C0F08BF95EA0C0F3FF43BAF94EA0C0F0AD150EA01347FF434AF95EA0C0F7FF425AF104619462CE795EA0C0F06D152EA03353FF4FDAE1046194622E750EA410669
:405AC00018BF52EA43067FF4C5AE50EA41047FF40DAF52EA43057FF4EBAE12E74A0011D212F5001211D20DD56FF47873B3EB62520ED44FEAC12343F0004343EA505323FA20
:405B000002F070474FF00000704750EA013002D14FF0FF3070474FF00000704753B94AB9002908BF00281CBF4FF0FF314FF0FF3000F074B9ADF1080C6DE904CE00F006F8A9
:405B4000DDF804E0DDE9022304B070472DE9F047089D04468E46002B4DD18A42944669D9B2FA82F252B101FA02F3C2F1200120FA01F10CFA02FC41EA030E94404FEA1C4831
:405B8000210CBEFBF8F61FFA8CF708FB16E341EA034306FB07F199420AD91CEB030306F1FF3080F01F81994240F21C81023E63445B1AA4B2B3FBF8F008FB103344EA034461
:405BC00000FB07F7A7420AD91CEB040400F1FF3380F00A81A74240F207816444023840EA0640E41B00261DB1D4400023C5E900433146BDE8F0878B4209D9002D00F0EF80D5
:405C00000026C5E9000130463146BDE8F087B3FA83F6002E4AD18B4202D3824200F2F980841A61EB030301209E46002DE0D0C5E9004EDDE702B9FFDEB2FA82F2002A40F0A2
:405C40009280A1EB0C014FEA1C471FFA8CFE0126200CB1FBF7F307FB131140EA01410EFB03F0884208D91CEB010103F1FF3802D2884200F2CB804346091AA4B2B1FBF7F074
:405C800007FB101144EA01440EFB00FEA64508D91CEB040400F1FF3102D2A64500F2BB800846A4EB0E0440EA03409CE7C6F12007B34022FA07FC4CEA030C20FA07F401FA3B
:405CC00006F31C43F9404FEA1C4900FA06F3B1FBF9F8200C1FFA8CFE09FB181140EA014108FB0EF0884202FA06F20BD91CEB010108F1FF3A80F08880884240F28580A8F18D
:405D000002086144091AA4B2B1FBF9F009FB101144EA014100FB0EFE8E4508D91CEB010100F1FF346CD28E456AD90238614440EA0840A0FB0294A1EB0E01A142C846A646DB
:405D400056D353D05DB1B3EB080261EB0E0101FA07F722FA06F3F1401F43C5E9007100263146BDE8F087C2F12003D8400CFA02FC21FA03F3914001434FEA1C471FFA8CFEF6
:405D8000B3FBF7F007FB10360B0C43EA064300FB0EF69E4204FA02F408D91CEB030300F1FF382FD29E422DD9023863449B1B89B2B3FBF7F607FB163341EA034106FB0EF380
:405DC0008B4208D91CEB010106F1FF3816D28B4214D9023E6144C91A46EA004638E72E46284605E70646E3E61846F8E64B45A9D2B9EB020864EB0C0E0138A3E74646EAE75E
:405E0000204694E74046D1E7D0467BE7023B614432E7304609E76444023842E7704700BF10B501390244904201D1002005E0037811F8014FA34201D0181B10BD0130F2E767
:405E40000A44914200F1FF3300D1704710B511F8014B03F8014F9142F9D110BD02440346934200D1704703F8011BF9E70FB40A4B13B51C6824B1A36913B9204600F072FAD1
:405E800005AB049AA1680193204600F07BFC02B0BDE8104004B07047C80A000870B50E46054618B183690BB900F05CFAAB69AC6813B9284600F056FA2C4B9C4220D16C68FF
:405EC000636EDB0705D4A389980502D4A06D00F0E7FAA38919071DD52369DBB1013EA36816F8011F013BA36039BB002B38DA22460A21284600F05CF8013011D00A2511E0E4
:405F00001B4B9C4201D1AC68DAE71A4B9C4208BFEC68D5E72146284600F09CF80028DDD04FF0FF35636EDA0705D4A3899B0502D4A06D00F0B6FA284670BD002B04DAA26932
:405F40009A4206DC0A2904D023685A1C22601970C5E72246284600F02BF80130BFD1DFE723680A255A1C22601D70DBE70C9100102C910010EC900010024B01461868FFF723
:405F80008DBF00BFC80A000810B50139034632B111F8014F03F8014B013A002CF7D11A440021934200D110BD03F8011BF9E70000F8B50E461446054618B183690BB900F00A
:405FC000D1F9214B9C422BD16C68A369A360A3891A072FD523696BB323692068C01A6369F6B28342374604DC2146284600F026F930BBA368013BA36023685A1C22601E7005
:4060000063690130834204D0A389DB0706D50A2E04D12146284600F011F988B93846F8BD0A4B9C4201D1AC68CFE7094B9C4208BFEC68CAE72146284600F00CF80028CBD038
:406040004FF0FF37EAE700BF0C9100102C910010EC900010324B70B51D6806460C4625B1AB6913B9284600F07DF92E4B9C420FD16C68A389B4F90C2019072CD4DD0611D4CE
:406080000923336042F04003A3814FF0FF303EE0254B9C4201D1AC68EBE7244B9C4208BFEC68E6E7580712D5616B41B104F14403994202D0304600F05BFA00236363A38904
:4060C00023F02403A3810023636023692360A38943F00803A38123694BB9A38903F42073B3F5007F03D02146304600F001FAA089B4F90C2010F001030AD00023A3606369E5
:406100005B42A361236943B910F08000BAD170BD810758BF6369A360F4E70020F7E700BFC80A00080C9100102C910010EC9000108A892DE9F041054610070C4658D44B682B
:40614000002B05DC0B6C002B02DC0020BDE8F081E66A002EF9D0002312F480522F682B6032D0606DA3895A0705D56368C01A636B0BB1236CC01A00230246E66A216A284677
:40618000B047431CA38906D129681D292CD82A4ACA40D60728D500226260D9042269226004D5421C01D12B6803B96065616B2F600029CAD004F14403994202D0284600F003
:4061C000D7F900206063C1E7216A01232846B047411CC7D12B68002BC4D01D2B01D0162B01D12F60B1E7A38943F04003A381ADE70F69002FA9D093070E6808BF4B690F6022
:4062000018BF0023A6EB07088B60B8F1000F9CDD216AA66A43463A462846B047002806DCA38943F04003A3814FF0FF308EE70744A8EB0008E9E700BF0100402038B50B69B5
:4062400005460C4613B90025284638BD18B183690BB900F087F8144B9C421BD16C68B4F90C30002BEFD0626ED00704D4990502D4A06D00F015F928462146FFF759FF636E83
:40628000DA070546E0D4A3899B05DDD4A06D00F008F9D9E7054B9C4201D1AC68DFE7044B9C4208BFEC68DAE70C9100102C910010EC900010002310B50446C0E90033C0E923
:4062C0000433836081814366C2818361194608225C30FFF7C3FD054B6362054BA362054BE362054B2462236310BD00BF2D6D00104F6D0010876D0010AB6D0010014900F024
:40630000AFB800BF3D62001070B568224D1E55430E4605F1740100F097F9044640B10021C0E900160C30A06005F16802FFF796FD204670BD014800F0B3B800BF2D470008E5
:40634000014800F0AEB800BF2D470008014800F0A7B800BF2E470008014800F0A2B800BF2E47000810B50446FFF7F0FFA3691BB1BDE81040FFF7F0BFC4E912332365134B62
:40638000134A1B68A262A34204BF0123A361204600F020F86060204600F01CF8A060204600F018F80022E06004216068FFF782FFA06801220921FFF77DFFE06802221221FF
:4063C000FFF778FF0123A361D2E700BFE8900010FD620010F8B50746FFF7ACFF1E4B1E68B36913B93046FFF7BDFF4836D6E90134013B03D533680BB33668F7E7B4F90C509B
:40640000D5B9164BE36004F15800656600F047F8FFF796FFC4E90155C4E904552560A5610822294604F15C00FFF718FDC4E90D55C4E912552046F8BD6834D9E70421384692
:40644000FFF762FF044630600028D5D1FFF778FF0C233B60EEE700BFE89000100100FFFF2DE9F8430646884600F148040027D4E90195B9F1010905D52468002CF7D138461D
:40648000BDE8F883AB89012B07D9B5F90E30013303D029463046C04707436835E9E770477047704770B50E46B1F90E10002996B014461D4608DAB6F90C3000222A601A06BB
:4064C00010D44FF480630EE06A4600F095FC0028F1DB019A02F47042A2F500535A425A412A60EEE740230020236016B070BD00008B8973B59D0706460C4607D504F147032A
:40650000236023610123636102B070BD01AB6A46FFF7C8FF00990546304600F095F848B9B4F90C309A05EFD423F0030343F00203A381E3E70D4BB362A389206043F0800343
:40654000A381009B6361019B20615BB1B4F90E10304600F063FC28B1A38923F0030343F00103A381A0890543A581CDE7FD62001037B5002944D051F8043C0190002BA1F1AC
:406580000404B8BFE41800F0BBFC1E4A0198136833B96360146003B0BDE8304000F0B6BCA34208D9256861198B4201BF19685B6849192160EDE71A465B680BB1A342FAD904
:4065C00011685518A5420BD1246821445418A3421160E0D11C685B68536021441160DAE702D90C230360D6E7256861198B4204BF19685B68636004BF491921605460CAE72A
:4066000003B030BD3047000870B50E4E0C463168054611B900F07AFB30602146284600F075FB431C0AD0C41C24F00304A04207D0211A284600F06AFB013001D14FF0FF3430
:40664000204670BD344700082DE9F041CD1C25F0030508350C2D38BF0C25002D074601DBA94205D90C233B6000263046BDE8F0812E4E00F045FC33681C4634BB29463846F8
:40668000FFF7C2FF431C04464DD134682646002E40D123683146384604EB030800F036FB80453AD1216803356D1A25F0030508350C2D38BF0C2529463846FFF7A5FF0130EF
:4066C0002BD023682B4423600EE02268521B1ED40B2A16D96119A342256018BF5960636808BF316062514B60384604F10B0600F00DFC26F00706231DF21AB6D09B1BA35017
:40670000B3E76268A3420CBF32605A60ECE723466468B2E734467668B9E70C233B60384600F0F4FBA1E72560DEE700BF304700089368013B002B10B4936008DA9469A3424C
:4067400001DB0A2903D15DF8044BFFF731BC1368581C1060197008465DF8044B7047F8B506460F461446D518AC4201D1002007E014F8011B3A463046FFF7DAFF431CF3D1B2
:40678000F8BD00002DE9F04F0D469DB014469846064618B183690BB9FFF7E4FD894B9D421BD175686B6ED90705D4AB899A0502D4A86DFFF775FEAB891B0701D52B69EBB9C2
:4067C00029463046FFF746FCC0B16B6EDC070ED54FF0FF301DB0BDE8F08F7B4B9D4201D1B568DFE7794B9D4208BFF568DAE7AB899805EDD4A86DFFF754FEE9E700230993AD
:4068000020238DF82930CDF80C803023DFF8C0818DF82A304FF0010923469A4613F8012B0AB1252AF9D1BAEB040B0BD05B46224629463046FFF793FF013000F0AA80099A0C
:406840005A4409929AF80030002B00F0A28000234FF0FF32CDE905230AF1010A049307938DF853301A935446052214F8011B584800F0F6FA049AD8B9D10644BF20238DF849
:406880005330130744BF2B238DF853309AF800302A2B15D0079A544600204FF00A0C214611F8013B303B092B4ED9B0B1079214E0A0EB080309FA03F313430493A246D2E7B9
:4068C000039B191D1B680391002BBBBF5B4242F0020207930793B8BF049223782E2B0CD163782A2B35D1039B1A1D1B680392002BB8BF4FF0FF3302340593DFF8E4A021782B
:406900000322504600F0ACFA40B14023A0EB0A0003FA00F0049B03430134049314F8011B2C488DF82810062200F09AFA00283FD0294B1BBB039B073323F007030833039333
:40694000099B3B44099367E70CFB02320C460120A5E700230134059319464FF00A0C204610F8012B303A092A03D9002BC5D00591C3E70CFB012104460123F0E703AB00936A
:406980002A46164B04A93046AFF300800746781CD6D16B6ED90705D4AB899A0502D4A86DFFF77FFDAB895B063FF512AF099811E703AB00932A46094B04A9304600F080F8C4
:4069C000E4E700BF0C9100102C910010EC9000104C91001056910010000000005F670010529100102DE9F047164699468A680B69DDF820809342B8BF1346336091F84320D3
:406A000007460C460AB1013333602368990642BF336802333360256815F0060506D104F1190AE36832689B1AAB4226DC94F84320131E226818BF012392062BD404F143021C
:406A400049463846C04701301ED02368E568326803F00603042B08BFAD1AA36822690CBF25EAE57500259342C4BF9B1AED1800261A34B5421AD1002008E00123524649460E
:406A80003846C047013003D14FF0FF30BDE8F0870135C6E7E1185A1C302081F84300224494F8451082F843100233C7E70123224649463846C0470130E6D00136D9E70000EF
:406AC0002DE9FF470F7E0C9D782F914680460C469A4601F1430207D8622F0AD8002F00F0D880582F00F0A38004F1420584F842703AE0A7F16303152BF6D801A151F823F066
:406B0000596B00106D6B0010E96A0010E96A0010E96A0010E96A00106D6B0010E96A0010E96A0010E96A0010E96A0010796C00109D6B00105B6C0010E96A0010E96A0010EF
:406B40009B6C0010E96A00109D6B0010E96A0010E96A0010636C00102B681A1D1B682A6004F1420584F842300123A3E020682968060601F104030AD50E682B60002E03DA2D
:406B80002D23764284F843305E480A2319E00E682B6010F0400F18BF36B2EFE72B682068191D2960010601D51E6802E04606FBD51E8854486F2F0CBF08230A23002184F852
:406BC00043106568A560002DA2BF216821F0040121600EB9002D4DD01546B6FBF3F103FB1167C75D05F8017D3746BB420E46F4D9082B0BD12368DE0708D523696168994285
:406C0000DEBF302305F8013C05F1FF35521B2261CDF800A04B4603AA21464046FFF7E2FE01304CD14FF0FF3004B0BDE8F087354881F845702968236851F8046B29601D06F3
:406C400014D5DF0744BF43F0200323601EB9236823F0200323601023B0E7236843F0200323607823284884F84530E3E7590648BFB6B2E6E71546BBE72B6826686169181DA2
:406C8000286035061B6801D5196002E07006FBD51980002323611546BAE72B681A1D2A601D6862680021284600F0DAF808B1401B606063682361002384F84330A8E7236997
:406CC0002A4649464046D0470130ABD023689B0713D4E068039B9842B8BF1846A4E70123324649464046D04701309BD00135E36803995B1AAB42F2DCEBE7002504F119065C
:406D0000F5E700BF5D9100106E91001038B5064D0023044608462B6000F038F9431C02D12B6803B1236038BD3847000810B50C46B1F90E1000F0F0F80028ABBF636DA38947
:406D40001B1823F48053ACBF6365A38110BD2DE9F0411F468B89DB0505460C46164605D5B1F90E100223002200F068F8A389B4F90E1023F48053A38132463B462846BDE8EF
:406D8000F04100F017B810B50C46B1F90E1000F055F8431CA38915BF606523F4805343F48053A38118BFA38110BDB1F90E1000F013B8000038B5074D0446084611460022EE
:406DC0002A601A46FAF734F9431C02D12B6803B1236038BD3847000838B5064D0023044608462B6000F0AAF8431C02D12B6803B1236038BD3847000838B5074D00230446D5
:406E0000084611462B6000F0A1F8431C02D12B6803B1236038BD00BF3847000838B5064D0023044608462B6000F098F8431C02D12B6803B1236038BD3847000838B5074DA3
:406E400004460846114600222A601A4600F08EF8431C02D12B6803B1236038BD3847000801F0FF01102A2BDB10F0070F08D010F8013B013A8B422DD010F0070F42B3F6D1EF
:406E8000F0B441EA012141EA014122F007047FF000070023F0E80256083C85EA010586EA010685FA47F5A3FA87F586FA47F6A5FA87F68EB9EED1F0BC01F0FF0102F0070213
:406EC00032B110F8013B013A83EA010313B1F8D10020704701387047002D06BF35460338073815F0010F07D1013015F4807F02BF013015F4C03F0130F0BC0138704700BFD8
:406F00000148FFF7CDBA00BF2C4700080148FFF7C8BA00BF2C47000838B5074D04460846114600222A601A4600F028F8431C02D12B6803B1236038BD38470008024B5822CB
:406F40001A604FF0FF30704738470008024B58221A604FF0FF30704738470008024B58221A600020704700BF38470008024B58221A604FF0FF30704738470008024B5822EC
:406F80001A604FF0FF30704738470008044A05491368002B08BF0B4618441060184670473C47000840470008F8B500BFF8BC08BC9E467047F8B500BFF8BC08BC9E46704758
:406FC0005FF800F0750C000803000000010000000100000000000000050360000400000001000000000000000100000006046000080000000C370008510300102E2E2F4F53
:407000006E657468696E785F43726561746F722E637964736E2F47656E6572617465645F536F757263652F50536F43362F70646C2F647269766572732F70657269706865D3
:4070400072616C2F737973636C6B2F63795F737973636C6B2E680000030000000000000000000000680000000000000000000000000000001212000000000000523A2042F3
:407080004C4520537461636B206F6E0A2020205374617274204164766572746973656D656E740000523A2054696D656F75742100523A204861726477617265204572726FF3
:4070C00072000000523A20537461636B2042757379205374617475733A20307825780A00523A20536574204C45204576656E74204D61736B20636F6D706C6574650000009C
:40710000523A2053657420446576696365204164647265737320636F6D706C6574650000523A2047657420446576696365204164647265737320436F6D6D616E6420636FB5
:407140006D706C6574650000523A2053657420547820506F77657220436F6D6D616E6420636F6D706C65746500000000523A2047415050204164766572746973656D656E64
:40718000742053746172742F53746F702C2073746174653A2025640A00000000523A2047617020456E68616E63656420436F6E6E65637420436F6D706C65746500000000C1
:4071C000523A2044617461204C656E677468204368616E6765000000523A204741502044657669636520436F6E6E656374656400523A204741502044657669636520446919
:4072000073636F6E6E65637465643A20626448616E646C653D25782C20726561736F6E3D25782C207374617475733D25780D0A002020203C52657374617274204164766532
