:020000041000EA
:4000000000F00308CF0200100D00000035030010350300103503001035030010000000000000000000000000000000003103001031030010000000003103001031030010A7
:400040003103001031030010310300103103001031030010310300103103001031030010310300103103001031030010310300103103001031030010310300103103001040
:400080003103001031030010310300103103001031030010310300103103001031030010310300103103001031030010310300103103001031030010310300103103001000
:4000C00031030010310300103103001031030010310300103103001031030010310300103103001031030010310300103103001031030010310300103103001031030010C0
:40010000310300103103001031030010310300103103001031030010310300103103001031030010310300103103001031030010310300103103001031030010310300107F
:40014000310300103103001031030010310300103103001031030010310300103103001031030010310300103103001031030010310300103103001031030010310300103F
:4001800031030010310300103103001031030010310300103103001031030010310300103103001031030010310300103103001031030010310300103103001031030010FF
:4001C00031030010310300103103001031030010310300103103001031030010310300103103001031030010310300103103001031030010310300103103001031030010BF
:40020000310300103103001031030010310300103103001031030010310300103103001031030010310300103103001031030010310300103103001031030010310300107E
:40024000310300103103001031030010310300103103001031030010310300103103001031030010310300103103001031030010310300103103001031030010310300103E
:4002800031030010310300103103001010B5054C237833B9044B13B10448AFF300800123237010BDA03800080000000034C5001008B5034B1BB103490348AFF3008008BD92
:4002C00000000000A438000834C500107047FFF7FDFF72B6104C114DAC4209DA21686268A368043BA2BFC858D050FAE70C34F3E70B490C4A00209142BCBF41F8040BFAE73B
:4003000009480A490860BFF34F8F00F0CDF900F01FF801F033FAFEE768ED021080ED0210A0380008444A00080000000808ED00E0FEE7FEE700B504207146084202D0EFF3D0
:40034000098001E0EFF30880043003F0E5FBFEE780B500AF0D4804F05FFB00F077FD00F01DF800220021042002F0E8FA084802F0E3FD084B1B6893F85130002B02D0064843
:4003800002F0EEFD01F0FAFB00BF80BD04B00010BC380008203B000898A0001080B491B000AF8A4BD3F8803303F00F037B63874A7B6BD03352F8233003F007033B633B6B21
:4003C000042B40D801A252F823F000BFE1030010E7030010ED030010F3030010FB0300107B4BFB6332E07B4BFB632FE0794BFB632CE0794B1B68FB6328E0744A7B6BC0331A
:4004000052F8233003F01F03FB62FB6A132B11D0FB6A132B12D8FB6A102B03D0FB6A112B04D00BE04FF4FA43FB630BE04FF40043FB6307E04FF40043FB6303E04FF4FA43EE
:40044000FB6300BF02E0634BFB6300BF7B6B002B58D15E4BD3F8903503F00103002B14BF01230023FB76594BD3F888351B0F03F00303032B0CBF01230023BB76534BD3F869
:4004800088351B0F03F00303002B07D04F4BD3F888351B0F03F00303012B01D1012300E000237B767B7E03F001037B767B7E002B02D0FB7E002B02D1BB7E002B1FD0434BD0
:4004C000D3F88035C3F311037B61404BD3F88435C3F30C033B613D4BD3F880351B0E03F001030133FB60FA6B3B69B2FBF3F37A6903FB02F2FB68B2FBF3F3BB6370E0FB6B74
:40050000BB636DE07B6B012B68D1304BD3F8403603F00103002B14BF0123002387F82B302A4BD3F800361B0F03F00303032B0CBF0123002387F82A30244BD3F800361B0FE7
:4005400003F00303002B07D0204BD3F800361B0F03F00303012B01D1012300E0002387F8293097F8293003F0010387F8293097F82930002B03D097F82B30002B03D197F8DF
:400580002A30002B1FD0114BD3F8003603F07F037B620E4BD3F800361B0A03F01F033B620A4BD3F800361B0C03F01F03FB61FB6B7A6A03FB02F23B6AB2FBF3F2FB69B2FB75
:4005C000F3F3BB630CE0FB6BBB6309E00000264000127A0000366E0198020008FB6BBB63264BD3F880331B0903F00303BA6B22FA03F3BB63224ABB6B1360224BD3F8903083
:400600001B0ADBB20133BB601E4B1B691B0EDBB201337B60BA6B7B68B2FBF3F31A4A1360BA6BBB68B2FBF3F3BB63184ABB6B1360164B1B68164A1360154B1B6803F5742378
:4006400003F23F23134AA2FB03239B0CDAB2124B1A700F4B1B6803F2E733104AA2FB03239B090F4A13600E4B1B68DB030D4A136000BF4437BD465DF8047B704700002640BE
:400680009002000800002140940200088C0200089C02000883DE1B43A4020008D34D6210A0020008A802000880B582B000AF03F094FB78600A4BD3F88830094A43F47003C5
:4006C000C2F88830BFF34F8F00BFBFF36F8F00BF786803F086FB00BF0837BD4680BD00BF00ED00E080B500AF012002F0B1FD00BF80BD000080B483B000AF0D4B7B600D4B6A
:40070000D3F8803103F00103002B09D1094BD3F80C35084A23F00043C2F80C3500237B607B6818460C37BD465DF8047B704700BF03004A000000264080B485B000AF7860CC
:400740000F4BFB600F4B1B6893F83E301A467B6893420DD20C4A7B68E03352F823300A4943F000427B68E03341F823200023FB60FB6818461437BD465DF8047B704700BFFD
:4007800001004A00203B00080000264080B485B000AF78600B46FB70124BFB60124B1B6893F83E301A467B68934214D2FB780F2B11D80E4A7B68E03352F8233023F00F0245
:4007C000FB7803F00F0309491A437B68E03341F823200023FB60FB6818461437BD465DF8047B704701004A00203B00080000264080B485B000AF78600B46FB70134BFB60CF
:40080000134B1B6893F83E301A467B68934215D2FB78032B12D80F4A7B68E03352F8233023F03002FB781B0103F0300309491A437B68E03341F823200023FB60FB6818460E
:400840001437BD465DF8047B704700BF01004A00203B00080000264080B483B000AF0346FB710F4B1B681A680D4B1B68D3F8883013441B6823F47F42FB791B029BB2084963
:400880000968086806490968D1F88810014413430B6000BF0C37BD465DF8047B704700BF203B000880B483B000AF0346FB710E4B1B681A680C4B1B68D3F8843013441B6822
:4008C00023F07F42FB791B0607490968086806490968D1F88410014413430B6000BF0C37BD465DF8047B7047203B000890B486B000AFB9607A603B600346FB73524B7B6161
:40090000FB7B022B50D1BB68032B00F296807B68B3F5803F80F091803B681F2B00F28D80BB689A00494B1B689B6848490968B1F878100B4413441B6823F47F0222F47F4241
:400940007B681B0223F07F4323F0FF03B96888003E49096889683D4C2468B4F878402144014413430B60BB689A00384B1B689B6836490968B1F878100B4413441B6823F0F4
:40098000F8023B68DB00DBB2B96888002F49096889682E4C2468B4F878402144014413430B6000237B6148E0FB7B032B45D1BB68002B42D17B68B3F1807F3ED23B681F2B15
:4009C0003BD8BB689A00214B1B689B681F490968B1F87A100B4413441B68DAB27B681B02B9688800194909688968184C2468B4F87A402144014413430B60BB689A00134B2B
:400A00001B689B6811490968B1F87A100B4413441B6823F0F8023B68DB00DBB2B96888000A4909688968094C2468B4F87A402144014413430B6000237B617B691846183751
:400A4000BD4690BC704700BF01004A00203B000880B485B000AF03463A60FB710B46BB71264BFB60264B1B6893F83F30FA799A423DD2BB79032B3AD8BB79002B02D13B68BE
:400A8000072B11D9BB79012B02D13B680F2B0BD9BB79022B02D13B68032B05D9BB79032B25D13B68002B22D1BB79154A126892F8712003FA02F2124B1B6893F871301946A6
:400AC00003238B4002EA03010D4B1B6893F870301A463B681A400A4B1B689B681846FB790A4303F5407340F823200023FB60FB6818461437BD465DF8047B704701004A002F
:400B0000203B000880B485B000AF03463960FB712E4BFB60FB79032B51D8FB79002B02D13B68072B11D9FB79012B02D13B680F2B0BD9FB79022B02D13B68032B05D9FB7951
:400B4000032B3CD13B68002B39D1214B1B6893F873301A46032303FA02F21D4B1B6893F8703019461A4B1B6893F8723001FA03F31A43FB791649096891F8711003FA01F1B9
:400B8000134B1B6893F871301846032383400B401A430F4B1B6893F8703019463B680B4013430B4A1268926843F00043C2F80034074B1B689B68D3F800340023FB60FB68A9
:400BC00018461437BD465DF8047B704701004A00203B000880B483B000AF0346FB710F4B1B681A680D4B1B68D3F8843013441B6823F47F42FB791B029BB2084909680868CA
:400C000006490968D1F88410014413430B6000BF0C37BD465DF8047B704700BF203B000880B582B000AF0346FB71FB79032B04D940F64A11094802F04BFF094BD3F8003523
:400C400023F00302FB7903F0030305491343C1F8003500BF0837BD4680BD00BFCCA000100000264080B582B000AF0346FB71FB790F2B04D940F64921094802F029FF094BC9
:400C8000D3F8003523F47062FB791B0203F4706304491343C1F8003500BF0837BD4680BDCCA000100000264080B582B000AF0346FB71FB79002B10D0FB79012B0DD0FB7904
:400CC000022B0AD0FB79032B07D0FB79042B04D040F66F21094802F0FBFE094BD3F8003523F4E042FB791B0303F4E04304491343C1F8003500BF0837BD4680BDCCA0001077
:400D00000000264080B400AF064BD3F80035054A43F40043C2F8003500BFBD465DF8047B704700BF0000264080B582B000AF0346FB71FB79012B04D940F6D221084802F03C
:400D4000C7FE084B1B6823F44072FB791B0203F44073044913430B6000BF0837BD4680BDCCA000100000274080B483B000AF0346FB71FEE780B582B000AF00237B607B68FE
:400D8000002B02D00520FFF7EFFF0120FFF748FF0020FFF761FD0020FFF784FD0020FFF719FF00210020FFF7F1FC00210020FFF71FFD0020FFF7C0FC0021012002F036FBE8
:400DC0000021022002F032FB0021032002F02EFB0021042002F02AFB0021002002F026FB0020FFF73FFF0020FFF75EFFFFF78AFF0020FFF799FF002003F0E2FDFFF77AFC30
:400E00000821002002F018FF002202210220FFF71FFE0B23042200210220FFF767FD00210220FFF76FFE00BF0837BD4680BD000080B400AF034B044A1A6000BFBD465DF801
:400E4000047B7047000E1F4101001180B0B58EB000AF40F2DC5002F0FFFD9621002002F0EBFE3B1D34220021184608F05BF83B1D1A460021204801F00FFA3B1D342200216A
:400E8000184608F04FF83B1D1A4601211A4801F003FAFFF76FFF3B1D24220021184608F041F84FF400233B613B1D1946124801F059FB124B3C1D1D460FCD0FC40FCD0FC4EA
:400EC0002B6823603B1D19460D4801F04BFB3B1D24220021184608F025F84FF4CC033B613B1D1946074801F03DFBFFF7A1FF00BF3837BD46B0BD00BF0000324028A100104C
:400F0000800432400006324080B400AF034B1B781846BD465DF8047B704700BF3D3B000880B586B002AF204800F000FD03461F4A13601E4B1B68002B06D01C4B1B68194688
:400F40001B4807F0F7FF02E01A4808F079F81A4B1B6B1A4A106818609188927999809A7107F1080318462DF077FA03460F4A13600E4B1B68002B06D00C4B1B68194610487B
:400F800007F0D8FF0BE03B7A19467B7A1A46BB7A1846BB89009303460A4807F0CBFF00BF1037BD4680BD00BFC90F00104C3A00084CA100106CA10010B4070008D8A1001068
:400FC00088A10010BCA1001080B588B000AF786039607B6845F21702934200F205827B68B3F5A04F50D87B6844F21002934200F2FB817B6844F2060293427DD27B6843F2D0
:401000000602934200F0F3807B6843F20602934200F2EA817B6843F20302934200F0E3807B6843F20302934200F2DE817B6843F20202934200F0D3807B6843F20202934271
:4010400000F2D2817B6842F21602934200F2CC817B68B3F5005F6FD27B6841F20202934200F0B2807B6841F20202934200F2BC817B68B3F5805F00F097807B6841F2010204
:40108000934200F09980AFE17B68A3F5A043013B162B00F2A98101A252F823F097120010C5120010DF120010E9130010E9130010E9130010E9130010E9130010E9130010E2
:4010C000E9130010E9130010F7120010E913001069130010E9130010E9130010E9130010E9130010E9130010E9130010E9130010E9130010611300107B68A3F58043063BC4
:401100000A2B00F2718101A252F823F0F7110010271200102F120010E913001071120010E9130010E9130010E9130010E9130010E9130010171200107B68A3F50053162BC1
:4011400000F2528101A252F823F000BFC1110010E9130010E9130010E9130010D7110010E9130010E9130010E9130010E91300101F120010E9130010E9130010E913001058
:40118000E9130010E9130010E9130010E9130010E9130010E913001087120010E91300107F1200108F120010964807F049FF0021002005F0DDFF21E1934807F041FF1DE19F
:4011C000924807F03DFF19E13B681B781946904807F0B0FE12E18F4807F032FF0EE18E4807F02EFF0AE18D4807F02AFF06E18C4807F026FF02E1FFF787FE0346194689486D
:4012000007F098FEFFF780FE0346002B40F0F18000F0BCFBEDE0844807F012FFEEE0834807F00EFFEAE0824807F00AFFE6E03B685B7819463B689B781A463B681B787D4873
:4012400007F078FE0021002005F092FF03467A4A1360794B1B68002B03D1784807F0F0FECCE0754B1B681946754807F063FEC5E03B685B881946734807F05CFEBEE072487E
:4012800007F0DEFEBAE0714807F0DAFEB6E0704807F0D6FEB2E03A6807F10C0312881A807B7B19463B7B1A466A4807F043FE6A4ABB899381684B21221A813B7B184610F0AB
:4012C00083F99BE03A6807F1080312881A807B7A19463B7A1A46614807F02CFE8EE03B685B88F82B28BFF823FB81FB8919465C4807F020FE82E03B683B613B691B7B194680
:401300003B691B891A46574807F014FE3B691B89222B70D13B690C333A691146184606F0FFF93B69D86812F013FC0346002B03D04D4807F085FE02E04C4807F081FE3B6983
:401340000C332121184606F0A5FA0346002B03D0474807F075FE4EE0464807F071FE4AE0454807F06DFE49E03B681B89242B44D13B681B68BB613B689B88FB75FB7DBA6997
:4013800019463E4807F0D6FD0023FB770AE0FB7FBA6913441B781946394807F0CBFDFB7F0133FB77FA7FFB7D013B9A42EFDBFB7F344AD35C1946344807F0BCFD0023FB779F
:4013C00009E0FB7FBA691A44FB7F11782D4AD154FB7F0133FB77FA7FFB7D9A42F1D3294AFB7D82F8F33008E07968284807F0A2FD04E000BF02E000BF00E000BF00BF203769
:40140000BD4680BDE0A1001008A2001014A2001028A2001044A2001064A2001084A20010ACA20010D0A2001000A3001024A300103CA3001054A300104C3A000894A300100A
:40144000B0A30010E4A300101CA4001030A4001044A400105CA400103C3A000878A4001098A40010C8A4001004A5001028A5001044A5001060A5001080A50010B4A5001002
:40148000DCA5001028030008E4A50010ECA5001080B582B000AF224B224A1A60214B93F8F3309AB21E4B9A801D491F4806F012FA03461E4A13601D4B1B68002B23D1194B7B
:4014C00093F8F330174A1946194807F033FD0023FB7109E0FB79134AD35C1946154807F029FDFB790133FB71FA790E4B93F8F330013B9A42EEDBFB790A4AD35C19460E488A
:4015000007F018FD07E0094B1B68054A128919460A4807F00FFD00BF0837BD4680BD00BF3C3A000828030008483A00084C3A000804A60010DCA50010E4A5001024A60010BF
:4015400080B582B000AF786039603B68082B04D940F20931064802F0BBFA7B681A693B6822FA03F303F0010318460837BD4680BD64A6001080B584B000AFF860B9607A6064
:40158000BB68072B04D940F227310E4802F0A0FA7B68012B04D94FF44A710A4802F098FA7B68002B05D10122BB689A40FB685A6004E00122BB689A40FB689A6000BF103745
:4015C000BD4680BD64A6001080B582B000AF786039603B68072B04D940F29D31054802F077FA01223B689A407B68DA6000BF0837BD4680BD64A6001080B483B000AF7860A5
:401600007B68D3F8403318460C37BD465DF8047B704780B483B000AF78607B68D3F80833C3F3080318460C37BD465DF8047B704780B582B000AF78607868FFF7DDFF0346AA
:4016400018460837BD4680BD80B582B000AF78607868FFF7DEFF034618460837BD4680BD80B584B000AFF860B9607A60BB68002B02D07B68002B04D140F27351064802F02A
:4016800027FA7A68B968F86803F0DBFA034618461037BD4680BD00BFBCA6001080B400AF034B1B781846BD465DF8047B704700BF3D3B000880B483B000AF0023FB700023C9
:4016C0007B600BE00A4A7B6813441B78012B02D9FB780133FB707B6801337B607B68002BF0D0FB7818460C37BD465DF8047B7047443B000880B500AFFFF7D0FF0346022BE2
:4017000009D1002205211248FFF734FF04211048FFF75AFF19E0FFF7CDFF0346002B0AD1012205210A48FFF725FF002204210848FFF720FF09E0002205210548FFF71AFF40
:40174000002204210248FFF715FF00BF80BD00BF0006324080B584B000AFF860B9607A607B681A46B9680448FFF77AFF034618461037BD4680BD00BF0000634080B500AFA5
:4017800062B600BF00F0A8F8FFF7CAFB012204212C48FFF7EFFE2CF06FFE04212A48FFF7CFFE0346002B0BD0284B1B680133274A1360264B1B68052B1AD1FFF769FE17E0C5
:4017C000224B00221A6013E0214B1B78EF2B0CD82048FFF72DFF1E4B1B785A1CD1B21C4A11701A46C1B21C4B99541C4B64221A601848FFF729FF0346002BE5D1174B1B686F
:40180000002B10D0154B1B685A1E14490A60012B09D10F4B1A78104B83F8F320FFF738FE0B4B00221A700E4B1B6801330C4A13600B4B1B68C3F30D03012BACD1FFF75AFF02
:40184000A9E700BF0006324000003240503A00085C3A00080000634028030008543A0008583A000880B483B000AF0346FB80B7F90630002B0BDBFB8803F01F020749B7F991
:4018800006305B09012000FA02F241F8232000BF0C37BD465DF8047B704700BF00E100E080B483B000AF78607B681B6843F000427B681A6000BF0C37BD465DF8047B70473D
:4018C00080B500AF0249034803F0DEFD00BF80BD643A00080000634080B500AF0D4B1B78002B0BD10C4A0D490D4803F047FB0D490D4802F043F8074B01221A700A4BB3F977
:4019000000301846FFF7AEFF0548FFF7C9FF00BF80BD00BF603A0008643A000834A7001000006340C11800102CA7001080B584B000AF78600023FB607B68002B17D00F4A52
:401940007B68D3620E4B1B78002B09D10B4B0D4A5A630A4804F0E8FBF860094B01221A70FB68002B05D104F01BFCF86001E0064BFB60FB6818461037BD4680BDB407000813
:401980009C3A000824A700100100160080B500AF04F0A8FC0346184680BD000080B483B000AF0346FB80B7F90630002B0BDBFB8803F01F020749B7F906305B09012000FADA
:4019C00002F241F8232000BF0C37BD465DF8047B704700BF00E100E080B400AF074B1B681A68064B1B68D3F8843013441B681B0EDBB21846BD465DF8047B7047203B0008FB
:401A000080B400AF074B1B681A68064B1B68D3F8843013441B681B0ADBB21846BD465DF8047B7047203B000880B582B000AF78600E4B1B6893F831301A467B68934204D399
:401A400040F2C3110A4802F043F8084B1B681A6A064B1B68B3F8B03019467B6801FB03F3134418460837BD4680BD00BF203B0008B0AA001080B483B000AF78607B68DB6820
:401A800018460C37BD465DF8047B704780B483B000AF7860074B1B68D3F8B4207B6813441B68DB0FDBB218460C37BD465DF8047B704700BF203B000880B584B000AFF860A0
:401AC000B9607A607B68002B04D140F29331074801F0FEFF7B681A46B968F86800F086FE034618461037BD4680BD00BFB0AA001080B584B000AF78601C4A7B6813601B4B3C
:401B00001B68002B0BD0194B1B6802221A70174B1B68FF225A70154B1B6800225A80144B1B6893F85030002B1CD0114B1B68B3F938303B810023FB6007F108030D491846F0
:401B400001F01CFFB7F908301846FFF727FF084B1B6893F85130002B04D002220649012001F03AFB00BF1037BD4680BDA43A0008203B0008190E0008350B000880B500AF72
:401B80000248FFF7B5FF00BF80BD00BFC83A000890B585B000AF78603960244BFB60786800F022F90346002B3BD03B68002B38D0FEF7F4FB1E4B1F4A1A601D4B00225A6054
:401BC0001B4A7B6893603B68194AD3601A4B1B6893F85230002B1ED0FFF7FEFE03465C1CFFF70EFF0346013304FB03F3134A03FB02F2134B1B681349A1FB03139B09B2FBAC
:401C0000F3F303F51953083319464FF4807008F03FFAF86005E000214FF4807008F038FAF860FB6818461437BD4690BD06005200A83A000800010005203B0008C0EA210176
:401C400090020008D34D621080B500AF00F074F90346184680BD000090B585B000AF7860274BFB60786800F0BFF80346002B41D0FEF794FB234B4FF0E0521A60224B1B785C
:401C8000DBB2002B05D01F4B1B6843F480731D4A13601C4A7B6853601A4B00229A60194B0022DA60194B1B6893F85430002B1CD0FFF792FE03465C1CFFF7A2FE0346013302
:401CC00004FB03F3124A03FB02F2124B1B681249A1FB03139B09B2FBF3F303F698031946002008F0D5F9F86004E00021002008F0CFF9F860FB6818461437BD4690BD00BFF4
:401D000006005200A83A00080B000016203B000860F5900090020008D34D621090B585B000AF78603960294BFB60786800F05CF80346002B45D03B68002B42D0FEF72EFBB8
:401D4000234B4FF0C0621A60224B1B78DBB2002B05D01F4B1B6843F480731D4A13601C4B4FF480725A601A4A7B6893603B68184AD360194B1B6893F85330002B1CD0FFF7D2
:401D80002BFE03465C1CFFF73BFE0346013304FB03F3124A03FB02F2114B1B681149A1FB03139B09B2FBF3F303F561731946002008F06EF9F86004E00021002008F068F9A8
:401DC000F860FB6818461437BD4690BD06005200A83A00080B000016203B0008808D5B0090020008D34D621080B483B000AF78607B68C3F30803002B0CBF01230023DBB279
:401E000018460C37BD465DF8047B704780B485B000AF78607B683E4A93426FD87B68B3F1704F32D87B683B4A934254D07B68394A934263D87B68B3F1204F3CD07B68B3F14C
:401E4000204F5BD87B68344A934248D07B68324A934253D87B68B3F5807F4CD07B68B3F5807F4BD87B68802B42D07B68802B45D87B68402B39D07B68402B3FD87B68002BAB
:401E800016D07B68102B2DD038E07B6803F18053013B042B32D801A252F823F0BD1E0010FD1E0010C51E0010CB1E0010D11E00100023FB6025E00023FB6022E04FF4A403FC
:401EC000FB601EE0154BFB601BE0154BFB6018E0144BFB6015E04FF4A003FB6011E00E4BFB600EE0104BFB600BE0104BFB6008E00F4BFB6005E0084BFB6002E00D4BFB6081
:401F000000BFFB6818461437BD465DF8047B7047050000F0090000A006005200010052000200520003005200010050000200500005005200FF00520080B582B000AF134B97
:401F40007B600120FFF770FD03461846FFF79EFD034683F00103DBB2002B12D00C4B1B681846FFF753FF78600A4B1B685B681A460123936000BF074B1B685B689B68002B81
:401F8000F9D17B6818460837BD4680BD02005000A83A0008203B000880B588B000AFF860B9601346FB71BB68072B04D94FF42271264801F08DFDFB7923F01F03002B04D00D
:401FC00040F28921214801F083FDFA68204B1B689B69D31ADB09FB611D4B1B685A69FB691B011344BB61BB68032B14D8BB691A68BB68DB001F2101FA03F3DB4313407B61AA
:40200000FB7903F01F02BB68DB009A407B691A43BB691A6016E0BB68043BBB60BB695A68BB68DB001F2101FA03F3DB4313407B61FB7903F01F02BB68DB009A407B691A43EB
:40204000BB695A6000BF2037BD4680BD0CAB0010203B000880B584B000AFF860B9607A60BB68072B04D940F227310E4801F030FD7B68012B04D94FF44A710A4801F028FD1D
:402080007B68002B05D10122BB689A40FB685A6004E00122BB689A40FB689A6000BF1037BD4680BD0CAB001080B586B000AFF860B9607A60BB68072B04D94FF47171194874
:4020C00001F006FD7B6823F00F03002B04D040F2C531144801F0FCFCBB689B007B61124B1B6893F87D301A46FB6813441A680F217B6901FA03F3DB4313403B617B6803F042
:402100000F027B699A40084B1B6893F87D301946FB680B4419463B6913430B6000BF1837BD4680BD0CAB0010203B000880B586B000AFF860B9607A60BB68072B04D940F2AC
:402140000341174801F0C4FC7B68012B04D940F20441134801F0BCFC124B1B6893F87E301A46FB6813441A680121BB6801FA03F3DB4313407B617B6803F00102BB689A4096
:40218000084B1B6893F87E301946FB680B4419467B6913430B6000BF1837BD4680BD00BF0CAB0010203B000880B586B000AFF860B9607A60BB68082B04D940F269611048D8
:4021C00001F086FC7B68012B04D940F26A610C4801F07EFCFB689A690121BB6801FA03F3DB4313407B617B6803F00102BB689A407B691A43FB689A6100BF1837BD4680BD18
:402200000CAB001080B586B000AFF860B9607A60BB68082B04D94FF4DD611D4801F058FC7B68002B0DD07B68012B0AD07B68022B07D07B68032B04D040F2E961144801F0AB
:4022400047FCBB685B007B61124B1B6893F87C301A46FB6813441A6803217B6901FA03F3DB4313403B617B6803F003027B699A40084B1B6893F87C301946FB680B441946F2
:402280003B6913430B6000BF1837BD4680BD00BF0CAB0010203B000880B588B000AFF860B9607A609C4BFB61FB68002B00F052817B68002B00F04E81BB68072B03D9452123
:4022C000964801F005FC7B681B68012B03D94621924801F0FDFB7B685B6823F00F03002B03D047218D4801F0F3FB7B681B7A23F01F03002B03D04821884801F0E9FB7B68F5
:40230000DB68002B0FD07B68DB68012B0BD07B68DB68022B07D07B68DB68032B03D049217E4801F0D5FB7B681B69012B03D94A217A4801F0CDFB7B685B69012B03D94B2171
:40234000764801F0C5FB7B689B69012B03D94C21724801F0BDFB7B68DB69002B0FD07B68DB69012B0BD07B68DB69022B07D07B68DB69032B03D04D21684801F0A9FB7B68E7
:402380001B6A012B03D94E21644801F0A1FB7B685B6A012B03D94F21604801F099FB7B689B6A012B03D950215C4801F091FB7B68DB6A002B0FD07B68DB6A012B0BD07B68D5
:4023C000DB6A022B07D07B68DB6A032B03D05121524801F07DFB7B681B6B002B1FD07B681B6B012B1BD07B681B6B022B17D07B681B6B032B13D07B681B6B042B0FD07B68A2
:402400001B6B052B0BD07B681B6B062B07D07B681B6B072B03D05221404801F059FB7B681B681A46B968F868FFF714FE7B685B681A46B968F868FFF737FE7B681B7A1A4613
:40244000B968F868FFF7A8FD7B68DB681A46B968F868FFF7D7FE7B681B691A46B968F868FFF7A2FE7B685B691A46B968F868FFF75DFE0122BB689A40BB685B0010330321B2
:4024800001FA03F31343BB61254B1B6893F87F301A46FB6813441A68BB69DB4313407B617B689B6903F00102BB689A407B691A437B68DB6903F00301BB685B00103301FA8A
:4024C00003F31749096891F87F100846F968014413430B60124B1B6893F880301A46FB6813441B6823F0FF037B617B681B6A03F001027B685B6A5B0003F002031A437B6806
:402500009B6A9B0003F004031A437B68DB6ADB0003F0180306E000BF01005A0064AB0010203B00081A437B681B6B5B01DBB21A43BB689B0003F47E739A40094B1B6893F823
:4025400080301946FB680B4419467B6913430B600023FB61FB6918462037BD4680BD00BF203B000880B586B000AF78603960524B7B617B68002B00F099803B68002B00F0C3
:4025800095803B681B6823F0FF03002B03D099214A4801F09DFA3B681B6923F0FF03002B03D09A21454801F093FA3B689B685B0D5B05002B03D09B21404801F089FA3B6832
:4025C0005B6823F4FF7323F00103002B03D09C213A4801F07DFA3B68DB6903F06043002B03D09D21354801F073FA3B681B6A03F06043002B03D09E21304801F069FA7A6896
:402600002F4B1B689B69D31ADB093B612C4B1B685A693B691B011344FB603B681A687B681A60274B1B6893F87D301A467B6813441A463B68DB681360214B1B6893F87E30D3
:402640001A467B6813441A463B681B6913601C4B1B6893F87F301A467B6813441A463B685B691360164B1B6893F87C301A467B6813441A463B689B6813603B685A687B6858
:402680009A610F4B1B6893F880301A467B6813441A463B689B6913603B68DA69FB681A603B681A6AFB685A6000237B617B6918461837BD4680BD00BF01005A0064AB0010E3
:4026C000203B000880B582B000AF786039603B681B0C1B04002B04D040F2BB21054801F0F7F93B689AB27B689A6000BF0837BD4680BD00BFBCAB001080B582B000AF78609E
:4027000039603B681B0C1B04002B04D040F2D521054801F0DDF93B689AB27B685A6000BF0837BD4680BD00BFBCAB001080B483B000AF786039607B683A68DA6000BF0C3794
:40274000BD465DF8047B704780B483B000AF78607B68DB6818460C37BD465DF8047B704780B483B000AF7860074B1B68D3F8B4207B6813441B68DB0FDBB218460C37BD464E
:402780005DF8047B704700BF203B000880B483B000AF78607B681B68002B01DA002300E0034B18460C37BD465DF8047B704700BF01008A0080B584B000AF786039607868DF
:4027C000FFF7CEFF0346002B06D039687868FFF793FF0023FB6001E0034BFB60FB6818461037BD4680BD00BF01008A0080B586B000AFF860B9607A60F868FFF7C7FF03465F
:40280000002B0AD17968F868FFF790FFB968F868FFF758FF00237B6101E0034B7B617B6918461837BD4680BD01008A0080B584B000AF786039603B68002B03D199210C485F
:4028400001F046F97868FFF78BFF0346002B08D07868FFF779FF02463B681A600023FB6001E0044BFB60FB6818461037BD4680BD18AC001001008A0080B582B000AF78602B
:402880000E4B1B6893F831301A467B68934204D340F2C3110A4801F01BF9084B1B681A6A064B1B68B3F8B03019467B6801FB03F3134418460837BD4680BD00BF203B0008C1
:4028C00074AC001080B483B000AF78607B68DB6818460C37BD465DF8047B704780B584B000AFF860B9607A607B68002B04D140F29331074801F0ECF87B681A46B968F86841
:40290000FFF774FF034618461037BD4680BD00BF74AC001080B483B000AF78607B681B68002B01DA002300E0034B18460C37BD465DF8047B704700BF01008A0080B586B082
:4029400000AFF860B9607A60144B7B617B68002B0BD1BB68002B08D1F868FFF78DFF03460F4A136000237B6113E07B68002B0ED0BB68002B0BD00B4ABB681360094A7B68F2
:4029800053600849F86800F00FF8786101E0034B7B617B6918461837BD4680BD03018A00CC3A0008D03A000880B584B000AF78603960284BFB60284B1B6893F831301A46C0
:4029C0007B68934202D3234BFB603EE03B68002B39D03B681B6803F01F03002B30D17868FFF74AFF03461D4A13603B6858683B681B68DB081A46002106F094FA174B1B688D
:402A000000211846FFF7D6FE144B1B683A6800211846FFF763FF0346002B0ED10F4B1B6800211846FFF7C6FE0346002B02D10023FB600AE00A4BFB6007E0094BFB6004E0B0
:402A4000044BFB6001E0034BFB60FB6818461037BD4680BD03018A00203B0008CC3A000801018A0080B588B000AF78600B46FB700023FB612E4BBB612E4B1B681846FFF73B
:402A800021FF03467B617B691B687A689A4248D27B685B093B613B695B017A68D31A012202FA03F3FB60FB7883F00103DBB2002B02D001F092F9F8611E4B1B681846FFF7E7
:402AC00029FF0346002B22D17B695A683B699B0013441A68FB681340002B10D17B695A683B699B00134419687B695A683B699B001344FA680A431A600023BB6101E00E4B2C
:402B0000BB610C4B1B6800211846FFF753FEFB7883F00103DBB2002B05D0F86901F061F901E0064BBB61BB6918462037BD4680BD03018800CC3A00080201880004018A009B
:402B400080B588B000AF78600B46FB700023FB612F4BBB612F4B1B681846FFF7B3FE03467B617B691B687A689A4249D27B685B093B613B695B017A68D31A012202FA03F362
:402B8000FB60FB7883F00103DBB2002B02D001F024F9F8611F4B1B681846FFF7BBFE0346002B23D17B695A683B699B0013441A68FB681340002B11D07B695A683B699B0018
:402BC00013441968FB68DA437B6958683B699B0003440A401A600023BB6101E00E4BBB610C4B1B6800211846FFF7E4FDFB7883F00103DBB2002B05D0F86901F0F2F801E036
:402C0000064BBB61BB6918462037BD4680BD00BF03018800CC3A00080201880004018A0080B586B000AF7860164B1B681846FFF749FE03463B613B691B687A689A421AD274
:402C40007B685B09FB60FB685B017A68D31A012202FA03F3BB603B695A68FB689B0013441A68BB681340002B02D0074B7B6104E0064B7B6101E0064B7B617B691846183766
:402C8000BD4680BDCC3A0008010188000001880004018A0080B483B000AF0346FB80B7F90630002B0BDBFB8803F01F020749B7F906305B09012000FA02F241F8232000BFD8
:402CC0000C37BD465DF8047B704700BF00E100E080B582B000AF78600E4B1B6893F831301A467B68934204D340F2C3110A4800F0EFFE084B1B681A6A064B1B68B3F8B030F0
:402D000019467B6801FB03F3134418460837BD4680BD00BF203B0008D0AC001080B582B000AF78600C4B1B6893F832301A467B68934204D340F2DF11084800F0C9FE064B5F
:402D40001B681B6A1A467B6880335B01134418460837BD4680BD00BF203B0008D0AC001080B584B000AFF860B9607A607B681B0C1B04002B04D04FF4FF710C4800F0A8FEEF
:402D8000BB681B0C1B04002B04D040F2FF11074800F09EFE7B681A04BB689BB21A43FB689A6000BF1037BD4680BD00BFD0AC001080B483B000AF78607B68DB6818460C371D
:402DC000BD465DF8047B704780B483B000AF78607B681B6818460C37BD465DF8047B704780B584B000AFF860B9607A607B681B0C1B04002B04D04FF426710D4800F068FEB2
:402E0000BB681B0C1B04002B04D040F29921084800F05EFE7B681A04BB689BB21A43FB681A60FB681B6800BF1037BD4680BD00BFD0AC001080B582B000AF786039603B6856
:402E40001B0C1B04002B04D040F2BB21054800F03FFE3B689AB27B689A6000BF0837BD4680BD00BFD0AC001080B483B000AF786039607B683A68DA6000BF0C37BD465DF890
:402E8000047B704780B483B000AF7860074B1B68D3F8B4207B6813441B68DB0FDBB218460C37BD465DF8047B704700BF203B000880B483B000AF78607B681B0C18460C375C
:402EC000BD465DF8047B704780B483B000AF78607B689BB218460C37BD465DF8047B704780B582B000AF786039603B68002B04D140F2B631054800F0EBFD39687868FFF718
:402F000095FC034618460837BD4680BDD0AC001080B483B000AF78607B681B68002B01DA002300E0034B18460C37BD465DF8047B704700BF01008A0080B483B000AF78603C
:402F4000064B1B68002B02D1044A7B68136000BF0C37BD465DF8047B704700BFD83A0008B0B590B002AF78607B68002B03D152212E4800F0ADFD7B689B69072B03D9562173
:402F80002A4800F0A5FD7B68DB6A002B03D15821264800F09DFD7B681B6B002B03D15921224800F095FD7B6807F11C0403F114050FCD0FC42B6823607B6807F108041D4690
:402FC0000FCD0FC42B682360194B1B68B3F936309AB2FB699BB213449BB21BB23B863B6A7B63B86A7B68D96A7B689A6AFC6A07F130030093234600F01DF87869BB69002279
:4030000000920022002100F015F87B681A6B07F130031146184600F0B1FCB7F930301846FFF738FE00BF3837BD46B0BD2CAD0010203B000880B586B000AFF860B9607A60F0
:403040003B60254B1B68002B03D1B521234800F03FFD214B1A68FB682C2101FB03F313447B613B68DAB27B691A603B681B0ADAB27B695A603B681A0C7B699A607B691B6806
:403080001846FFF725FE02467B691A617B695B681846FFF743FE02467B695A617B6958697B6999687B699B681A46FFF759FE7B697A68DA617B69BA681A627B6900229A612D
:4030C0003B6A002B04D03B6AB3F900207B699A8100BF1837BD4680BDD83A00082CAD001080B58AB000AFF860B9607A603B607B68002B03D1FD21344800F0EAFC334B1B6814
:40310000002B03D1FE21304800F0E2FC2F4B1A68FB682C2101FB03F313443B622B4B1A68BB682C2101FB03F31344FB61FB695B68012202FA03F3BB61BB691B04BB613B6A30
:403140005B68012202FA03F37B613B6A1B69002B32D0FB699B69002B2BD13B6A1B691846FFF7D6FE0346002B20D17B681B689AB27B681A607B681A68BB691A437B681A60AE
:403180003B6A1B697A6811461846FFF76DFEFB6901229A61FB693A685A623B6A1B6979691846FFF747FE00237B6207E0084B7B6204E0074B7B6201E0064B7B627B6A18468A
:4031C0002837BD4680BD00BF2CAD0010D83A000807028A0004028A0080B586B000AFF860B9607A60174B1B68002B04D14FF4AF71154800F06DFC134B1A68FB682C2101FB5C
:4032000003F313443B613B691B6A002B04D14FF4B1710D4800F05CFC3B69DB697A689A4209D23B691A6A7B689B001344BA681A6000237B6101E0054B7B617B6918461837C3
:40324000BD4680BDD83A00082CAD00100A028A0080B584B000AF78600B4B1B68002B04D140F2B111094800F033FC074B1A687B682C2101FB03F31344FB60F86800F008F850
:4032800000BF1037BD4680BDD83A00082CAD001090B589B000AF78600023FB600023FB617B68002B04D140F2D1114C4800F010FC7B681B69002B04D14FF4E971474800F0B9
:4032C00007FC7B685B69002B04D140F2D311434800F0FEFB7B681B6A002B04D14FF4EA713E4800F0F5FB7B685B691846FFF760FDB861B869FFF7DCFD0346002B3ED07B6868
:403300005C69B869FFF7D4FD03461A4600212046FFF766FD7B681B691846FFF7B3FD0346002B2BD07B681B6907F10C0211461846FFF7D6FD0346002B1AD1FB681B681B0C26
:40334000FB61FB681B68DBB27B617B68DB697A699A420DD27B681A6A7B699B0013441B683B613B69002B03D0FA683B69104698477B681B69F9691846FFF71CFAB869FFF75A
:40338000A3FD0346002B1FD07B685C69B869FFF79BFD0346002219462046FFF721FD7B685B6A002B06D07B685B6A98477B6800225A6206E07B689B6A002B02D07B689B6ACB
:4033C00098477B6800229A617B685B691846FFF7FBFC00BF2437BD4690BD00BF2CAD001080B582B000AF0346FB710E4B1B689A6CFB7922FA03F303F00103002B03D1BE21E2
:40340000094800F065FB074B1B681B691A46FB7910339B0213441B6803F00F0318460837BD4680BD203B000888AD001080B485B000AF78600B467B801B4BFB601B4B1B6894
:4034400093F83C301A467B68934225D27B88042B06D97B88FF2B1FD97B88B3F58A7F1BD27B88FF2B0ED97B88114903F01F027B68C03341F823200E4A7B68D033042142F8FB
:40348000231007E07B880A4903F007027B68D03341F823200023FB60FB6818461437BD465DF8047B704700BF01004A00203B00080000264080B584B000AF7860144B1B6881
:4034C00093F83C301A467B68934204D34FF4A171104800F0FDFA104A7B68D03352F823309BB203F00703FB81FB89042B0BD10A4A7B68C03352F823309BB203F01F039BB2AA
:4035000043F48073FB81FB8918461037BD4680BD203B00083CAE00100000264080B489B000AF03463960FB801346BB80874BFB610023BB6100237B6100233B610023FB6003
:40354000FB88B3F5C26F80F0F980BB88B3F5C26F80F0F4803B68B3F1807F80F0EF807C4B01221A70FB88FF2B12D8FB8803F00F03BA691343BB617B6943F007037B613B6918
:4035800043F00F033B61FB6843F00F03FB6034E0FB88B3F5A06F0AD2FB8803F00F037A6913437B61FB6843F00F03FB6025E0FB881B0A9BB203F00F037A6913437B61FB68E6
:4035C00043F00F03FB60FB88B3F5C06F0AD2FB881B01DBB27A6913437B61FB6843F0F003FB600AE0FB881B0203F470637A6913437B61FB6843F47063FB60BB88FF2B12D848
:40360000BB881B01DBB2BA691343BB617B6943F4E0237B613B6943F0F0033B61FB6843F47023FB6037E0BB88B3F5A06F0BD2BB881B0403F470237A6913437B61FB6843F498
:403640007023FB6027E0BB881B0A9BB21B0403F470237A6913437B61FB6843F47023FB60BB88B3F5C06F0BD2BB881B0503F470037A6913437B61FB6843F47003FB600AE02F
:40368000BB881B0603F070637A6913437B61FB6843F07063FB6000BF2E4B1B681A6A2D4B1B68B3F8B03019460B46DB005B1A13441B68002BF0DA284B1B7883F00103DBB269
:4036C000002B04D1254BD3F81C35002B27DA244B41F61F721A60234B43F63D521A601F4BD3F818253B69DB431A401C49BB691343C1F81835194BD3F81425FB68DB431A40FB
:4037000016497B691343C1F81435174A3B681360124A154B1B68C2F81C350023FB610D4B1B681A6A0B4B1B68B3F8B03019460B46DB005B1A13441A4600235360FB6918469C
:403740002437BD465DF8047B704700BF01004A00E03A0008203B0008E13A0008000026400801264004012640DC3A00082DE9B04F96B000AF0346B96487F84F3000237B65DF
:40378000002387F85330624A0023137000BF614B1B68196A5F4B1B68B3F8B0301A461346DB009B1A0B441B68002BF0DA5A4B1A6841F61F739A4207D1584B1A6843F63D53C7
:4037C0009A4201D1012300E0002387F8533097F8533003F0010387F85330514BD3F8203523F07F437B654B4B1B68196A494B1B68B3F8B0301A461346DB009B1A0B441A4640
:403800000023536097F85330002B78D07B6D002B75D097F84F3083F00103DBB2002B39D0404B1B6800223B647A64BB6C0022BB63FA63D7E910452B46D7E90EAB524602FB8A
:4038400003F25B46214601FB03F3134422465146A2FB01894B4499467B6D5B0800223B637A63D7E90C120B4618EB0303BB62134649EB0303FB627B6D00223B627A62D7E9FE
:403880000823D7E90A0105F0ADF902460B4613467B6536E07B6D0022BB61FA61BB6C00229A469346D7E906010B460AFB03F2034603FB0BF313440246A2FB0A452B441D4658
:4038C000184B1B685B0800223B617A61D7E904120B46E318BB60134645EB0303FB60114B1B6800223B607A60D7E90023D7E9020105F078F902460B4613467B6501E0002367
:403900007B657B6D18465837BD46BDE8B08F00BFE03A0008203B0008080126400401264000002640DC3A000880B483B000AF03463960FB80B7F90630002B0ADB3B68DAB2B1
:403940000C49B7F906305201D2B20B4483F800230AE03B68DAB20849FB8803F00F03043B5201D2B20B441A7600BF0C37BD465DF8047B704700E100E000ED00E080B584B0DA
:4039800000AF786039600023FB607B68002B1DD07B685B68072B03D93221104800F098F87B68B3F900207B685B6819461046FFF7BBFF0B4B9B680B4A934209D17B68B3F9E9
:4039C00000303968184600F011F801E0064BFB60FB6818461037BD4680BD00BFF0AE001000ED00E0000000080100560080B584B000AF03463960FB80134B9B68134A934229
:403A000016D13B68002B04D140F23711104800F05FF8B7F9063010330C4A52F82330FB60B7F90630103309493A6841F8232006E0B7F906301033074A52F82330FB60FB6818
:403A400018461037BD4680BD00ED00E000000008F0AE00100000001080B582B000AF786008E00C4B1B68184600F0AEF97B68A3F500437B607B68B3F5004FF2D8064B1B6818
:403A80007A6802FB03F3184600F09EF900BF0837BD4680BDA8020008A002000880B582B000AF0346FB80FB88054A127802FB03F3184600F089F900BF0837BD4680BD00BFBC
:403AC000A402000880B483B000AF786001BEFEE780B582B000AF7860396018227968044805F0B6FA034A3B6813600020FFF7EAFF201300083813000880B400AF054B1B684D
:403B00005B681A460123936000BFBD465DF8047B704700BF203B000880B582B000AF78607B681B68404A13607B685B683E4A53607B689B683C4A93607B68DB683A4AD3606E
:403B40007B681B69384A13617B685B69364A53617B689B69344A93617B68DB69324AD361324B9B6A304A1362304BDB6A2E4A53622E4B5B6A2C4A93622C4B5B6B2A4AD362F0
:403B80002A4B9B6B284A1363F1EE103A03F09003002B43D07B681B6A234A53637B685B6A214A93637B689B6A1F4AD3637B68DB6A1D4A13647B681B6B1B4A53647B685B6B66
:403BC000194A93647B689B6B174AD3647B68DB6B154A13657B681B6C134A53657B685B6C114A93657B689B6C0F4AD3657B68DB6C0D4A13667B681B6D0B4A53667B685B6DD5
:403C0000094A93667B689B6D074AD3667B68DB6D054A13677B681B6E034A536700F008F800BF0837BD4680BD3C13000800ED00E080B400AFFEE7000080B485B000AF0346E1
:403C40003960FB71FB79002B01D0192300E06423BB603A68BB689A428CBF01230023DBB2FB60584B1B681B68564A1268B2F8A82013441B6823F00302FB6803F003035149D9
:403C8000096809684F480068B0F8A800014413430B604C4B1B681B684A4A1268B2F8A82013441B68474A1268126846490968B1F8A8100A4423F440731360424B1B681B68D2
:403CC000404A1268B2F8AA2013441B6823F00302FB6803F003033B490968096839480068B0F8AA00014413430B60364B1B681B68344A1268B2F8AA2013441B68314A126895
:403D0000126830490968B1F8AA100A4423F440731360FB79002B0CD03B68102B06D93B68212B01D8012302E0022300E00023FB6033E0244B1B6893F855301A463B689342BB
:403D400029D9204B1B6893F856301A463B6893421FD91C4B1B6893F857301A463B68934215D9184B1B6893F858301A463B6893420BD9144B1B6893F859301A463B6893422D
:403D800001D8042308E0052306E0032304E0022302E0012300E00023FB600A4B1B685B681B6823F00F02FB6803F00F0305490968496813430B6000BF1437BD465DF8047BBE
:403DC000704700BF203B00080230800803D001300238FCD100BF00BF7047EFF3108072B6704780F31088704780B400AF4FF0B0535B78DBB2002B04D04FF0B0535B78DBB2B7
:403E000000E021231846BD465DF8047B704780B400AF4FF0B0539B899BB2002B04D04FF0B0539B899BB201E04FF480731846BD465DF8047B7047000080B483B000AF0023EE
:403E40007B60094B1B6893F84430002B04D0074B9B6903F007037B607B68DBB218460C37BD465DF8047B7047203B00080000264080B582B000AF78600E4B1B6893F8313046
:403E80001A467B68934204D340F2C3110A48FFF71FFE084B1B681A6A064B1B68B3F8B03019467B6801FB03F3134418460837BD4680BD00BF203B00084CAF001080B483B0F3
:403EC00000AF78607B68DB6818460C37BD465DF8047B704780B483B000AF7860074B1B68D3F8B4207B6813441B68DB0FDBB218460C37BD465DF8047B704700BF203B0008FF
:403F000080B586B000AF0346FB7100233B6100237B61FB79002B07D0FB79012B04D04FF4E0712548FFF7D4FD244A3B6952F82330002B04D00121002000F070FA78617B693B
:403F4000002B2ED1FFF749FFF8601C4A3B6952F82330002B03D00421002000F05FFA184B1B69174A23F004031361FB79012B01D030BF08E020BF134B1B78002B00D020BF86
:403F8000104B01221A70F868FFF72BFF0B4A3B6952F82330002B0AD00821002000F03EFA05E00221002000F039FA074B7B617B6918461837BD4680BDA8AF0010E43A000896
:403FC00000ED00E0F83A0008FF00420080B584B000AF0346FB71FB79022B07D0FB79052B04D040F202712648FFF772FD254BFB6000F0C2FC0346002B3DD0FFF7EEFEB86050
:40400000FB79022B09D1012000F0CEFAF860FB68002B11D100F054FB0EE01B4B5B6923F00703194A43F0030353613420FFF736FD00F052FC0023FB60FB68002B18D1124B93
:404040005B6923F00702FB7903F007030E4913434B61FB79022B02D100F0FEFB08E09120FFF71CFD00F092FB002000F09DFAF860B868FFF7B6FEFB6818461037BD4680BD03
:40408000A8AF0010030042000000264080B584B000AF0346FB71FB79002B07D0FB79012B04D040F262711648FFF712FD0023FB73FB79002B03D1134B5B69DB0FFB73124BF4
:4040C0001B6893F84430002B14D0FB79012B11D10C4B9B6903F08043002B03D1094B9B69002B01DA012300E00023FB73FB7B03F00103FB73FB7B18461037BD4680BD00BFB5
:40410000A8AF001000002640203B000880B584B000AF03460A46FB711346BB71214B1B6893F84430002B38D0FB79002B19D0FB79012B16D0FB79022B13D0FB79032B10D078
:40414000FB79042B0DD0FB79052B0AD0FB79062B07D0FB79072B04D040F2CC711248FFF7B7FCFFF769FE0346FB60FB79FA689A4213D00E4B9B6923F00702FB7903F0070359
:404180000A4913438B61BB79002B06D0FB79FA689A4202D2C820FFF781FC00BF1037BD4680BD00BF203B0008A8AF00100000264080B586B000AF0346FB71FB79002B07D0DA
:4041C000FB79012B04D04FF402613B48FFF780FC3A4B7B6100F0D0FB0346002B67D0FFF7FCFDF860FB79002B16D1354B03F5E0431A460023C2F8303F4FF0B05393F8403791
:40420000DBB23B61012000F0CFF978617B69002B28D100F055FA25E04FF0B053284A03F58053D3F8103802F5E042C2F8303F4FF0B05393F84137DBB23B61214B03F57043FE
:40424000D3F81C3F23F01F031D4A43F00B0302F57042C2F81C3F0320FFF720FC00F03CFB00237B617B69002B1ED1154B03F57043D3F81C3F23F01F023B6903F01F031049AD
:40428000134301F57042C2F81C3FFB79002B02D100F0E2FA08E00720FFF700FC00F076FA002000F081F97861F868FFF79AFD7B6918461837BD4680BDA8AF0010030042007F
:4042C0000000264080B487B000AF78600023FB757B68002B3BD07B68DB68002B37D07B681B68002B33D07B681B79BB600123FB751A4ABB6852F823303B610023FB600BE07F
:404300003A697B689A4202D10023FB7507E03B69FB603B695B693B613B69002BF0D1FB7D002B14D00D4ABB6852F82330002B05D10A49BB687A6841F8232002E0FB687A68A1
:404340005A617B68FA681A617B6800225A61FB7D18461C37BD465DF8047B7047E43A000880B487B000AF78600023FB757B68002B4AD07B681B79FB60274AFB6852F8233035
:404380003B6109E03A697B689A4202D10123FB7505E03B695B693B613B69002BF2D1FB7D002B31D01C4AFB6852F823307A689A421CD1194AFB6852F823305B69002B0FD04E
:4043C000154AFB6852F823305A691349FB6841F82320114AFB6852F8233000221A6113E00D4AFB68002142F823100DE03B691B693A6952695A613B695B69002B04D03B69F4
:404400005B693A6912691A61FB7D18461C37BD465DF8047B704700BFE43A000880B586B000AF03460A46FB711346BB71FB79002B10D0FB79012B0DD0FB79022B0AD0FB79F4
:40444000042B07D0FB79032B04D040F6B2114148FFF73EFBBB79012B0DD0BB79022B0AD0BB79042B07D0BB79082B04D040F6B3113848FFF72DFB00237B61FB79364A52F84D
:4044800023303B61BB79042B1FD0BB79012B27D11BE0BA793B699B681340002B12D13B69DB681B68BB603B69DB685B68FB603B691B68B97907F10802104698477861274AC9
:4044C0003B6913603B695B693B613B69002B3AD07B69234A9342DCD1BB79012BD9D132E0BB79022B08D002E03B695B693B613B695B69002BF8D122E0184B1B683B613B6936
:40450000002B1CD03B691B693B6118E0BA793B699B681340002B0FD13B69DB681B68BB603B69DB685B68FB603B691B68B97907F108021046984778613B691B693B613B6915
:40454000002BE3D100E000BF7B6918461837BD4680BD00BFA8AF0010E43A00081C3B0008FF00420080B582B000AFFFF736FC78600B4B5A680B4B1340094A43F46853536031
:40458000074B5A680649074B13404B60044B5B687868FFF726FC00BF0837BD4680BD00BF00002640FF00FC0F80B588B000AF0346FB71FB79012B07D0FB79002B04D040F6E0
:4045C0004C213848FFF784FA374BFB61FFF70CFC0346FB82FFF71BFC0346BB820E20FEF7FFFE0346002B1BD1BB8AB3F5807F17D1FB8A222B14D82D4B1B685B6803F57043AA
:404600009B6923F08072FB791B0603F08073274909684968134301F5704293610023FB61BB8AB3F5807F02D1FB8A222B03D8BB8AB3F5807F31D00120FFF71AFC3861BB8A8F
:40464000B3F5807F07D1FB79002B01D0184B00E0184BBB6106E0FB79002B01D0164B00E0164BBB61BA6901213869FEF7BFF80346002B12D100BF3869FFF72CFC0346002B9A
:40468000F9D13869FFF71AFCF860FB6803F07F43B3F1204F01D10023FB61FB6918462037BD4680BDA8AF001004004200203B000801010030010000300300000C0100000CC7
:4046C00080B500AFFFF7A3FB0346B3F5807F2CD12D4B1B681A682C4B1B68D3F8983013441B6823F00F03284A12681168264A1268D2F898200A4443F002031360224B1B6892
:404700001A68214B1B68D3F89C3013441B6823F00F031D4A126811681B4A1268D2F89C200A4443F0020313602CE04FF0B05303F58053D3F8483823F44072134B1B6819682B
:40474000114B1B68D3F898300B441B6813430E4A126811680C4A1268D2F898200A4443F4407313604FF0B051074B1B681A68064B1B68D3F89C3013441A4601F58053D3F80A
:404780004438136000BF80BD203B000880B500AFFFF73DFB0346B3F5807F2CD12D4B1B681A682C4B1B68D3F8983013441B6823F00F03284A12681168264A1268D2F89820D2
:4047C0000A4443F003031360224B1B681A68214B1B68D3F89C3013441B6823F00F031D4A126811681B4A1268D2F89C200A4443F0030313602CE04FF0B05303F58053D3F82B
:40480000203823F44072134B1B681968114B1B68D3F898300B441B6813430E4A126811680C4A1268D2F898200A4443F4407313604FF0B051074B1B681A68064B1B68D3F8DD
:404840009C3013441A4601F58053D3F82038136000BF80BD203B000880B500AFFFF7D7FA0346B3F5807F16D11A4B1B681A68194B1B68D3F8983013441B6823F4E043154A1E
:4048800012681168134A1268D2F898200A4443F4C04313601CE04FF0B05303F58053D3F8183823F440720B4B1B681968094B1B68D3F898300B441B681343064A1268116895
:4048C000044A1268D2F898200A4443F44073136000BF80BD203B000880B500AFFFF797FA0346B3F5807F16D1224B1B681A68214B1B68D3F8983013441B6823F4E0431D4AB3
:40490000126811681B4A1268D2F898200A4443F4804313602CE04FF0B05303F58053D3F84C3823F44072134B1B681968114B1B68D3F898300B441B6813430E4A12681168F0
:404940000C4A1268D2F898200A4443F4407313604FF0B051074B1B681A68064B1B68D3F89C3013441A4601F58053D3F84C38136000BF80BD203B000880B582B000AF01235D
:40498000FB71FFF744FA0346B3F5807F13D10E20FEF726FD3860FFF727FA0346222B02D83B68002B01D1012300E00023FB71FB7903F00103FB71FB7918460837BD4680BDC3
:4049C00080B483B000AF0346FB71FB79042B06D10F4B1B680E4A43F00403136012E0FB791B060C4A126811680A4A1268D2F8A0200A4403F040731360054B1B68044A23F0CD
:404A00000403136000BF0C37BD465DF8047B704710E000E0203B000880B483B000AF7860044A7B68136000BF0C37BD465DF8047B704700BF203B000880B483B000AF786007
:404A40007B68D3F8403318460C37BD465DF8047B704780B483B000AF78607B68D3F80833C3F3080318460C37BD465DF8047B704780B483B000AF786039607B683A68C3F858
:404A8000402200BF0C37BD465DF8047B704780B483B000AF78607B68D3F80832C3F3080318460C37BD465DF8047B704780B483B000AF78607B681B6803F40063002B01D094
:404AC000802300E0402318460C37BD465DF8047B704780B483B000AF78607B68D3F8003303F00803002B0CBF01230023DBB218460C37BD465DF8047B704780B483B000AFC5
:404B000078607B68D3F8003203F00803002B0CBF01230023DBB218460C37BD465DF8047B704780B588B000AFF860B9607A60F868FFF7CFFF0346002B15D0BB687B610023C0
:404B4000FB610BE0F868FFF777FF01467A69FB691344CAB21A70FB690133FB61FA697B689A42EFD315E0BB68BB610023FB610CE0F868FFF761FF0146FB695B00BA6913448A
:404B80008AB21A80FB690133FB61FA697B689A42EED300BF2037BD4680BD80B586B000AFF860B9607A60F868FFF753FF78617A697B689A4201D97B687B617A69B968F8686D
:404BC000FFF7AFFF7B6918461837BD4680BD80B588B000AFF860B9607A60F868FFF78DFF0346002B14D0BB687B610023FB610AE07A69FB6913441B781946F868FFF738FF1A
:404C0000FB690133FB61FA697B689A42F0D314E0BB68BB610023FB610BE0FB695B00BA6913441B881946F868FFF722FFFB690133FB61FA697B689A42EFD300BF2037BD465B
:404C400080BD90B587B000AFF860B9607A60F868FFF72CFF0446F868FFF719FF0346E31A7B617A697B689A4201D97B687B617A69B968F868FFF7ABFF7B6918461C37BD464F
:404C800090BD80B483B000AF78607B68D3F8403318460C37BD465DF8047B704780B582B000AF78603960786800F0F0F802463B68934204D34FF423710848FEF709FF7B688C
:404CC000D3F8043323F0FF023B68DBB21A437B68C3F8042300BF0837BD4680BD74B1001080B483B000AF78607B68D3F80833C3F3080318460C37BD465DF8047B704780B4DE
:404D000083B000AF786039607B683A68C3F8402200BF0C37BD465DF8047B704780B483B000AF78607B68D3F80832C3F3080318460C37BD465DF8047B704780B483B000AF12
:404D400078607B68D3F8003E18460C37BD465DF8047B704780B582B000AF786039603B6823F4366323F00D03002B04D040F2A6310548FEF7ADFE7B683A68C3F8C82F00BF58
:404D80000837BD4680BD00BF74B1001080B483B000AF78607B68D3F8CC3F18460C37BD465DF8047B7047000080B582B000AF786039603B6823F4366323F00D03002B04D0AE
:404DC00040F2F1310648FEF783FE7B683A68C3F8C02F7B68D3F8C03F00BF0837BD4680BD74B1001080B582B000AF786039603B6823F4EE6323F00303002B04D040F23641F9
:404E00000548FEF765FE7B683A68C3F8882F00BF0837BD4680BD00BF74B1001080B483B000AF78607B68D3F8883F18460C37BD465DF8047B704780B483B000AF78607B6841
:404E4000D3F88C3F18460C37BD465DF8047B704780B582B000AF786039603B6823F4EE6323F00303002B04D040F283410648FEF72FFE7B683A68C3F8802F7B68D3F8803F01
:404E800000BF0837BD4680BD74B1001080B483B000AF78607B681B6803F40063002B01D0802300E0402318460C37BD465DF8047B704780B483B000AF78607B68D3F80033F1
:404EC00003F00803002B0CBF01230023DBB218460C37BD465DF8047B704780B483B000AF78607B68D3F8003203F00803002B0CBF01230023DBB218460C37BD465DF8047BAD
:404F00007047000080B584B000AFF860B9607A60BB68002B02D07B68002B04D14FF499610648FEF7D5FD7A68B968F868FFF735FE034618461037BD4680BD00BFD0B10010F8
:404F400080B584B000AFF860B9607A60BB68002B02D07B68002B04D140F273510648FEF7B7FD7A68B968F868FFF76BFE034618461037BD4680BD00BFD0B1001090B587B022
:404F800000AFF860B9607A60FB68002B02D0BB68002B01D1844B4CE2BB681B78002B0BD0BB681B78012B07D0BB681B78022B03D03F217E48FEF78CFDBB685B7B022B1BD09A
:404FC000BB685B7B032B17D0BB685B7B042B13D0BB685B7B052B0FD0BB685B7B062B0BD0BB685B7B072B07D0BB685B7B082B03D040216E48FEF76CFDBB689B7B002B0BD0D6
:40500000BB689B7B022B07D0BB689B7B032B03D041216648FEF75CFDBB6893F82130002B08D0BB6893F82130012B03D042215F48FEF74EFDBB6893F82830002B08D0BB6825
:4050400093F82830012B03D043215848FEF740FDBB681B78002B03D0BB681B78012B0ED1BB685B68072B03D9BB685B68102B01D9012300E0002303F00103DBB225E0BB68E1
:405080009B7F002B1DD0BB685B68012B19D0BB685B68022B15D0BB685B68032B11D0BB685B68042B0DD0BB685B68052B09D0BB685B68062B05D0BB685B68072B01D00123FC
:4050C00000E0002303F00103DBB2002B03D045213648FEF7FDFCBB689B68042B03D9BB689B68092B03D946213048FEF7F1FCBB685B69FF2B03D947212C48FEF7E9FCBB686B
:405100009B69FF2B03D948212848FEF7E1FCBB689B7C002B0FD0BB681B78002B07D1BB689B68092B03D1BB689B7B002B03D049211E48FEF7CDFCBB685B6B23F4366323F01E
:405140000D03002B03D04C211848FEF7C1FCBB68DB6B23F4EE6323F00303002B03D04D211248FEF7B5FCBB681B78022B09D1BB689B7F83F00103DBB2002B02D000237B6152
:4051800003E0BB685B68013B7B61BB681B7F002B02D04FF4803200E00022BB689B68082B06D84FF4006304E00160AA002CB2001000231A437B6903F00F03134343F000723F
:4051C000FB681A60BB681C6BF868FFF75FFE03469C4203D362219948FEF77AFCBB689C6BF868FFF753FE03469C4203D363219348FEF76EFCBB685C6AF868FFF747FE034650
:405200009C4203D364218D48FEF762FCBB681B781B0603F04072FB681A64BB685B7F002B01D0402200E00022BB689B7C002B02D04FF4806300E000231343BA68127C002AC3
:4052400002D04FF4807200E000221343BA68527C002A02D04FF4007200E000221A43BB68DB6A013B1B0403F470231A43BB685B7B013B03F007031A43BB689B7B1B0103F04E
:4052800030031A43FB689A64BB681B7B002B02D04FF4807200E00022BB68DB7B002B03D1BB681B78022B01D1012300E00023002B02D04FF4007300E000231A43BB689B6883
:4052C000013B03F00F031A43FB68C3F80023BB685B69DAB2BB689B691B0403F47F031A43FB68C3F81023BB68DA6AFB68D3F8003303F00F0303339A4203D3BB68DB6A102B97
:4053000003D97A214D48FEF7E3FBBB68DB7F002B05D0BB681B78012B01D1012300E00023002B02D04FF4807200E00022BB685B7B013B03F007031A43BB689B7B1B0103F02B
:4053400030031A43FB685A64BB681B7B002B02D04FF4807200E00022BB689B68013B03F00F031343BA681278012A02D14FF4803200E000221A43FB68C3F80022BB681B6BEB
:40538000DAB2FB68C3F80423BB6893F82030002B02D04FF0007200E00022BB6893F82130012B02D14FF0807300E000231343BA6892F82820012A02D14FF4803200E00022FC
:4053C0001A43BB685B6ADBB21A43FB681A65BB689B6BDAB2FB68C3F80422BB685A6B40F66D331340FA68C2F8C83FBB68DA6B40F273731340FA68C2F8883F7B68002B17D0C4
:405400007B6800225A607B6800221A607B6800229A607B680022DA607B6800221A627B680022DA627B6800221A637B68044A5A63002318461C37BD4690BD00BF2CB20010ED
:40544000EFCDAB0080B485B000AF786039603B681B69BB603B685B69BA689A4205D33B685B69BA68D31AFB6007E03B68DA683B685B69D31ABA681344FB60FB6818461437EC
:40548000BD465DF8047B704780B584B000AF786039607868FFF751FC034603F00803002B4BD07868FFF772FC034603F44873FB60FB68002B11D03B685A68FB681A433B6854
:4054C0005A60F9687868FFF76FFC3B681B6B002B03D03B681B6B102098477868FFF756FC034603F40063002B0AD03B685B6843F400623B685A604FF400617868FFF754FCFB
:405500007868FFF743FC034603F00103002B14D03B68DB69002B04D03968786800F062F807E03B689B68002B03D03968786800F0CEF801217868FFF737FC7868FFF7FDFB9B
:40554000034603F00403002B48D07868FFF773FC034603F4A063BB60BB68002B11D03B681A68BB681A433B681A60B9687868FFF76FFC3B681B6B002B03D03B681B6B20201F
:4055800098477868FFF757FC034603F00103002B07D03968786800F018F901217868FFF757FC7868FFF747FC034603F40073002B14D000217868FFF715FC3B681B6823F0B8
:4055C00001023B681A603B680022DA623B681B6B002B03D03B681B6B0220984700BF1037BD4680BD80B586B000AF786039607868FFF74CFC03465B087B613B6899693B687A
:40560000DB691A467868FFF77DFC38613B681A6A3B691A443B681A623B68DA693B69D21A3B68DA613B68DB69002B2AD13B689B68002B13D03B68DB687A699A4202D87B691E
:40564000013B02E03B68DB68013B19467868FFF725FB01217868FFF77DFB03E000217868FFF778FB3B685B6823F001023B685A603B681B6B002B26D03B681B6B0420984789
:4056800021E03B689B69FB607868FFF712FC034683F00103DBB2002B02D03B695B0000E03B69FA681344FB603B68FA689A613B68DB697A699A4206D93B68DB69013B19461B
:4056C0007868FFF7EBFA00BF1837BD4680BD90B589B000AF786039607868FFF7D7FB03465B087B617868FFF7FBFAF8613B681B69BB6147E0BB690133BB613B68DB68BA69C8
:405700009A4201D10023BB613B685B69BA699A421BD13B681B6B002B03D03B681B6B082098473B685B69BA699A420ED100217868FFF710FBBB69002B02D0BB69013B02E029
:405740003B68DB68013BBB611FE07868FFF799FA38617868FFF7ADFB0346002B07D03B689A68BB6913443A69D2B21A7007E03B689A68BB695B0013443A6992B21A80FB6909
:40578000013BFB61FB69002BB4D13B68BA691A613B68DC6839687868FFF754FE0346E31AFB61FA697B699A420BD2FB69002B02D0FB69013B00E00023FB60F9687868FFF714
:4057C0006DFA00BF2437BD4690BD80B588B000AF786039607868FFF759FBF8617868FFF77CFB0346FB763B689B6A012B26D93B685B6A7B613B689A6A3B68DA623B68596ABE
:405800003B689B6A013B1A467868FFF799FB38613B689A6A3B69D21A3B689A62FB7E83F00103DBB2002B02D03B695B0000E03B697A6913447B613B687A695A627868FFF720
:405840006DFA0246FB6993423CD03B689B6A012B38D13B6800229A62FB7E002B03D03B685B6A1B7802E03B685B6A1B88FB60FEF7B4FAB860F9687868FFF741FA4FF40071FB
:405880007868FFF7E5FAB868FEF7ABFA7868FFF7C5FA034623F4007323F0010343F4007319467868FFF79EFA3B681B6843F002023B681A603B681B6B002B03D03B681B6BB9
:4058C0000120984700BF2037BD4680BD80B400AF4FF0B0535B78DBB2002B04D04FF0B0535B78DBB200E021231846BD465DF8047B7047000080B400AF064B5B6903F080436E
:40590000002B14BF01230023DBB21846BD465DF8047B70470000264080B584B000AF0346FB71FFF7E7FF0346FB730E4B1B6893F84430002B12D0FB7B002B0FD0FB79002BDC
:4059400006D0094B9B69084A43F08043936105E0054B9B69044A23F08043936100BF1037BD4680BD203B00080000264080B400AF064B5B6803F40033002B14BF01230023F7
:40598000DBB21846BD465DF8047B70470000264080B400AF054BD3F80035DBB203F00303DBB21846BD465DF8047B70470000264080B586B000AF786000237B610023FB6001
:4059C0007B68002B02D1A74B7B6146E1A64B3B61FFF7CCFF0346002B08D0FEF7C3FD05E03B69013B3B610120FEF758F89F4B03F5F833DB6E002B02D03B69002BF0D19B4BF2
:405A000003F5F833D3F8A03003F00103002B08D0964B03F5F833D3F8B43003F00103002B05D1924B03F5F833DB6E002B02D0904B7B6112E100F046F98C4B03F5F8331A468A
:405A40008C4BC2F8A4307B681B78884A43F4202302F5F832C2F8A830844B03F5F8331A464FF00113C2F8AC30804BD3F8003103F00103002B02D0804B7B61EEE00023BB60A3
:405A80007E4B1B6F03F00803002B0DD17C4B1B687C4A93420AD97A4B1B687B4AA2FB03231B0D013BBB6001E00123BB606F4B1A68BB68002B04D0BB685903744B0B4300E08B
:405AC000734B6A4913430B60FFF714FF0346002B07D001210320FEF719FB0120FFF71CFF0BE0624B03F5F833D3F8C4305F4A43F0030302F5F832C2F8C4305C4B03F5F833AB
:405B0000D3F8A030FB60FB6843F4403343F03003FB60564B03F5F8331A46FB68C2F8A0304020FDF7BBFF514B03F5F833D3F8B03003F00103002B13D14C4B03F5F8331A46F8
:405B40000123C2F8B0304020FDF7A8FF474B03F5F8331A460323C2F8B0304020FDF79EFFFB6823F4803323F01003FB603F4B03F5F8331A46FB68C2F8A0304FF4FA633B61C2
:405B800005E03B69013B3B610120FDF787FF414B03F580431B6903F01003002B02D13B69002BEED13B69002B01D13B4B7B617B69002B3FD12C4B3B612C4B03F5F8339B6EB4
:405BC0002A4A43F0080302F5F83293660120FEF75DFA034683F00103DBB2002B03D0FB6843F00803FB60FB6843F00103FB60FB6823F48023FB601D4B03F5F8331A46FB686A
:405C0000C2F8A03005E03B69013B3B610120FDF745FF164B03F5F833D3F8B43003F00103002B02D13B69002BEDD13B69002B01D1194B7B617B69002B03D1786800F032F9AC
:405C400078617B69002B08D17B685A787B681B781946104600F0F6F878617B6918461837BD4680BD01001600F07E0E0000003C4003001600060000010200160000F03D4047
:405C80009402000800093D0083DE1B43041A0080040A0080000032400400160080B400AF074B03F5F8331B6F054A43F0100302F5F832136700BFBD465DF8047B704700BF6B
:405CC00000003C40B0B59CB000AF194B07F14C041D460FCD0FC40FCD0FC42B682360154B07F128041D460FCD0FC40FCD0FC42B682360114B3C1D1D460FCD0FC40FCD0FC474
:405D00002B68236007F14C0319460C48FCF72AFC07F1280319460A48FCF724FC3B1D19460848FCF71FFC00BF7037BD46B0BD00BF88B20010ACB20010D0B2001000013240EC
:405D4000800132400002324080B586B000AF03463960FB801A4B7B614FF47A733B61FB886FEA43436FEA53439BB21B04FB60154AFB68D36105E03B69013B3B610120FDF7B4
:405D80008DFE104B1B6C03F00103002B02D13B69002BF0D13B69002B0CD00A4B1B6C094A43F001031364074BDB6A9AB23B681A8000237B617B6918461837BD4680BD00BFBA
:405DC0000400160000003C4080B586B000AF03460A46FB801346BB80174B7B614FF47A733B61FB881A04154B1340BA881343FB60134AFB68D36105E03B69013B3B61012084
:405E0000FDF74CFE0E4B1B6C03F00103002B02D13B69002BF0D13B69002B07D0084B1B6C074A43F00103136400237B617B6918461837BD4680BD00BF040016000000FF7F19
:405E400000003C4080B584B000AF03460A46FB711346BB7141F201037B81FB799BB25B009AB27B8913437B817B89194641F60860FFF7AAFFF860FB68002B06D146F6370141
:405E800041F60F60FFF7A0FFF860BB799BB25B019BB21846FDF702FEFB6818461037BD4680BD000080B586B000AF78600A233B614FF4C05141F60260FFF786FFF860FB68AD
:405EC000002B07D107F10803194641F60260FFF73BFFF8603B69002B03D03B69013B3B6101E0614BFB60FB68002B03D13B89B3F5C05FDDD1FB68002B33D10A233B6107F128
:405F00000803194641F60360FFF71EFFF860FB68002B26D13B8903F48063002B21D14FF4806141F60360FFF74FFFF860FB68002B07D107F10803194641F60360FFF704FFFD
:405F4000F8603B69002B03D03B69013B3B6101E0454BFB60FB68002B03D13B89B3F5806FDDD1FB68002B07D107F10803194641F60960FFF7E9FEF860FB68002B6CD10023E9
:405F8000BB823B8923F03F039BB23B817B689B78012B1FD17B68DB78012B02D90223FB8206E07B68DB78FB82FB8AC3F10203BB823B8943F040039BB23B813B8943F0300310
:405FC0009BB23B817B68DB781A46284BD340284A13601EE07B68DB78002B02D00123FB8206E07B68DB78FB82FB8AC3F10103BB823B8923F040039BB23B813B8943F0100385
:406000009BB23B817B68DB781A461A4BD340184A13603A89FB8A13439BB23B813B89194641F60960FFF7D0FEF8607B68DB789AB2FB8AD31A7B817B8903F003039BB23B81F8
:40604000BB8A9B009AB23B8913439BB23B813A89094B03F5F8335A66FFF738FCFB6818461837BD4680BD00BF040016000048E801980200080024F40000003C4080B400AF3A
:40608000034B1B681846BD465DF8047B704700BF9802000880B582B000AF0023FB7100233B600BE03868FDF705FA0346032B02D10123FB7105E03B6801333B603B68042BDE
:4060C000F0D9FB7918460837BD4680BD80B582B000AFFFF75DFC0346FB71FB79012B02D0FB79032B01D1012300E0002318460837BD4680BD80B483B000AF0346FB71044A69
:40610000FB79137000BF0C37BD465DF8047B70473D3B000880B500AF0248FEF721F900BF80BD00BFFC07000880B584B000AF78600023FB607B68002B02D1124BFB601CE052
:40614000114A7B681360104B1B68DB6A002B04D00D4B1B68DB6A0D4A13600D4B00221A70012200210B4802F0DDFE0B4B00221A600A4B00221A7000F0EDFFFB681846103723
:40618000BD4680BD010016002C3B0008243B0008613B0008603B0008643B0008683B0008F0B59DB000AF0023FB66464B07F158041D460FCD0FC42B68236007F10C034C2272
:4061C0000021184602F0AEFE3F4BFB6007F158037B6142F218333B830523BB76FB23BB84FB23FB84032387F82830042387F82930062387F82A30082387F82D304123A7F8D6
:406200005030012387F854303048FEF75BF8FB6E002B08D106F007FB07F10C031833184606F06CFBF866FB6E002B45D1284B3B61284B1B689B6B002B19D0264B1B689B6B64
:4062400007F12E0003F1200402461946D1F800C04E688D68C968C2F800C056609560D16010331030A342EFD102461B88138007F10C03184606F0EAFAF866FB6E002B18D1BE
:40628000154B01221A70154B00221A700020FFF731FF104B1B681B6A7B600E4B1B689B6ADB883B81F4237B813B1D18460EF0ECFAF8660B4B00221A60FB6E18467437BD46CF
:4062C000F0BD00BFF4B200107D7C0010FC070008B41300082C3B00083C3B0008443B0008643B000880B582B000AF06F0BFFE78607B6818460837BD4680BD000080B483B0B5
:4063000000AF7860054B03F5F8331A467B68936700BF0C37BD465DF8047B704700003C4080B586B000AF78600B46FB70FB78012B02D0082B5CD063E0364B1B78012B02D146
:40634000354B7B615FE00320FCF76AFC0346334A934202D1304B7B6155E0FFF79BFE0346012B02D12C4B7B614DE0022006F062FA0346FB74FDF731FD0346294A136028F020
:406380007DF80346BB74BB7C062B02D100237B6124E0FB7C022B12D1022014F04DFBF860BB7C032B02D0BB7C052B05D1FB68002B02D100237B6111E0174B7B610EE0012053
:4063C00014F03AFBF860BB7C022B05D0FB68002B02D10020FDF794FD0F4B7B617B690E4A934210D10E4B1B681846FDF7FAFC0AE00B4B1B681846FDF7F4FC00237B6103E09A
:40640000054B7B6100E000BF7B6918461837BD4680BD00BF3C3B0008FF00420001018800383B000880B582B000AF0023FB711BF0FFFA0346FB71074B1B68002B05D0FB7995
:40644000002B02D0034B1B68984700BF0837BD4680BD00BF283B000880B483B000AF0346FB80B7F90630002B0BDBFB8803F01F020749B7F906305B09012000FA02F241F8BD
:40648000232000BF0C37BD465DF8047B704700BF00E100E080B483B000AF0346FB80B7F90630002B12DBFB8803F01F020A49B7F906305B09012000FA02F2203341F823209F
:4064C000BFF34F8F00BFBFF36F8F00BF00BF0C37BD465DF8047B704700E100E080B400AF064B5B6903F08043002B14BF01230023DBB21846BD465DF8047B704700002640BB
:4065000080B483B000AF064B5B6903F007037B607B68DBB218460C37BD465DF8047B70470000264080B483B000AF0D4B03F57043D3F81C3F03F01F037B604FF0B05393F857
:406540004037DBB21A467B68934214BF01230023DBB218460C37BD465DF8047B704700BF0000264080B400AF064B1B6803F40003002B0CBF01230023DBB21846BD465DF8D3
:40658000047B70470000264080B483B000AF7860094BD3F83C3523F47F7323F003037A68C2F3090204491343C1F83C3500BF0C37BD465DF8047B70470000264080B400AF57
:4065C000044BD3F83C35C3F309031846BD465DF8047B70470000264080B400AF044BD3F81C35DB0FDBB21846BD465DF8047B70470000264080B400AF054BD3F80035DBB225
:4066000003F00303DBB21846BD465DF8047B70470000264080B584B000AF786039607B68002B0BD03B68B3F5FD7F07D201233A680649786800F02EF8F86001E0044BFB6082
:40664000FB6818461037BD4680BD00BF070800160100160080B584B000AF786039600023FB607B68002B09D03B68B3F5FD7F05D23A680649786802F047FC01E0044BFB60BA
:40668000FB6818461037BD4680BD00BF070800160100160090B5ADF5117D00AF07F51074A4F50D74206007F51070A0F50E70016007F51071A1F50F710A6007F51072A2F557
:4066C000107213600023C7F838320023C7F834320023C7F8283207F51073A3F50E731B68C7F8183207F11403C7F81432D7F81832B3F1805F0AD307F51073A3F50F73D7F8BC
:4067000018221B681344AB4A934221D9D7F81832B3F1A05F0AD307F51073A3F50F73D7F818221B681344A44A934211D9D7F81832A24A934240F2B08107F51073A3F50F73E9
:40674000D7F818221B6813449D4A934200F2A481052387F82232012387F82132002387F82032FFF7BBFE0346002B13D0FFF7C8FE034687F8223297F82232022B1DD105207D
:40678000FDF724FCC7F83402D7F834328D4A9342F5D012E0FFF7C6FE034687F8213297F82132002B09D10120FDF702FDC7F83402D7F83432834A9342F5D0D7F83432824AD6
:4067C000934204D140F2D5118048FDF781F9D7F8183203F17043C7F81832D7F818325B0AC7F83032D7F830325B02C7F8243200BF00210320FCF736F90346002BF8D100E153
:40680000002387F823320023C7F82C3255E0D7F82422D7F818329A4238D307F51073A3F50F73D7F828221B689A422FD207F51073A3F50D731A68D7F828321A44D7F8141230
:40684000D7F82C320B4412781A7097F8233283F00103DBB2002B13D0D7F8243203F180531B78DAB207F51073A3F50D731968D7F828320B441B789A4202D0012387F82332BE
:40688000D7F828320133C7F828320CE0D7F8243203F180531946D7F81422D7F82C3213440A78D2B21A70D7F824320133C7F82432D7F82C320133C7F82C32D7F82C32B3F551
:4068C000007FA4D397F82332002B00F09580D7F83432002B40F09080C823C7F81C3207F51073A3F510731B68002B75D1C823C7F81C32D7F8303203F500235B021846FBF777
:40690000ABF9C7F83802D7F81C32013BC7F81C320120FDF7C3F8D7F8383203F4A403B3F5A40F03D1D7F81C32002BE2D1D7F83832274A934208D1FBF787F9C7F83802D7F8F1
:406940003832244A9342F6D0D7F83832002B22D1C823C7F81C32D7F8303203F500235B0207F1140211461846FBF7D8F9C7F83802D7F81C32013BC7F81C320120FDF78EF82C
:40698000D7F8383203F4A403B3F5A40F03D1D7F81C32002BDFD1D7F838320D4A934228D1FBF752F9C7F83802D7F83832094A9342F6D01EE00000101000800014FF07001650
:4069C000000A0016040042000300420008B300100100500002005000D7F8303203F500235B0207F1140211461846FBF7D1F8C7F83802012387F82032D7F830320133C7F845
:406A00003032D7F83432002B0DD1D7F83832002B09D107F51073A3F50F73D7F828221B689A42FFF4EDAE97F82032002B01D0FDF763F800BF00210320FCF782F80346002BC9
:406A4000F8D1D7F83432002B2AD1FFF747FD0346002B0DD097F82232022B09D10220FDF7B5FAC7F83402D7F83432254A9342F5D0FFF778FD0346002B12D097F82132002BB7
:406A80000ED10020FDF794FBC7F83402D7F834321B4A9342F5D003E01A4BC7F8383200E000BFD7F83432002B03D0174BC7F83C321FE0D7F83832134A934212D0D7F83832D4
:406AC000104A934211D8D7F83832002B05D0D7F838320E4A934204D007E00023C7F83C3207E00B4BC7F83C3203E00A4BC7F83C3200BFD7F83C32184607F51177BD4690BDD7
:406B000004004200060052001200160002005200010016001300160080B5C6B000AF07F58C73A3F58673186007F58C73A3F58873196007F58C73A3F211131A7007F58C735D
:406B4000A3F58273224A184611464FF480731A4602F0DAF907F58C73A3F211131B7887F8173127E007F58C73A3F586731B681A7897F817315340DBB21A4607F58C73A3F56C
:406B800082739B5C87F8173107F58C73A3F5867307F58C72A2F58672126801321A6007F58C73A3F5887307F58C72A2F588721268013A1A6007F58C73A3F588731B68002B62
:406BC000D0D197F81731184607F58C77BD4680BD60B3001080B483B000AF4423BB7174237B7168233B717C23FB700123BB7074237B70BB78012B02D17B78002B06D0BB78C6
:406C0000012B06D17A787B799A4202D10023FB7125E0BB78022B02D17B78002B06D0BB78022B06D17A783B799A4202D10123FB7115E0BB78012B06D17A78FB789A4202D1A6
:406C40000223FB710BE0BB78002B06D17A78BB799A4202D10323FB7101E00023FB71FB7918460C37BD465DF8047B704780B483B000AF786039607B681B881A46AE2302FBAE
:406C800003F3A3F26F33064AA2FB0323DB089AB23B681A8000BF0C37BD465DF8047B7047CDCCCCCC80B483B000AF786039607B681B881BB21A4642F64B0302FB03F3094A61
:406CC00082FB03121213DB179B1A9BB2BD339BB21AB23B681A8000BF0C37BD465DF8047B704700BFAD8BDB6880B483B000AF0023FB71FB7918460C37BD465DF8047B704791
:406D000080B582B000AF7860786813F0C3FC034618460837BD4680BD80B582B000AF0346FB80FB881846FCF7B9FE00BF0837BD4680BD000080B500AF044B1B685B6BB3F9D2
:406D400000301846FFF788FB00BF80BD2C3B000880B500AF044B1B685B6BB3F900301846FFF798FB00BF80BD2C3B000880B500AFFFF740FC0346184680BD80B500AFFFF723
:406D80002BFC0346184680BD80B582B000AF03463960FB71FB7939681846FCF7E7FC034618460837BD4680BD80B584B000AF03463960FB801346BB800A4BFB600320FBF727
:406DC0002FFF0346084A934206D0BA88FB8839681846FCF7A3FBF860FB6818461037BD4680BD00BF03004A000101880080B588B000AFF860B9607A600023FB610023BB616F
:406E0000FA68BB68D31A002BB8BF5B427B617A697B689A422FD3FFF7D1FBB861FA68BB689A4211D9FA68BB68D21A7B685B081A447B68B2FBF3F3BA69D31AFB61FB69002B75
:406E400016DA0023FB6113E0BA68FB68D21A7B685B081A447B68B2FBF3F3BA691344FB61FB6940F2FE32934202D940F2FF33FB61F869FFF789FBBA69FB69D31A1846203715
:406E8000BD4680BD80B582B000AF7860064B1B681A464FF400417868FFF7A8FF034618460837BD4680BD00BF1408000880B500AFFEF708FF0220FFF721FA084B1B685B6BB7
:406EC00007491846FCF75AFD044B1B685B6BB3F900301846FFF7C0FA00BF80BD2C3B00082564001080B400AF04231846BD465DF8047B704780B500AFFCF76FFF0346184632
:406F000080BD80B582B000AF78607868FCF769FF00BF0837BD4680BD80B582B000AF0346FB71FB791846FCF7EBFF034618460837BD4680BD80B582B000AF0346FB71FB79CE
:406F400000211846FDF7E2F800BF0837BD4680BD80B483B000AF78600B46FB7000BF0C37BD465DF8047B704780B400AF00BFBD465DF8047B704780B483B000AF0346FB7151
:406F8000002318460C37BD465DF8047B7047000080B483B000AF7860034B18460C37BD465DF8047B704700BF1100160080B483B000AF7860034B18460C37BD465DF8047B7A
:406FC000704700BF1100160080B483B000AF7860034B18460C37BD465DF8047B704700BF1100160080B483B000AF7860034B18460C37BD465DF8047B704700BF1100160052
:4070000080B483B000AF7860034B18460C37BD465DF8047B704700BF1100160080B483B000AF7860034B18460C37BD465DF8047B704700BF1100160080B483B000AF7860C0
:40704000034B18460C37BD465DF8047B704700BF1100160080B483B000AF7860034B18460C37BD465DF8047B704700BF1100160080B483B000AF7860034B18460C37BD467C
:407080005DF8047B704700BF1100160080B483B000AF0346FB71034B18460C37BD465DF8047B70471100160080B483B000AF78603960034B18460C37BD465DF8047B7047EC
:4070C0001100160080B483B000AF0346FB7100BF0C37BD465DF8047B7047000080B400AF034B1B781846BD465DF8047B704700BF3D3B000880B483B000AF0346FB71044A06
:40710000FB79137000BF0C37BD465DF8047B70473D3B000880B483B000AF0023FB7000237B600BE00A4A7B6813441B78012B02D9FB780133FB707B6801337B607B68002B81
:40714000F0D0FB7818460C37BD465DF8047B7047443B000880B500AF034801F0FDF8034801F026F900BF80BDF8070008F007000880B584B000AF03460A46FB711346BB7112
:40718000FB79022B02D8BB79002B02D0684BFB60C8E0FFF7BFFF0346012B1CD1654B1B681968BA7913469B0013449B000B445B681B79012B0CD95F4B1B681968BA79134699
:4071C0009B0013449B000B445B681B79032B02D9594BFB60A6E0FFF781FF0346002B40F09F80564ABB791370FB79002B3ED1514B1B685968BA791346DB009B1A5B001944DC
:407200004C4B1B681868BA7913469B0013449B0003448A881A82474B1B685968BA791346DB009B1A5B001944424B1B681868BA7913469B0013449B0003445B680A881A801D
